
can_com.elf:     file format elf32-littlearm

Sections:
Idx Name          Size      VMA       LMA       File off  Algn
  0 .isr_vector   00000298  08000000  08000000  00010000  2**0
                  CONTENTS, ALLOC, LOAD, READONLY, DATA
  1 .text         000042f8  08000298  08000298  00010298  2**2
                  CONTENTS, ALLOC, LOAD, READONLY, CODE
  2 .rodata       0000006c  08004590  08004590  00014590  2**2
                  CONTENTS, ALLOC, LOAD, READONLY, DATA
  3 .ARM.extab    00000000  080045fc  080045fc  00020010  2**0
                  CONTENTS
  4 .ARM          00000000  080045fc  080045fc  00020010  2**0
                  CONTENTS
  5 .preinit_array 00000000  080045fc  080045fc  00020010  2**0
                  CONTENTS, ALLOC, LOAD, DATA
  6 .init_array   00000004  080045fc  080045fc  000145fc  2**2
                  CONTENTS, ALLOC, LOAD, DATA
  7 .fini_array   00000004  08004600  08004600  00014600  2**2
                  CONTENTS, ALLOC, LOAD, DATA
  8 .data         00000010  24000000  08004604  00020000  2**2
                  CONTENTS, ALLOC, LOAD, DATA
  9 .bss          00000120  24000010  08004614  00020010  2**2
                  ALLOC
 10 ._user_heap_stack 00000600  24000130  08004614  00020130  2**0
                  ALLOC
 11 .ARM.attributes 0000002e  00000000  00000000  00020010  2**0
                  CONTENTS, READONLY
 12 .debug_info   0001614f  00000000  00000000  0002003e  2**0
                  CONTENTS, READONLY, DEBUGGING, OCTETS
 13 .debug_abbrev 0000249c  00000000  00000000  0003618d  2**0
                  CONTENTS, READONLY, DEBUGGING, OCTETS
 14 .debug_aranges 00000ab8  00000000  00000000  00038630  2**3
                  CONTENTS, READONLY, DEBUGGING, OCTETS
 15 .debug_ranges 000009e0  00000000  00000000  000390e8  2**3
                  CONTENTS, READONLY, DEBUGGING, OCTETS
 16 .debug_macro  00035606  00000000  00000000  00039ac8  2**0
                  CONTENTS, READONLY, DEBUGGING, OCTETS
 17 .debug_line   0000bf82  00000000  00000000  0006f0ce  2**0
                  CONTENTS, READONLY, DEBUGGING, OCTETS
 18 .debug_str    00156346  00000000  00000000  0007b050  2**0
                  CONTENTS, READONLY, DEBUGGING, OCTETS
 19 .comment      00000053  00000000  00000000  001d1396  2**0
                  CONTENTS, READONLY
 20 .debug_frame  00002bd8  00000000  00000000  001d13ec  2**2
                  CONTENTS, READONLY, DEBUGGING, OCTETS

Disassembly of section .text:

08000298 <__do_global_dtors_aux>:
 8000298:	b510      	push	{r4, lr}
 800029a:	4c05      	ldr	r4, [pc, #20]	; (80002b0 <__do_global_dtors_aux+0x18>)
 800029c:	7823      	ldrb	r3, [r4, #0]
 800029e:	b933      	cbnz	r3, 80002ae <__do_global_dtors_aux+0x16>
 80002a0:	4b04      	ldr	r3, [pc, #16]	; (80002b4 <__do_global_dtors_aux+0x1c>)
 80002a2:	b113      	cbz	r3, 80002aa <__do_global_dtors_aux+0x12>
 80002a4:	4804      	ldr	r0, [pc, #16]	; (80002b8 <__do_global_dtors_aux+0x20>)
 80002a6:	f3af 8000 	nop.w
 80002aa:	2301      	movs	r3, #1
 80002ac:	7023      	strb	r3, [r4, #0]
 80002ae:	bd10      	pop	{r4, pc}
 80002b0:	24000010 	.word	0x24000010
 80002b4:	00000000 	.word	0x00000000
 80002b8:	08004578 	.word	0x08004578

080002bc <frame_dummy>:
 80002bc:	b508      	push	{r3, lr}
 80002be:	4b03      	ldr	r3, [pc, #12]	; (80002cc <frame_dummy+0x10>)
 80002c0:	b11b      	cbz	r3, 80002ca <frame_dummy+0xe>
 80002c2:	4903      	ldr	r1, [pc, #12]	; (80002d0 <frame_dummy+0x14>)
 80002c4:	4803      	ldr	r0, [pc, #12]	; (80002d4 <frame_dummy+0x18>)
 80002c6:	f3af 8000 	nop.w
 80002ca:	bd08      	pop	{r3, pc}
 80002cc:	00000000 	.word	0x00000000
 80002d0:	24000014 	.word	0x24000014
 80002d4:	08004578 	.word	0x08004578

080002d8 <MX_FDCAN1_Init>:

FDCAN_HandleTypeDef hfdcan1;

/* FDCAN1 init function */
void MX_FDCAN1_Init(void)
{
 80002d8:	b580      	push	{r7, lr}
 80002da:	af00      	add	r7, sp, #0

  hfdcan1.Instance = FDCAN1;
 80002dc:	4b2e      	ldr	r3, [pc, #184]	; (8000398 <MX_FDCAN1_Init+0xc0>)
 80002de:	4a2f      	ldr	r2, [pc, #188]	; (800039c <MX_FDCAN1_Init+0xc4>)
 80002e0:	601a      	str	r2, [r3, #0]
  hfdcan1.Init.FrameFormat = FDCAN_FRAME_CLASSIC;
 80002e2:	4b2d      	ldr	r3, [pc, #180]	; (8000398 <MX_FDCAN1_Init+0xc0>)
 80002e4:	2200      	movs	r2, #0
 80002e6:	609a      	str	r2, [r3, #8]
  hfdcan1.Init.Mode = FDCAN_MODE_NORMAL;
 80002e8:	4b2b      	ldr	r3, [pc, #172]	; (8000398 <MX_FDCAN1_Init+0xc0>)
 80002ea:	2200      	movs	r2, #0
 80002ec:	60da      	str	r2, [r3, #12]
  hfdcan1.Init.AutoRetransmission = DISABLE;
 80002ee:	4b2a      	ldr	r3, [pc, #168]	; (8000398 <MX_FDCAN1_Init+0xc0>)
 80002f0:	2200      	movs	r2, #0
 80002f2:	741a      	strb	r2, [r3, #16]
  hfdcan1.Init.TransmitPause = DISABLE;
 80002f4:	4b28      	ldr	r3, [pc, #160]	; (8000398 <MX_FDCAN1_Init+0xc0>)
 80002f6:	2200      	movs	r2, #0
 80002f8:	745a      	strb	r2, [r3, #17]
  hfdcan1.Init.ProtocolException = DISABLE;
 80002fa:	4b27      	ldr	r3, [pc, #156]	; (8000398 <MX_FDCAN1_Init+0xc0>)
 80002fc:	2200      	movs	r2, #0
 80002fe:	749a      	strb	r2, [r3, #18]
  hfdcan1.Init.NominalPrescaler = 8;
 8000300:	4b25      	ldr	r3, [pc, #148]	; (8000398 <MX_FDCAN1_Init+0xc0>)
 8000302:	2208      	movs	r2, #8
 8000304:	615a      	str	r2, [r3, #20]
  hfdcan1.Init.NominalSyncJumpWidth = 1;
 8000306:	4b24      	ldr	r3, [pc, #144]	; (8000398 <MX_FDCAN1_Init+0xc0>)
 8000308:	2201      	movs	r2, #1
 800030a:	619a      	str	r2, [r3, #24]
  hfdcan1.Init.NominalTimeSeg1 = 10;
 800030c:	4b22      	ldr	r3, [pc, #136]	; (8000398 <MX_FDCAN1_Init+0xc0>)
 800030e:	220a      	movs	r2, #10
 8000310:	61da      	str	r2, [r3, #28]
  hfdcan1.Init.NominalTimeSeg2 = 9;
 8000312:	4b21      	ldr	r3, [pc, #132]	; (8000398 <MX_FDCAN1_Init+0xc0>)
 8000314:	2209      	movs	r2, #9
 8000316:	621a      	str	r2, [r3, #32]
  hfdcan1.Init.DataPrescaler = 8;
 8000318:	4b1f      	ldr	r3, [pc, #124]	; (8000398 <MX_FDCAN1_Init+0xc0>)
 800031a:	2208      	movs	r2, #8
 800031c:	625a      	str	r2, [r3, #36]	; 0x24
  hfdcan1.Init.DataSyncJumpWidth = 1;
 800031e:	4b1e      	ldr	r3, [pc, #120]	; (8000398 <MX_FDCAN1_Init+0xc0>)
 8000320:	2201      	movs	r2, #1
 8000322:	629a      	str	r2, [r3, #40]	; 0x28
  hfdcan1.Init.DataTimeSeg1 = 10;
 8000324:	4b1c      	ldr	r3, [pc, #112]	; (8000398 <MX_FDCAN1_Init+0xc0>)
 8000326:	220a      	movs	r2, #10
 8000328:	62da      	str	r2, [r3, #44]	; 0x2c
  hfdcan1.Init.DataTimeSeg2 = 9;
 800032a:	4b1b      	ldr	r3, [pc, #108]	; (8000398 <MX_FDCAN1_Init+0xc0>)
 800032c:	2209      	movs	r2, #9
 800032e:	631a      	str	r2, [r3, #48]	; 0x30
  hfdcan1.Init.MessageRAMOffset = 0;
 8000330:	4b19      	ldr	r3, [pc, #100]	; (8000398 <MX_FDCAN1_Init+0xc0>)
 8000332:	2200      	movs	r2, #0
 8000334:	635a      	str	r2, [r3, #52]	; 0x34
  hfdcan1.Init.StdFiltersNbr = 1;
 8000336:	4b18      	ldr	r3, [pc, #96]	; (8000398 <MX_FDCAN1_Init+0xc0>)
 8000338:	2201      	movs	r2, #1
 800033a:	639a      	str	r2, [r3, #56]	; 0x38
  hfdcan1.Init.ExtFiltersNbr = 0;
 800033c:	4b16      	ldr	r3, [pc, #88]	; (8000398 <MX_FDCAN1_Init+0xc0>)
 800033e:	2200      	movs	r2, #0
 8000340:	63da      	str	r2, [r3, #60]	; 0x3c
  hfdcan1.Init.RxFifo0ElmtsNbr = 1;
 8000342:	4b15      	ldr	r3, [pc, #84]	; (8000398 <MX_FDCAN1_Init+0xc0>)
 8000344:	2201      	movs	r2, #1
 8000346:	641a      	str	r2, [r3, #64]	; 0x40
  hfdcan1.Init.RxFifo0ElmtSize = FDCAN_DATA_BYTES_8;
 8000348:	4b13      	ldr	r3, [pc, #76]	; (8000398 <MX_FDCAN1_Init+0xc0>)
 800034a:	2204      	movs	r2, #4
 800034c:	645a      	str	r2, [r3, #68]	; 0x44
  hfdcan1.Init.RxFifo1ElmtsNbr = 0;
 800034e:	4b12      	ldr	r3, [pc, #72]	; (8000398 <MX_FDCAN1_Init+0xc0>)
 8000350:	2200      	movs	r2, #0
 8000352:	649a      	str	r2, [r3, #72]	; 0x48
  hfdcan1.Init.RxFifo1ElmtSize = FDCAN_DATA_BYTES_8;
 8000354:	4b10      	ldr	r3, [pc, #64]	; (8000398 <MX_FDCAN1_Init+0xc0>)
 8000356:	2204      	movs	r2, #4
 8000358:	64da      	str	r2, [r3, #76]	; 0x4c
  hfdcan1.Init.RxBuffersNbr = 0;
 800035a:	4b0f      	ldr	r3, [pc, #60]	; (8000398 <MX_FDCAN1_Init+0xc0>)
 800035c:	2200      	movs	r2, #0
 800035e:	651a      	str	r2, [r3, #80]	; 0x50
  hfdcan1.Init.RxBufferSize = FDCAN_DATA_BYTES_8;
 8000360:	4b0d      	ldr	r3, [pc, #52]	; (8000398 <MX_FDCAN1_Init+0xc0>)
 8000362:	2204      	movs	r2, #4
 8000364:	655a      	str	r2, [r3, #84]	; 0x54
  hfdcan1.Init.TxEventsNbr = 0;
 8000366:	4b0c      	ldr	r3, [pc, #48]	; (8000398 <MX_FDCAN1_Init+0xc0>)
 8000368:	2200      	movs	r2, #0
 800036a:	659a      	str	r2, [r3, #88]	; 0x58
  hfdcan1.Init.TxBuffersNbr = 0;
 800036c:	4b0a      	ldr	r3, [pc, #40]	; (8000398 <MX_FDCAN1_Init+0xc0>)
 800036e:	2200      	movs	r2, #0
 8000370:	65da      	str	r2, [r3, #92]	; 0x5c
  hfdcan1.Init.TxFifoQueueElmtsNbr = 1;
 8000372:	4b09      	ldr	r3, [pc, #36]	; (8000398 <MX_FDCAN1_Init+0xc0>)
 8000374:	2201      	movs	r2, #1
 8000376:	661a      	str	r2, [r3, #96]	; 0x60
  hfdcan1.Init.TxFifoQueueMode = FDCAN_TX_FIFO_OPERATION;
 8000378:	4b07      	ldr	r3, [pc, #28]	; (8000398 <MX_FDCAN1_Init+0xc0>)
 800037a:	2200      	movs	r2, #0
 800037c:	665a      	str	r2, [r3, #100]	; 0x64
  hfdcan1.Init.TxElmtSize = FDCAN_DATA_BYTES_8;
 800037e:	4b06      	ldr	r3, [pc, #24]	; (8000398 <MX_FDCAN1_Init+0xc0>)
 8000380:	2204      	movs	r2, #4
 8000382:	669a      	str	r2, [r3, #104]	; 0x68
  if (HAL_FDCAN_Init(&hfdcan1) != HAL_OK)
 8000384:	4804      	ldr	r0, [pc, #16]	; (8000398 <MX_FDCAN1_Init+0xc0>)
 8000386:	f000 fcfd 	bl	8000d84 <HAL_FDCAN_Init>
 800038a:	4603      	mov	r3, r0
 800038c:	2b00      	cmp	r3, #0
 800038e:	d001      	beq.n	8000394 <MX_FDCAN1_Init+0xbc>
  {
    Error_Handler();
 8000390:	f000 fa1c 	bl	80007cc <Error_Handler>
  }

}
 8000394:	bf00      	nop
 8000396:	bd80      	pop	{r7, pc}
 8000398:	24000034 	.word	0x24000034
 800039c:	4000a000 	.word	0x4000a000

080003a0 <HAL_FDCAN_MspInit>:

void HAL_FDCAN_MspInit(FDCAN_HandleTypeDef* fdcanHandle)
{
 80003a0:	b580      	push	{r7, lr}
 80003a2:	b08a      	sub	sp, #40	; 0x28
 80003a4:	af00      	add	r7, sp, #0
 80003a6:	6078      	str	r0, [r7, #4]

  GPIO_InitTypeDef GPIO_InitStruct = {0};
 80003a8:	f107 0314 	add.w	r3, r7, #20
 80003ac:	2200      	movs	r2, #0
 80003ae:	601a      	str	r2, [r3, #0]
 80003b0:	605a      	str	r2, [r3, #4]
 80003b2:	609a      	str	r2, [r3, #8]
 80003b4:	60da      	str	r2, [r3, #12]
 80003b6:	611a      	str	r2, [r3, #16]
  if(fdcanHandle->Instance==FDCAN1)
 80003b8:	687b      	ldr	r3, [r7, #4]
 80003ba:	681b      	ldr	r3, [r3, #0]
 80003bc:	4a1e      	ldr	r2, [pc, #120]	; (8000438 <HAL_FDCAN_MspInit+0x98>)
 80003be:	4293      	cmp	r3, r2
 80003c0:	d136      	bne.n	8000430 <HAL_FDCAN_MspInit+0x90>
  {
  /* USER CODE BEGIN FDCAN1_MspInit 0 */

  /* USER CODE END FDCAN1_MspInit 0 */
    /* FDCAN1 clock enable */
    __HAL_RCC_FDCAN_CLK_ENABLE();
 80003c2:	4b1e      	ldr	r3, [pc, #120]	; (800043c <HAL_FDCAN_MspInit+0x9c>)
 80003c4:	f8d3 30ec 	ldr.w	r3, [r3, #236]	; 0xec
 80003c8:	4a1c      	ldr	r2, [pc, #112]	; (800043c <HAL_FDCAN_MspInit+0x9c>)
 80003ca:	f443 7380 	orr.w	r3, r3, #256	; 0x100
 80003ce:	f8c2 30ec 	str.w	r3, [r2, #236]	; 0xec
 80003d2:	4b1a      	ldr	r3, [pc, #104]	; (800043c <HAL_FDCAN_MspInit+0x9c>)
 80003d4:	f8d3 30ec 	ldr.w	r3, [r3, #236]	; 0xec
 80003d8:	f403 7380 	and.w	r3, r3, #256	; 0x100
 80003dc:	613b      	str	r3, [r7, #16]
 80003de:	693b      	ldr	r3, [r7, #16]

    __HAL_RCC_GPIOA_CLK_ENABLE();
 80003e0:	4b16      	ldr	r3, [pc, #88]	; (800043c <HAL_FDCAN_MspInit+0x9c>)
 80003e2:	f8d3 30e0 	ldr.w	r3, [r3, #224]	; 0xe0
 80003e6:	4a15      	ldr	r2, [pc, #84]	; (800043c <HAL_FDCAN_MspInit+0x9c>)
 80003e8:	f043 0301 	orr.w	r3, r3, #1
 80003ec:	f8c2 30e0 	str.w	r3, [r2, #224]	; 0xe0
 80003f0:	4b12      	ldr	r3, [pc, #72]	; (800043c <HAL_FDCAN_MspInit+0x9c>)
 80003f2:	f8d3 30e0 	ldr.w	r3, [r3, #224]	; 0xe0
 80003f6:	f003 0301 	and.w	r3, r3, #1
 80003fa:	60fb      	str	r3, [r7, #12]
 80003fc:	68fb      	ldr	r3, [r7, #12]
    /**FDCAN1 GPIO Configuration
    PA11     ------> FDCAN1_RX
    PA12     ------> FDCAN1_TX
    */
    GPIO_InitStruct.Pin = GPIO_PIN_11|GPIO_PIN_12;
 80003fe:	f44f 53c0 	mov.w	r3, #6144	; 0x1800
 8000402:	617b      	str	r3, [r7, #20]
    GPIO_InitStruct.Mode = GPIO_MODE_AF_PP;
 8000404:	2302      	movs	r3, #2
 8000406:	61bb      	str	r3, [r7, #24]
    GPIO_InitStruct.Pull = GPIO_NOPULL;
 8000408:	2300      	movs	r3, #0
 800040a:	61fb      	str	r3, [r7, #28]
    GPIO_InitStruct.Speed = GPIO_SPEED_FREQ_LOW;
 800040c:	2300      	movs	r3, #0
 800040e:	623b      	str	r3, [r7, #32]
    GPIO_InitStruct.Alternate = GPIO_AF9_FDCAN1;
 8000410:	2309      	movs	r3, #9
 8000412:	627b      	str	r3, [r7, #36]	; 0x24
    HAL_GPIO_Init(GPIOA, &GPIO_InitStruct);
 8000414:	f107 0314 	add.w	r3, r7, #20
 8000418:	4619      	mov	r1, r3
 800041a:	4809      	ldr	r0, [pc, #36]	; (8000440 <HAL_FDCAN_MspInit+0xa0>)
 800041c:	f001 feb4 	bl	8002188 <HAL_GPIO_Init>

    /* FDCAN1 interrupt Init */
    HAL_NVIC_SetPriority(FDCAN1_IT0_IRQn, 0, 0);
 8000420:	2200      	movs	r2, #0
 8000422:	2100      	movs	r1, #0
 8000424:	2013      	movs	r0, #19
 8000426:	f000 fc78 	bl	8000d1a <HAL_NVIC_SetPriority>
    HAL_NVIC_EnableIRQ(FDCAN1_IT0_IRQn);
 800042a:	2013      	movs	r0, #19
 800042c:	f000 fc8f 	bl	8000d4e <HAL_NVIC_EnableIRQ>
  /* USER CODE BEGIN FDCAN1_MspInit 1 */

  /* USER CODE END FDCAN1_MspInit 1 */
  }
}
 8000430:	bf00      	nop
 8000432:	3728      	adds	r7, #40	; 0x28
 8000434:	46bd      	mov	sp, r7
 8000436:	bd80      	pop	{r7, pc}
 8000438:	4000a000 	.word	0x4000a000
 800043c:	58024400 	.word	0x58024400
 8000440:	58020000 	.word	0x58020000

08000444 <MX_GPIO_Init>:
/** Configure pins
     PH0-OSC_IN (PH0)   ------> RCC_OSC_IN
     PH1-OSC_OUT (PH1)   ------> RCC_OSC_OUT
*/
void MX_GPIO_Init(void)
{
 8000444:	b480      	push	{r7}
 8000446:	b083      	sub	sp, #12
 8000448:	af00      	add	r7, sp, #0

  /* GPIO Ports Clock Enable */
  __HAL_RCC_GPIOH_CLK_ENABLE();
 800044a:	4b12      	ldr	r3, [pc, #72]	; (8000494 <MX_GPIO_Init+0x50>)
 800044c:	f8d3 30e0 	ldr.w	r3, [r3, #224]	; 0xe0
 8000450:	4a10      	ldr	r2, [pc, #64]	; (8000494 <MX_GPIO_Init+0x50>)
 8000452:	f043 0380 	orr.w	r3, r3, #128	; 0x80
 8000456:	f8c2 30e0 	str.w	r3, [r2, #224]	; 0xe0
 800045a:	4b0e      	ldr	r3, [pc, #56]	; (8000494 <MX_GPIO_Init+0x50>)
 800045c:	f8d3 30e0 	ldr.w	r3, [r3, #224]	; 0xe0
 8000460:	f003 0380 	and.w	r3, r3, #128	; 0x80
 8000464:	607b      	str	r3, [r7, #4]
 8000466:	687b      	ldr	r3, [r7, #4]
  __HAL_RCC_GPIOA_CLK_ENABLE();
 8000468:	4b0a      	ldr	r3, [pc, #40]	; (8000494 <MX_GPIO_Init+0x50>)
 800046a:	f8d3 30e0 	ldr.w	r3, [r3, #224]	; 0xe0
 800046e:	4a09      	ldr	r2, [pc, #36]	; (8000494 <MX_GPIO_Init+0x50>)
 8000470:	f043 0301 	orr.w	r3, r3, #1
 8000474:	f8c2 30e0 	str.w	r3, [r2, #224]	; 0xe0
 8000478:	4b06      	ldr	r3, [pc, #24]	; (8000494 <MX_GPIO_Init+0x50>)
 800047a:	f8d3 30e0 	ldr.w	r3, [r3, #224]	; 0xe0
 800047e:	f003 0301 	and.w	r3, r3, #1
 8000482:	603b      	str	r3, [r7, #0]
 8000484:	683b      	ldr	r3, [r7, #0]

}
 8000486:	bf00      	nop
 8000488:	370c      	adds	r7, #12
 800048a:	46bd      	mov	sp, r7
 800048c:	f85d 7b04 	ldr.w	r7, [sp], #4
 8000490:	4770      	bx	lr
 8000492:	bf00      	nop
 8000494:	58024400 	.word	0x58024400

08000498 <CAN_MESSAGE_TX>:
/* USER CODE END PFP */

/* Private user code ---------------------------------------------------------*/
/* USER CODE BEGIN 0 */
void CAN_MESSAGE_TX()
{
 8000498:	b580      	push	{r7, lr}
 800049a:	af00      	add	r7, sp, #0
			TxHeader.Identifier = 0x39;//要发送的CANID报文
 800049c:	4b16      	ldr	r3, [pc, #88]	; (80004f8 <CAN_MESSAGE_TX+0x60>)
 800049e:	2239      	movs	r2, #57	; 0x39
 80004a0:	601a      	str	r2, [r3, #0]
			TxHeader.IdType = FDCAN_STANDARD_ID; //ID类型
 80004a2:	4b15      	ldr	r3, [pc, #84]	; (80004f8 <CAN_MESSAGE_TX+0x60>)
 80004a4:	2200      	movs	r2, #0
 80004a6:	605a      	str	r2, [r3, #4]
			TxHeader.TxFrameType = FDCAN_DATA_FRAME;
 80004a8:	4b13      	ldr	r3, [pc, #76]	; (80004f8 <CAN_MESSAGE_TX+0x60>)
 80004aa:	2200      	movs	r2, #0
 80004ac:	609a      	str	r2, [r3, #8]
			TxHeader.DataLength = FDCAN_DLC_BYTES_8;
 80004ae:	4b12      	ldr	r3, [pc, #72]	; (80004f8 <CAN_MESSAGE_TX+0x60>)
 80004b0:	f44f 2200 	mov.w	r2, #524288	; 0x80000
 80004b4:	60da      	str	r2, [r3, #12]
			TxHeader.ErrorStateIndicator = FDCAN_ESI_ACTIVE;
 80004b6:	4b10      	ldr	r3, [pc, #64]	; (80004f8 <CAN_MESSAGE_TX+0x60>)
 80004b8:	2200      	movs	r2, #0
 80004ba:	611a      	str	r2, [r3, #16]
			TxHeader.BitRateSwitch = FDCAN_BRS_OFF;
 80004bc:	4b0e      	ldr	r3, [pc, #56]	; (80004f8 <CAN_MESSAGE_TX+0x60>)
 80004be:	2200      	movs	r2, #0
 80004c0:	615a      	str	r2, [r3, #20]
			TxHeader.FDFormat = FDCAN_CLASSIC_CAN;//传统CAN模式
 80004c2:	4b0d      	ldr	r3, [pc, #52]	; (80004f8 <CAN_MESSAGE_TX+0x60>)
 80004c4:	2200      	movs	r2, #0
 80004c6:	619a      	str	r2, [r3, #24]
			TxHeader.TxEventFifoControl = FDCAN_NO_TX_EVENTS;
 80004c8:	4b0b      	ldr	r3, [pc, #44]	; (80004f8 <CAN_MESSAGE_TX+0x60>)
 80004ca:	2200      	movs	r2, #0
 80004cc:	61da      	str	r2, [r3, #28]
			TxHeader.MessageMarker = 0;
 80004ce:	4b0a      	ldr	r3, [pc, #40]	; (80004f8 <CAN_MESSAGE_TX+0x60>)
 80004d0:	2200      	movs	r2, #0
 80004d2:	621a      	str	r2, [r3, #32]

			++TxData[7];
 80004d4:	4b09      	ldr	r3, [pc, #36]	; (80004fc <CAN_MESSAGE_TX+0x64>)
 80004d6:	79db      	ldrb	r3, [r3, #7]
 80004d8:	3301      	adds	r3, #1
 80004da:	b2da      	uxtb	r2, r3
 80004dc:	4b07      	ldr	r3, [pc, #28]	; (80004fc <CAN_MESSAGE_TX+0x64>)
 80004de:	71da      	strb	r2, [r3, #7]

			if(HAL_FDCAN_AddMessageToTxFifoQ(&hfdcan1, &TxHeader, TxData) != HAL_OK) {
 80004e0:	4a06      	ldr	r2, [pc, #24]	; (80004fc <CAN_MESSAGE_TX+0x64>)
 80004e2:	4905      	ldr	r1, [pc, #20]	; (80004f8 <CAN_MESSAGE_TX+0x60>)
 80004e4:	4806      	ldr	r0, [pc, #24]	; (8000500 <CAN_MESSAGE_TX+0x68>)
 80004e6:	f000 fefd 	bl	80012e4 <HAL_FDCAN_AddMessageToTxFifoQ>
 80004ea:	4603      	mov	r3, r0
 80004ec:	2b00      	cmp	r3, #0
 80004ee:	d001      	beq.n	80004f4 <CAN_MESSAGE_TX+0x5c>
				Error_Handler();
 80004f0:	f000 f96c 	bl	80007cc <Error_Handler>
			}

}
 80004f4:	bf00      	nop
 80004f6:	bd80      	pop	{r7, pc}
 80004f8:	240000e0 	.word	0x240000e0
 80004fc:	2400002c 	.word	0x2400002c
 8000500:	24000034 	.word	0x24000034

08000504 <CAN_MESSAGE_RX>:

void CAN_MESSAGE_RX()
{
 8000504:	b580      	push	{r7, lr}
 8000506:	af00      	add	r7, sp, #0
	if(NOtification_flag==1)
 8000508:	4b07      	ldr	r3, [pc, #28]	; (8000528 <CAN_MESSAGE_RX+0x24>)
 800050a:	681b      	ldr	r3, [r3, #0]
 800050c:	2b01      	cmp	r3, #1
 800050e:	d108      	bne.n	8000522 <CAN_MESSAGE_RX+0x1e>
	{
	HAL_FDCAN_GetRxMessage(&hfdcan1,FDCAN_RX_FIFO0,&RxHeader,RxData);
 8000510:	4b06      	ldr	r3, [pc, #24]	; (800052c <CAN_MESSAGE_RX+0x28>)
 8000512:	4a07      	ldr	r2, [pc, #28]	; (8000530 <CAN_MESSAGE_RX+0x2c>)
 8000514:	2140      	movs	r1, #64	; 0x40
 8000516:	4807      	ldr	r0, [pc, #28]	; (8000534 <CAN_MESSAGE_RX+0x30>)
 8000518:	f000 ff40 	bl	800139c <HAL_FDCAN_GetRxMessage>
	NOtification_flag=0;
 800051c:	4b02      	ldr	r3, [pc, #8]	; (8000528 <CAN_MESSAGE_RX+0x24>)
 800051e:	2200      	movs	r2, #0
 8000520:	601a      	str	r2, [r3, #0]
	}
}
 8000522:	bf00      	nop
 8000524:	bd80      	pop	{r7, pc}
 8000526:	bf00      	nop
 8000528:	240000d4 	.word	0x240000d4
 800052c:	240000d8 	.word	0x240000d8
 8000530:	24000104 	.word	0x24000104
 8000534:	24000034 	.word	0x24000034

08000538 <main>:
/**
  * @brief  The application entry point.
  * @retval int
  */
int main(void)
{
 8000538:	b580      	push	{r7, lr}
 800053a:	af00      	add	r7, sp, #0
  /* USER CODE END 1 */

  /* MCU Configuration--------------------------------------------------------*/

  /* Reset of all peripherals, Initializes the Flash interface and the Systick. */
  HAL_Init();
 800053c:	f000 fa50 	bl	80009e0 <HAL_Init>
  /* USER CODE BEGIN Init */

  /* USER CODE END Init */

  /* Configure the system clock */
  SystemClock_Config();
 8000540:	f000 f810 	bl	8000564 <SystemClock_Config>
  /* USER CODE BEGIN SysInit */

  /* USER CODE END SysInit */

  /* Initialize all configured peripherals */
  MX_GPIO_Init();
 8000544:	f7ff ff7e 	bl	8000444 <MX_GPIO_Init>
  MX_FDCAN1_Init();
 8000548:	f7ff fec6 	bl	80002d8 <MX_FDCAN1_Init>
  /* USER CODE BEGIN 2 */
  FDCAN1_Config();//初始化FDCAN1配置
 800054c:	f000 f8e6 	bl	800071c <FDCAN1_Config>
  while (1)
  {
    /* USER CODE END WHILE */

    /* USER CODE BEGIN 3 */
	  CAN_MESSAGE_TX();
 8000550:	f7ff ffa2 	bl	8000498 <CAN_MESSAGE_TX>
	  HAL_Delay(1000);
 8000554:	f44f 707a 	mov.w	r0, #1000	; 0x3e8
 8000558:	f000 fad4 	bl	8000b04 <HAL_Delay>
	  CAN_MESSAGE_RX();
 800055c:	f7ff ffd2 	bl	8000504 <CAN_MESSAGE_RX>
	  CAN_MESSAGE_TX();
 8000560:	e7f6      	b.n	8000550 <main+0x18>
	...

08000564 <SystemClock_Config>:
/**
  * @brief System Clock Configuration
  * @retval None
  */
void SystemClock_Config(void)
{
 8000564:	b580      	push	{r7, lr}
 8000566:	b0cc      	sub	sp, #304	; 0x130
 8000568:	af00      	add	r7, sp, #0
  RCC_OscInitTypeDef RCC_OscInitStruct = {0};
 800056a:	f107 03e4 	add.w	r3, r7, #228	; 0xe4
 800056e:	224c      	movs	r2, #76	; 0x4c
 8000570:	2100      	movs	r1, #0
 8000572:	4618      	mov	r0, r3
 8000574:	f003 fff8 	bl	8004568 <memset>
  RCC_ClkInitTypeDef RCC_ClkInitStruct = {0};
 8000578:	f107 03c4 	add.w	r3, r7, #196	; 0xc4
 800057c:	2220      	movs	r2, #32
 800057e:	2100      	movs	r1, #0
 8000580:	4618      	mov	r0, r3
 8000582:	f003 fff1 	bl	8004568 <memset>
  RCC_PeriphCLKInitTypeDef PeriphClkInitStruct = {0};
 8000586:	f107 0308 	add.w	r3, r7, #8
 800058a:	4618      	mov	r0, r3
 800058c:	23bc      	movs	r3, #188	; 0xbc
 800058e:	461a      	mov	r2, r3
 8000590:	2100      	movs	r1, #0
 8000592:	f003 ffe9 	bl	8004568 <memset>

  /** Supply configuration update enable
  */
  HAL_PWREx_ConfigSupply(PWR_LDO_SUPPLY);
 8000596:	2002      	movs	r0, #2
 8000598:	f001 ffa6 	bl	80024e8 <HAL_PWREx_ConfigSupply>
  /** Configure the main internal regulator output voltage
  */
  __HAL_PWR_VOLTAGESCALING_CONFIG(PWR_REGULATOR_VOLTAGE_SCALE3);
 800059c:	1d3b      	adds	r3, r7, #4
 800059e:	2200      	movs	r2, #0
 80005a0:	601a      	str	r2, [r3, #0]
 80005a2:	4b5b      	ldr	r3, [pc, #364]	; (8000710 <SystemClock_Config+0x1ac>)
 80005a4:	6adb      	ldr	r3, [r3, #44]	; 0x2c
 80005a6:	4a5a      	ldr	r2, [pc, #360]	; (8000710 <SystemClock_Config+0x1ac>)
 80005a8:	f023 0301 	bic.w	r3, r3, #1
 80005ac:	62d3      	str	r3, [r2, #44]	; 0x2c
 80005ae:	4b58      	ldr	r3, [pc, #352]	; (8000710 <SystemClock_Config+0x1ac>)
 80005b0:	6adb      	ldr	r3, [r3, #44]	; 0x2c
 80005b2:	f003 0201 	and.w	r2, r3, #1
 80005b6:	1d3b      	adds	r3, r7, #4
 80005b8:	601a      	str	r2, [r3, #0]
 80005ba:	4b56      	ldr	r3, [pc, #344]	; (8000714 <SystemClock_Config+0x1b0>)
 80005bc:	699b      	ldr	r3, [r3, #24]
 80005be:	f423 4340 	bic.w	r3, r3, #49152	; 0xc000
 80005c2:	4a54      	ldr	r2, [pc, #336]	; (8000714 <SystemClock_Config+0x1b0>)
 80005c4:	f443 4380 	orr.w	r3, r3, #16384	; 0x4000
 80005c8:	6193      	str	r3, [r2, #24]
 80005ca:	4b52      	ldr	r3, [pc, #328]	; (8000714 <SystemClock_Config+0x1b0>)
 80005cc:	699b      	ldr	r3, [r3, #24]
 80005ce:	f403 4240 	and.w	r2, r3, #49152	; 0xc000
 80005d2:	1d3b      	adds	r3, r7, #4
 80005d4:	601a      	str	r2, [r3, #0]
 80005d6:	1d3b      	adds	r3, r7, #4
 80005d8:	681b      	ldr	r3, [r3, #0]

  while(!__HAL_PWR_GET_FLAG(PWR_FLAG_VOSRDY)) {}
 80005da:	bf00      	nop
 80005dc:	4b4d      	ldr	r3, [pc, #308]	; (8000714 <SystemClock_Config+0x1b0>)
 80005de:	699b      	ldr	r3, [r3, #24]
 80005e0:	f403 5300 	and.w	r3, r3, #8192	; 0x2000
 80005e4:	f5b3 5f00 	cmp.w	r3, #8192	; 0x2000
 80005e8:	d1f8      	bne.n	80005dc <SystemClock_Config+0x78>
  /** Macro to configure the PLL clock source
  */
  __HAL_RCC_PLL_PLLSOURCE_CONFIG(RCC_PLLSOURCE_HSE);
 80005ea:	4b4b      	ldr	r3, [pc, #300]	; (8000718 <SystemClock_Config+0x1b4>)
 80005ec:	6a9b      	ldr	r3, [r3, #40]	; 0x28
 80005ee:	f023 0303 	bic.w	r3, r3, #3
 80005f2:	4a49      	ldr	r2, [pc, #292]	; (8000718 <SystemClock_Config+0x1b4>)
 80005f4:	f043 0302 	orr.w	r3, r3, #2
 80005f8:	6293      	str	r3, [r2, #40]	; 0x28
  /** Initializes the RCC Oscillators according to the specified parameters
  * in the RCC_OscInitTypeDef structure.
  */
  RCC_OscInitStruct.OscillatorType = RCC_OSCILLATORTYPE_HSE;
 80005fa:	2301      	movs	r3, #1
 80005fc:	f8c7 30e4 	str.w	r3, [r7, #228]	; 0xe4
  RCC_OscInitStruct.HSEState = RCC_HSE_ON;
 8000600:	f44f 3380 	mov.w	r3, #65536	; 0x10000
 8000604:	f8c7 30e8 	str.w	r3, [r7, #232]	; 0xe8
  RCC_OscInitStruct.PLL.PLLState = RCC_PLL_ON;
 8000608:	2302      	movs	r3, #2
 800060a:	f8c7 3108 	str.w	r3, [r7, #264]	; 0x108
  RCC_OscInitStruct.PLL.PLLSource = RCC_PLLSOURCE_HSE;
 800060e:	2302      	movs	r3, #2
 8000610:	f8c7 310c 	str.w	r3, [r7, #268]	; 0x10c
  RCC_OscInitStruct.PLL.PLLM = 2;
 8000614:	2302      	movs	r3, #2
 8000616:	f8c7 3110 	str.w	r3, [r7, #272]	; 0x110
  RCC_OscInitStruct.PLL.PLLN = 12;
 800061a:	230c      	movs	r3, #12
 800061c:	f8c7 3114 	str.w	r3, [r7, #276]	; 0x114
  RCC_OscInitStruct.PLL.PLLP = 2;
 8000620:	2302      	movs	r3, #2
 8000622:	f8c7 3118 	str.w	r3, [r7, #280]	; 0x118
  RCC_OscInitStruct.PLL.PLLQ = 2;
 8000626:	2302      	movs	r3, #2
 8000628:	f8c7 311c 	str.w	r3, [r7, #284]	; 0x11c
  RCC_OscInitStruct.PLL.PLLR = 2;
 800062c:	2302      	movs	r3, #2
 800062e:	f8c7 3120 	str.w	r3, [r7, #288]	; 0x120
  RCC_OscInitStruct.PLL.PLLRGE = RCC_PLL1VCIRANGE_3;
 8000632:	230c      	movs	r3, #12
 8000634:	f8c7 3124 	str.w	r3, [r7, #292]	; 0x124
  RCC_OscInitStruct.PLL.PLLVCOSEL = RCC_PLL1VCOMEDIUM;
 8000638:	2302      	movs	r3, #2
 800063a:	f8c7 3128 	str.w	r3, [r7, #296]	; 0x128
  RCC_OscInitStruct.PLL.PLLFRACN = 0;
 800063e:	2300      	movs	r3, #0
 8000640:	f8c7 312c 	str.w	r3, [r7, #300]	; 0x12c
  if (HAL_RCC_OscConfig(&RCC_OscInitStruct) != HAL_OK)
 8000644:	f107 03e4 	add.w	r3, r7, #228	; 0xe4
 8000648:	4618      	mov	r0, r3
 800064a:	f001 ff87 	bl	800255c <HAL_RCC_OscConfig>
 800064e:	4603      	mov	r3, r0
 8000650:	2b00      	cmp	r3, #0
 8000652:	d001      	beq.n	8000658 <SystemClock_Config+0xf4>
  {
    Error_Handler();
 8000654:	f000 f8ba 	bl	80007cc <Error_Handler>
  }
  /** Initializes the CPU, AHB and APB buses clocks
  */
  RCC_ClkInitStruct.ClockType = RCC_CLOCKTYPE_HCLK|RCC_CLOCKTYPE_SYSCLK
 8000658:	233f      	movs	r3, #63	; 0x3f
 800065a:	f8c7 30c4 	str.w	r3, [r7, #196]	; 0xc4
                              |RCC_CLOCKTYPE_PCLK1|RCC_CLOCKTYPE_PCLK2
                              |RCC_CLOCKTYPE_D3PCLK1|RCC_CLOCKTYPE_D1PCLK1;
  RCC_ClkInitStruct.SYSCLKSource = RCC_SYSCLKSOURCE_PLLCLK;
 800065e:	2303      	movs	r3, #3
 8000660:	f8c7 30c8 	str.w	r3, [r7, #200]	; 0xc8
  RCC_ClkInitStruct.SYSCLKDivider = RCC_SYSCLK_DIV1;
 8000664:	2300      	movs	r3, #0
 8000666:	f8c7 30cc 	str.w	r3, [r7, #204]	; 0xcc
  RCC_ClkInitStruct.AHBCLKDivider = RCC_HCLK_DIV1;
 800066a:	2300      	movs	r3, #0
 800066c:	f8c7 30d0 	str.w	r3, [r7, #208]	; 0xd0
  RCC_ClkInitStruct.APB3CLKDivider = RCC_APB3_DIV1;
 8000670:	2300      	movs	r3, #0
 8000672:	f8c7 30d4 	str.w	r3, [r7, #212]	; 0xd4
  RCC_ClkInitStruct.APB1CLKDivider = RCC_APB1_DIV1;
 8000676:	2300      	movs	r3, #0
 8000678:	f8c7 30d8 	str.w	r3, [r7, #216]	; 0xd8
  RCC_ClkInitStruct.APB2CLKDivider = RCC_APB2_DIV1;
 800067c:	2300      	movs	r3, #0
 800067e:	f8c7 30dc 	str.w	r3, [r7, #220]	; 0xdc
  RCC_ClkInitStruct.APB4CLKDivider = RCC_APB4_DIV1;
 8000682:	2300      	movs	r3, #0
 8000684:	f8c7 30e0 	str.w	r3, [r7, #224]	; 0xe0

  if (HAL_RCC_ClockConfig(&RCC_ClkInitStruct, FLASH_LATENCY_1) != HAL_OK)
 8000688:	f107 03c4 	add.w	r3, r7, #196	; 0xc4
 800068c:	2101      	movs	r1, #1
 800068e:	4618      	mov	r0, r3
 8000690:	f002 fb74 	bl	8002d7c <HAL_RCC_ClockConfig>
 8000694:	4603      	mov	r3, r0
 8000696:	2b00      	cmp	r3, #0
 8000698:	d001      	beq.n	800069e <SystemClock_Config+0x13a>
  {
    Error_Handler();
 800069a:	f000 f897 	bl	80007cc <Error_Handler>
  }
  PeriphClkInitStruct.PeriphClockSelection = RCC_PERIPHCLK_FDCAN;
 800069e:	f107 0308 	add.w	r3, r7, #8
 80006a2:	f44f 4200 	mov.w	r2, #32768	; 0x8000
 80006a6:	601a      	str	r2, [r3, #0]
  PeriphClkInitStruct.PLL2.PLL2M = 2;
 80006a8:	f107 0308 	add.w	r3, r7, #8
 80006ac:	2202      	movs	r2, #2
 80006ae:	605a      	str	r2, [r3, #4]
  PeriphClkInitStruct.PLL2.PLL2N = 32;
 80006b0:	f107 0308 	add.w	r3, r7, #8
 80006b4:	2220      	movs	r2, #32
 80006b6:	609a      	str	r2, [r3, #8]
  PeriphClkInitStruct.PLL2.PLL2P = 2;
 80006b8:	f107 0308 	add.w	r3, r7, #8
 80006bc:	2202      	movs	r2, #2
 80006be:	60da      	str	r2, [r3, #12]
  PeriphClkInitStruct.PLL2.PLL2Q = 5;
 80006c0:	f107 0308 	add.w	r3, r7, #8
 80006c4:	2205      	movs	r2, #5
 80006c6:	611a      	str	r2, [r3, #16]
  PeriphClkInitStruct.PLL2.PLL2R = 2;
 80006c8:	f107 0308 	add.w	r3, r7, #8
 80006cc:	2202      	movs	r2, #2
 80006ce:	615a      	str	r2, [r3, #20]
  PeriphClkInitStruct.PLL2.PLL2RGE = RCC_PLL2VCIRANGE_3;
 80006d0:	f107 0308 	add.w	r3, r7, #8
 80006d4:	22c0      	movs	r2, #192	; 0xc0
 80006d6:	619a      	str	r2, [r3, #24]
  PeriphClkInitStruct.PLL2.PLL2VCOSEL = RCC_PLL2VCOWIDE;
 80006d8:	f107 0308 	add.w	r3, r7, #8
 80006dc:	2200      	movs	r2, #0
 80006de:	61da      	str	r2, [r3, #28]
  PeriphClkInitStruct.PLL2.PLL2FRACN = 0;
 80006e0:	f107 0308 	add.w	r3, r7, #8
 80006e4:	2200      	movs	r2, #0
 80006e6:	621a      	str	r2, [r3, #32]
  PeriphClkInitStruct.FdcanClockSelection = RCC_FDCANCLKSOURCE_PLL2;
 80006e8:	f107 0308 	add.w	r3, r7, #8
 80006ec:	f04f 5200 	mov.w	r2, #536870912	; 0x20000000
 80006f0:	66da      	str	r2, [r3, #108]	; 0x6c
  if (HAL_RCCEx_PeriphCLKConfig(&PeriphClkInitStruct) != HAL_OK)
 80006f2:	f107 0308 	add.w	r3, r7, #8
 80006f6:	4618      	mov	r0, r3
 80006f8:	f002 fe70 	bl	80033dc <HAL_RCCEx_PeriphCLKConfig>
 80006fc:	4603      	mov	r3, r0
 80006fe:	2b00      	cmp	r3, #0
 8000700:	d001      	beq.n	8000706 <SystemClock_Config+0x1a2>
  {
    Error_Handler();
 8000702:	f000 f863 	bl	80007cc <Error_Handler>
  }
}
 8000706:	bf00      	nop
 8000708:	f507 7798 	add.w	r7, r7, #304	; 0x130
 800070c:	46bd      	mov	sp, r7
 800070e:	bd80      	pop	{r7, pc}
 8000710:	58000400 	.word	0x58000400
 8000714:	58024800 	.word	0x58024800
 8000718:	58024400 	.word	0x58024400

0800071c <FDCAN1_Config>:

/* USER CODE BEGIN 4 */
void FDCAN1_Config(void)
{
 800071c:	b580      	push	{r7, lr}
 800071e:	b08a      	sub	sp, #40	; 0x28
 8000720:	af02      	add	r7, sp, #8


  FDCAN_FilterTypeDef sFilterConfig;

  /* Configure Rx filter 接收设置，这里指定接收的CANID*/
  sFilterConfig.IdType = FDCAN_STANDARD_ID;
 8000722:	2300      	movs	r3, #0
 8000724:	603b      	str	r3, [r7, #0]
  sFilterConfig.FilterIndex = 0;
 8000726:	2300      	movs	r3, #0
 8000728:	607b      	str	r3, [r7, #4]
  sFilterConfig.FilterType = FDCAN_FILTER_MASK;
 800072a:	2302      	movs	r3, #2
 800072c:	60bb      	str	r3, [r7, #8]
  sFilterConfig.FilterConfig = FDCAN_FILTER_TO_RXFIFO0;
 800072e:	2301      	movs	r3, #1
 8000730:	60fb      	str	r3, [r7, #12]
  sFilterConfig.FilterID1 = 0x40;
 8000732:	2340      	movs	r3, #64	; 0x40
 8000734:	613b      	str	r3, [r7, #16]
  sFilterConfig.FilterID2 = 0xFF;
 8000736:	23ff      	movs	r3, #255	; 0xff
 8000738:	617b      	str	r3, [r7, #20]
  if (HAL_FDCAN_ConfigFilter(&hfdcan1, &sFilterConfig) != HAL_OK)
 800073a:	463b      	mov	r3, r7
 800073c:	4619      	mov	r1, r3
 800073e:	4815      	ldr	r0, [pc, #84]	; (8000794 <FDCAN1_Config+0x78>)
 8000740:	f000 fd02 	bl	8001148 <HAL_FDCAN_ConfigFilter>
 8000744:	4603      	mov	r3, r0
 8000746:	2b00      	cmp	r3, #0
 8000748:	d001      	beq.n	800074e <FDCAN1_Config+0x32>
  {
    Error_Handler();
 800074a:	f000 f83f 	bl	80007cc <Error_Handler>
  }
  /* Configure global filter:
     Filter all remote frames with STD and EXT ID
     Reject non matching frames with STD ID and EXT ID */
  if (HAL_FDCAN_ConfigGlobalFilter(&hfdcan1, FDCAN_REJECT, FDCAN_REJECT, FDCAN_FILTER_REMOTE, FDCAN_FILTER_REMOTE) != HAL_OK)
 800074e:	2300      	movs	r3, #0
 8000750:	9300      	str	r3, [sp, #0]
 8000752:	2300      	movs	r3, #0
 8000754:	2202      	movs	r2, #2
 8000756:	2102      	movs	r1, #2
 8000758:	480e      	ldr	r0, [pc, #56]	; (8000794 <FDCAN1_Config+0x78>)
 800075a:	f000 fd6b 	bl	8001234 <HAL_FDCAN_ConfigGlobalFilter>
 800075e:	4603      	mov	r3, r0
 8000760:	2b00      	cmp	r3, #0
 8000762:	d001      	beq.n	8000768 <FDCAN1_Config+0x4c>
  {
    Error_Handler();
 8000764:	f000 f832 	bl	80007cc <Error_Handler>
  }

  /* Start the FDCAN module */
  if (HAL_FDCAN_Start(&hfdcan1) != HAL_OK)
 8000768:	480a      	ldr	r0, [pc, #40]	; (8000794 <FDCAN1_Config+0x78>)
 800076a:	f000 fd90 	bl	800128e <HAL_FDCAN_Start>
 800076e:	4603      	mov	r3, r0
 8000770:	2b00      	cmp	r3, #0
 8000772:	d001      	beq.n	8000778 <FDCAN1_Config+0x5c>
  {
    Error_Handler();
 8000774:	f000 f82a 	bl	80007cc <Error_Handler>
  }

  if (HAL_FDCAN_ActivateNotification(&hfdcan1, FDCAN_IT_RX_FIFO0_NEW_MESSAGE, 0) != HAL_OK)
 8000778:	2200      	movs	r2, #0
 800077a:	2101      	movs	r1, #1
 800077c:	4805      	ldr	r0, [pc, #20]	; (8000794 <FDCAN1_Config+0x78>)
 800077e:	f000 ff7b 	bl	8001678 <HAL_FDCAN_ActivateNotification>
 8000782:	4603      	mov	r3, r0
 8000784:	2b00      	cmp	r3, #0
 8000786:	d001      	beq.n	800078c <FDCAN1_Config+0x70>
  {
    Error_Handler();
 8000788:	f000 f820 	bl	80007cc <Error_Handler>
  }
}
 800078c:	bf00      	nop
 800078e:	3720      	adds	r7, #32
 8000790:	46bd      	mov	sp, r7
 8000792:	bd80      	pop	{r7, pc}
 8000794:	24000034 	.word	0x24000034

08000798 <HAL_FDCAN_RxFifo0Callback>:


//CAN接收中断服务函数
void HAL_FDCAN_RxFifo0Callback(FDCAN_HandleTypeDef *hfdcan, uint32_t RxFifo0ITs)
{
 8000798:	b580      	push	{r7, lr}
 800079a:	b082      	sub	sp, #8
 800079c:	af00      	add	r7, sp, #0
 800079e:	6078      	str	r0, [r7, #4]
 80007a0:	6039      	str	r1, [r7, #0]
  if((RxFifo0ITs & FDCAN_IT_RX_FIFO0_NEW_MESSAGE) != RESET)
 80007a2:	683b      	ldr	r3, [r7, #0]
 80007a4:	f003 0301 	and.w	r3, r3, #1
 80007a8:	2b00      	cmp	r3, #0
 80007aa:	d007      	beq.n	80007bc <HAL_FDCAN_RxFifo0Callback+0x24>
  {
	  NOtification_flag =1;
 80007ac:	4b05      	ldr	r3, [pc, #20]	; (80007c4 <HAL_FDCAN_RxFifo0Callback+0x2c>)
 80007ae:	2201      	movs	r2, #1
 80007b0:	601a      	str	r2, [r3, #0]
	  HAL_FDCAN_ActivateNotification(&hfdcan1,FDCAN_IT_RX_FIFO0_NEW_MESSAGE,0);
 80007b2:	2200      	movs	r2, #0
 80007b4:	2101      	movs	r1, #1
 80007b6:	4804      	ldr	r0, [pc, #16]	; (80007c8 <HAL_FDCAN_RxFifo0Callback+0x30>)
 80007b8:	f000 ff5e 	bl	8001678 <HAL_FDCAN_ActivateNotification>
  }

}
 80007bc:	bf00      	nop
 80007be:	3708      	adds	r7, #8
 80007c0:	46bd      	mov	sp, r7
 80007c2:	bd80      	pop	{r7, pc}
 80007c4:	240000d4 	.word	0x240000d4
 80007c8:	24000034 	.word	0x24000034

080007cc <Error_Handler>:
/**
  * @brief  This function is executed in case of error occurrence.
  * @retval None
  */
void Error_Handler(void)
{
 80007cc:	b480      	push	{r7}
 80007ce:	af00      	add	r7, sp, #0
  \details Disables IRQ interrupts by setting the I-bit in the CPSR.
           Can only be executed in Privileged modes.
 */
__STATIC_FORCEINLINE void __disable_irq(void)
{
  __ASM volatile ("cpsid i" : : : "memory");
 80007d0:	b672      	cpsid	i
}
 80007d2:	bf00      	nop
  /* USER CODE BEGIN Error_Handler_Debug */
  /* User can add his own implementation to report the HAL error return state */
  __disable_irq();
  while (1)
 80007d4:	e7fe      	b.n	80007d4 <Error_Handler+0x8>
	...

080007d8 <HAL_MspInit>:
/* USER CODE END 0 */
/**
  * Initializes the Global MSP.
  */
void HAL_MspInit(void)
{
 80007d8:	b480      	push	{r7}
 80007da:	b083      	sub	sp, #12
 80007dc:	af00      	add	r7, sp, #0
  /* USER CODE BEGIN MspInit 0 */

  /* USER CODE END MspInit 0 */

  __HAL_RCC_SYSCFG_CLK_ENABLE();
 80007de:	4b0a      	ldr	r3, [pc, #40]	; (8000808 <HAL_MspInit+0x30>)
 80007e0:	f8d3 30f4 	ldr.w	r3, [r3, #244]	; 0xf4
 80007e4:	4a08      	ldr	r2, [pc, #32]	; (8000808 <HAL_MspInit+0x30>)
 80007e6:	f043 0302 	orr.w	r3, r3, #2
 80007ea:	f8c2 30f4 	str.w	r3, [r2, #244]	; 0xf4
 80007ee:	4b06      	ldr	r3, [pc, #24]	; (8000808 <HAL_MspInit+0x30>)
 80007f0:	f8d3 30f4 	ldr.w	r3, [r3, #244]	; 0xf4
 80007f4:	f003 0302 	and.w	r3, r3, #2
 80007f8:	607b      	str	r3, [r7, #4]
 80007fa:	687b      	ldr	r3, [r7, #4]
  /* System interrupt init*/

  /* USER CODE BEGIN MspInit 1 */

  /* USER CODE END MspInit 1 */
}
 80007fc:	bf00      	nop
 80007fe:	370c      	adds	r7, #12
 8000800:	46bd      	mov	sp, r7
 8000802:	f85d 7b04 	ldr.w	r7, [sp], #4
 8000806:	4770      	bx	lr
 8000808:	58024400 	.word	0x58024400

0800080c <NMI_Handler>:
/******************************************************************************/
/**
  * @brief This function handles Non maskable interrupt.
  */
void NMI_Handler(void)
{
 800080c:	b480      	push	{r7}
 800080e:	af00      	add	r7, sp, #0
  /* USER CODE BEGIN NonMaskableInt_IRQn 0 */

  /* USER CODE END NonMaskableInt_IRQn 0 */
  /* USER CODE BEGIN NonMaskableInt_IRQn 1 */
  while (1)
 8000810:	e7fe      	b.n	8000810 <NMI_Handler+0x4>

08000812 <HardFault_Handler>:

/**
  * @brief This function handles Hard fault interrupt.
  */
void HardFault_Handler(void)
{
 8000812:	b480      	push	{r7}
 8000814:	af00      	add	r7, sp, #0
  /* USER CODE BEGIN HardFault_IRQn 0 */

  /* USER CODE END HardFault_IRQn 0 */
  while (1)
 8000816:	e7fe      	b.n	8000816 <HardFault_Handler+0x4>

08000818 <MemManage_Handler>:

/**
  * @brief This function handles Memory management fault.
  */
void MemManage_Handler(void)
{
 8000818:	b480      	push	{r7}
 800081a:	af00      	add	r7, sp, #0
  /* USER CODE BEGIN MemoryManagement_IRQn 0 */

  /* USER CODE END MemoryManagement_IRQn 0 */
  while (1)
 800081c:	e7fe      	b.n	800081c <MemManage_Handler+0x4>

0800081e <BusFault_Handler>:

/**
  * @brief This function handles Pre-fetch fault, memory access fault.
  */
void BusFault_Handler(void)
{
 800081e:	b480      	push	{r7}
 8000820:	af00      	add	r7, sp, #0
  /* USER CODE BEGIN BusFault_IRQn 0 */

  /* USER CODE END BusFault_IRQn 0 */
  while (1)
 8000822:	e7fe      	b.n	8000822 <BusFault_Handler+0x4>

08000824 <UsageFault_Handler>:

/**
  * @brief This function handles Undefined instruction or illegal state.
  */
void UsageFault_Handler(void)
{
 8000824:	b480      	push	{r7}
 8000826:	af00      	add	r7, sp, #0
  /* USER CODE BEGIN UsageFault_IRQn 0 */

  /* USER CODE END UsageFault_IRQn 0 */
  while (1)
 8000828:	e7fe      	b.n	8000828 <UsageFault_Handler+0x4>

0800082a <SVC_Handler>:

/**
  * @brief This function handles System service call via SWI instruction.
  */
void SVC_Handler(void)
{
 800082a:	b480      	push	{r7}
 800082c:	af00      	add	r7, sp, #0

  /* USER CODE END SVCall_IRQn 0 */
  /* USER CODE BEGIN SVCall_IRQn 1 */

  /* USER CODE END SVCall_IRQn 1 */
}
 800082e:	bf00      	nop
 8000830:	46bd      	mov	sp, r7
 8000832:	f85d 7b04 	ldr.w	r7, [sp], #4
 8000836:	4770      	bx	lr

08000838 <DebugMon_Handler>:

/**
  * @brief This function handles Debug monitor.
  */
void DebugMon_Handler(void)
{
 8000838:	b480      	push	{r7}
 800083a:	af00      	add	r7, sp, #0

  /* USER CODE END DebugMonitor_IRQn 0 */
  /* USER CODE BEGIN DebugMonitor_IRQn 1 */

  /* USER CODE END DebugMonitor_IRQn 1 */
}
 800083c:	bf00      	nop
 800083e:	46bd      	mov	sp, r7
 8000840:	f85d 7b04 	ldr.w	r7, [sp], #4
 8000844:	4770      	bx	lr

08000846 <PendSV_Handler>:

/**
  * @brief This function handles Pendable request for system service.
  */
void PendSV_Handler(void)
{
 8000846:	b480      	push	{r7}
 8000848:	af00      	add	r7, sp, #0

  /* USER CODE END PendSV_IRQn 0 */
  /* USER CODE BEGIN PendSV_IRQn 1 */

  /* USER CODE END PendSV_IRQn 1 */
}
 800084a:	bf00      	nop
 800084c:	46bd      	mov	sp, r7
 800084e:	f85d 7b04 	ldr.w	r7, [sp], #4
 8000852:	4770      	bx	lr

08000854 <SysTick_Handler>:

/**
  * @brief This function handles System tick timer.
  */
void SysTick_Handler(void)
{
 8000854:	b580      	push	{r7, lr}
 8000856:	af00      	add	r7, sp, #0
  /* USER CODE BEGIN SysTick_IRQn 0 */

  /* USER CODE END SysTick_IRQn 0 */
  HAL_IncTick();
 8000858:	f000 f934 	bl	8000ac4 <HAL_IncTick>
  /* USER CODE BEGIN SysTick_IRQn 1 */

  /* USER CODE END SysTick_IRQn 1 */
}
 800085c:	bf00      	nop
 800085e:	bd80      	pop	{r7, pc}

08000860 <FDCAN1_IT0_IRQHandler>:

/**
  * @brief This function handles FDCAN1 interrupt 0.
  */
void FDCAN1_IT0_IRQHandler(void)
{
 8000860:	b580      	push	{r7, lr}
 8000862:	af00      	add	r7, sp, #0
  /* USER CODE BEGIN FDCAN1_IT0_IRQn 0 */

  /* USER CODE END FDCAN1_IT0_IRQn 0 */
  HAL_FDCAN_IRQHandler(&hfdcan1);
 8000864:	4802      	ldr	r0, [pc, #8]	; (8000870 <FDCAN1_IT0_IRQHandler+0x10>)
 8000866:	f000 ff81 	bl	800176c <HAL_FDCAN_IRQHandler>
  /* USER CODE BEGIN FDCAN1_IT0_IRQn 1 */

  /* USER CODE END FDCAN1_IT0_IRQn 1 */
}
 800086a:	bf00      	nop
 800086c:	bd80      	pop	{r7, pc}
 800086e:	bf00      	nop
 8000870:	24000034 	.word	0x24000034

08000874 <SystemInit>:
  *         configuration.
  * @param  None
  * @retval None
  */
void SystemInit (void)
{
 8000874:	b480      	push	{r7}
 8000876:	af00      	add	r7, sp, #0
 __IO uint32_t tmpreg;
#endif /* DATA_IN_D2_SRAM */

  /* FPU settings ------------------------------------------------------------*/
  #if (__FPU_PRESENT == 1) && (__FPU_USED == 1)
    SCB->CPACR |= ((3UL << (10*2))|(3UL << (11*2)));  /* set CP10 and CP11 Full Access */
 8000878:	4b39      	ldr	r3, [pc, #228]	; (8000960 <SystemInit+0xec>)
 800087a:	f8d3 3088 	ldr.w	r3, [r3, #136]	; 0x88
 800087e:	4a38      	ldr	r2, [pc, #224]	; (8000960 <SystemInit+0xec>)
 8000880:	f443 0370 	orr.w	r3, r3, #15728640	; 0xf00000
 8000884:	f8c2 3088 	str.w	r3, [r2, #136]	; 0x88
  #endif
  /* Reset the RCC clock configuration to the default reset state ------------*/

   /* Increasing the CPU frequency */
  if(FLASH_LATENCY_DEFAULT  > (READ_BIT((FLASH->ACR), FLASH_ACR_LATENCY)))
 8000888:	4b36      	ldr	r3, [pc, #216]	; (8000964 <SystemInit+0xf0>)
 800088a:	681b      	ldr	r3, [r3, #0]
 800088c:	f003 030f 	and.w	r3, r3, #15
 8000890:	2b06      	cmp	r3, #6
 8000892:	d807      	bhi.n	80008a4 <SystemInit+0x30>
  {
    /* Program the new number of wait states to the LATENCY bits in the FLASH_ACR register */
	MODIFY_REG(FLASH->ACR, FLASH_ACR_LATENCY, (uint32_t)(FLASH_LATENCY_DEFAULT));
 8000894:	4b33      	ldr	r3, [pc, #204]	; (8000964 <SystemInit+0xf0>)
 8000896:	681b      	ldr	r3, [r3, #0]
 8000898:	f023 030f 	bic.w	r3, r3, #15
 800089c:	4a31      	ldr	r2, [pc, #196]	; (8000964 <SystemInit+0xf0>)
 800089e:	f043 0307 	orr.w	r3, r3, #7
 80008a2:	6013      	str	r3, [r2, #0]
  }

  /* Set HSION bit */
  RCC->CR |= RCC_CR_HSION;
 80008a4:	4b30      	ldr	r3, [pc, #192]	; (8000968 <SystemInit+0xf4>)
 80008a6:	681b      	ldr	r3, [r3, #0]
 80008a8:	4a2f      	ldr	r2, [pc, #188]	; (8000968 <SystemInit+0xf4>)
 80008aa:	f043 0301 	orr.w	r3, r3, #1
 80008ae:	6013      	str	r3, [r2, #0]

  /* Reset CFGR register */
  RCC->CFGR = 0x00000000;
 80008b0:	4b2d      	ldr	r3, [pc, #180]	; (8000968 <SystemInit+0xf4>)
 80008b2:	2200      	movs	r2, #0
 80008b4:	611a      	str	r2, [r3, #16]

  /* Reset HSEON, HSECSSON, CSION, HSI48ON, CSIKERON, PLL1ON, PLL2ON and PLL3ON bits */
  RCC->CR &= 0xEAF6ED7FU;
 80008b6:	4b2c      	ldr	r3, [pc, #176]	; (8000968 <SystemInit+0xf4>)
 80008b8:	681a      	ldr	r2, [r3, #0]
 80008ba:	492b      	ldr	r1, [pc, #172]	; (8000968 <SystemInit+0xf4>)
 80008bc:	4b2b      	ldr	r3, [pc, #172]	; (800096c <SystemInit+0xf8>)
 80008be:	4013      	ands	r3, r2
 80008c0:	600b      	str	r3, [r1, #0]
  
   /* Decreasing the number of wait states because of lower CPU frequency */
  if(FLASH_LATENCY_DEFAULT  < (READ_BIT((FLASH->ACR), FLASH_ACR_LATENCY)))
 80008c2:	4b28      	ldr	r3, [pc, #160]	; (8000964 <SystemInit+0xf0>)
 80008c4:	681b      	ldr	r3, [r3, #0]
 80008c6:	f003 0308 	and.w	r3, r3, #8
 80008ca:	2b00      	cmp	r3, #0
 80008cc:	d007      	beq.n	80008de <SystemInit+0x6a>
  {
    /* Program the new number of wait states to the LATENCY bits in the FLASH_ACR register */
	MODIFY_REG(FLASH->ACR, FLASH_ACR_LATENCY, (uint32_t)(FLASH_LATENCY_DEFAULT));
 80008ce:	4b25      	ldr	r3, [pc, #148]	; (8000964 <SystemInit+0xf0>)
 80008d0:	681b      	ldr	r3, [r3, #0]
 80008d2:	f023 030f 	bic.w	r3, r3, #15
 80008d6:	4a23      	ldr	r2, [pc, #140]	; (8000964 <SystemInit+0xf0>)
 80008d8:	f043 0307 	orr.w	r3, r3, #7
 80008dc:	6013      	str	r3, [r2, #0]
  }

#if defined(D3_SRAM_BASE)
  /* Reset D1CFGR register */
  RCC->D1CFGR = 0x00000000;
 80008de:	4b22      	ldr	r3, [pc, #136]	; (8000968 <SystemInit+0xf4>)
 80008e0:	2200      	movs	r2, #0
 80008e2:	619a      	str	r2, [r3, #24]

  /* Reset D2CFGR register */
  RCC->D2CFGR = 0x00000000;
 80008e4:	4b20      	ldr	r3, [pc, #128]	; (8000968 <SystemInit+0xf4>)
 80008e6:	2200      	movs	r2, #0
 80008e8:	61da      	str	r2, [r3, #28]

  /* Reset D3CFGR register */
  RCC->D3CFGR = 0x00000000;
 80008ea:	4b1f      	ldr	r3, [pc, #124]	; (8000968 <SystemInit+0xf4>)
 80008ec:	2200      	movs	r2, #0
 80008ee:	621a      	str	r2, [r3, #32]

  /* Reset SRDCFGR register */
  RCC->SRDCFGR = 0x00000000;
#endif
  /* Reset PLLCKSELR register */
  RCC->PLLCKSELR = 0x02020200;
 80008f0:	4b1d      	ldr	r3, [pc, #116]	; (8000968 <SystemInit+0xf4>)
 80008f2:	4a1f      	ldr	r2, [pc, #124]	; (8000970 <SystemInit+0xfc>)
 80008f4:	629a      	str	r2, [r3, #40]	; 0x28

  /* Reset PLLCFGR register */
  RCC->PLLCFGR = 0x01FF0000;
 80008f6:	4b1c      	ldr	r3, [pc, #112]	; (8000968 <SystemInit+0xf4>)
 80008f8:	4a1e      	ldr	r2, [pc, #120]	; (8000974 <SystemInit+0x100>)
 80008fa:	62da      	str	r2, [r3, #44]	; 0x2c
  /* Reset PLL1DIVR register */
  RCC->PLL1DIVR = 0x01010280;
 80008fc:	4b1a      	ldr	r3, [pc, #104]	; (8000968 <SystemInit+0xf4>)
 80008fe:	4a1e      	ldr	r2, [pc, #120]	; (8000978 <SystemInit+0x104>)
 8000900:	631a      	str	r2, [r3, #48]	; 0x30
  /* Reset PLL1FRACR register */
  RCC->PLL1FRACR = 0x00000000;
 8000902:	4b19      	ldr	r3, [pc, #100]	; (8000968 <SystemInit+0xf4>)
 8000904:	2200      	movs	r2, #0
 8000906:	635a      	str	r2, [r3, #52]	; 0x34

  /* Reset PLL2DIVR register */
  RCC->PLL2DIVR = 0x01010280;
 8000908:	4b17      	ldr	r3, [pc, #92]	; (8000968 <SystemInit+0xf4>)
 800090a:	4a1b      	ldr	r2, [pc, #108]	; (8000978 <SystemInit+0x104>)
 800090c:	639a      	str	r2, [r3, #56]	; 0x38

  /* Reset PLL2FRACR register */

  RCC->PLL2FRACR = 0x00000000;
 800090e:	4b16      	ldr	r3, [pc, #88]	; (8000968 <SystemInit+0xf4>)
 8000910:	2200      	movs	r2, #0
 8000912:	63da      	str	r2, [r3, #60]	; 0x3c
  /* Reset PLL3DIVR register */
  RCC->PLL3DIVR = 0x01010280;
 8000914:	4b14      	ldr	r3, [pc, #80]	; (8000968 <SystemInit+0xf4>)
 8000916:	4a18      	ldr	r2, [pc, #96]	; (8000978 <SystemInit+0x104>)
 8000918:	641a      	str	r2, [r3, #64]	; 0x40

  /* Reset PLL3FRACR register */
  RCC->PLL3FRACR = 0x00000000;
 800091a:	4b13      	ldr	r3, [pc, #76]	; (8000968 <SystemInit+0xf4>)
 800091c:	2200      	movs	r2, #0
 800091e:	645a      	str	r2, [r3, #68]	; 0x44

  /* Reset HSEBYP bit */
  RCC->CR &= 0xFFFBFFFFU;
 8000920:	4b11      	ldr	r3, [pc, #68]	; (8000968 <SystemInit+0xf4>)
 8000922:	681b      	ldr	r3, [r3, #0]
 8000924:	4a10      	ldr	r2, [pc, #64]	; (8000968 <SystemInit+0xf4>)
 8000926:	f423 2380 	bic.w	r3, r3, #262144	; 0x40000
 800092a:	6013      	str	r3, [r2, #0]

  /* Disable all interrupts */
  RCC->CIER = 0x00000000;
 800092c:	4b0e      	ldr	r3, [pc, #56]	; (8000968 <SystemInit+0xf4>)
 800092e:	2200      	movs	r2, #0
 8000930:	661a      	str	r2, [r3, #96]	; 0x60

#if (STM32H7_DEV_ID == 0x450UL)
  /* dual core CM7 or single core line */
  if((DBGMCU->IDCODE & 0xFFFF0000U) < 0x20000000U)
 8000932:	4b12      	ldr	r3, [pc, #72]	; (800097c <SystemInit+0x108>)
 8000934:	681a      	ldr	r2, [r3, #0]
 8000936:	4b12      	ldr	r3, [pc, #72]	; (8000980 <SystemInit+0x10c>)
 8000938:	4013      	ands	r3, r2
 800093a:	f1b3 5f00 	cmp.w	r3, #536870912	; 0x20000000
 800093e:	d202      	bcs.n	8000946 <SystemInit+0xd2>
  {
    /* if stm32h7 revY*/
    /* Change  the switch matrix read issuing capability to 1 for the AXI SRAM target (Target 7) */
    *((__IO uint32_t*)0x51008108) = 0x000000001U;
 8000940:	4b10      	ldr	r3, [pc, #64]	; (8000984 <SystemInit+0x110>)
 8000942:	2201      	movs	r2, #1
 8000944:	601a      	str	r2, [r3, #0]
  /*
   * Disable the FMC bank1 (enabled after reset).
   * This, prevents CPU speculation access on this bank which blocks the use of FMC during
   * 24us. During this time the others FMC master (such as LTDC) cannot use it!
   */
  FMC_Bank1_R->BTCR[0] = 0x000030D2;
 8000946:	4b10      	ldr	r3, [pc, #64]	; (8000988 <SystemInit+0x114>)
 8000948:	f243 02d2 	movw	r2, #12498	; 0x30d2
 800094c:	601a      	str	r2, [r3, #0]

  /* Configure the Vector Table location add offset address for cortex-M7 ------------------*/
#ifdef VECT_TAB_SRAM
  SCB->VTOR = D1_AXISRAM_BASE  | VECT_TAB_OFFSET; /* Vector Table Relocation in Internal AXI-RAM */
#else
  SCB->VTOR = FLASH_BANK1_BASE | VECT_TAB_OFFSET; /* Vector Table Relocation in Internal FLASH */
 800094e:	4b04      	ldr	r3, [pc, #16]	; (8000960 <SystemInit+0xec>)
 8000950:	f04f 6200 	mov.w	r2, #134217728	; 0x8000000
 8000954:	609a      	str	r2, [r3, #8]
#endif

#endif /*DUAL_CORE && CORE_CM4*/

}
 8000956:	bf00      	nop
 8000958:	46bd      	mov	sp, r7
 800095a:	f85d 7b04 	ldr.w	r7, [sp], #4
 800095e:	4770      	bx	lr
 8000960:	e000ed00 	.word	0xe000ed00
 8000964:	52002000 	.word	0x52002000
 8000968:	58024400 	.word	0x58024400
 800096c:	eaf6ed7f 	.word	0xeaf6ed7f
 8000970:	02020200 	.word	0x02020200
 8000974:	01ff0000 	.word	0x01ff0000
 8000978:	01010280 	.word	0x01010280
 800097c:	5c001000 	.word	0x5c001000
 8000980:	ffff0000 	.word	0xffff0000
 8000984:	51008108 	.word	0x51008108
 8000988:	52004000 	.word	0x52004000

0800098c <Reset_Handler>:

    .section  .text.Reset_Handler
  .weak  Reset_Handler
  .type  Reset_Handler, %function
Reset_Handler:  
  ldr   sp, =_estack      /* set stack pointer */
 800098c:	f8df d034 	ldr.w	sp, [pc, #52]	; 80009c4 <LoopFillZerobss+0x10>

/* Call the clock system intitialization function.*/
  bl  SystemInit
 8000990:	f7ff ff70 	bl	8000874 <SystemInit>

/* Copy the data segment initializers from flash to SRAM */  
  movs  r1, #0
 8000994:	2100      	movs	r1, #0
  b  LoopCopyDataInit
 8000996:	e003      	b.n	80009a0 <LoopCopyDataInit>

08000998 <CopyDataInit>:

CopyDataInit:
  ldr  r3, =_sidata
 8000998:	4b0b      	ldr	r3, [pc, #44]	; (80009c8 <LoopFillZerobss+0x14>)
  ldr  r3, [r3, r1]
 800099a:	585b      	ldr	r3, [r3, r1]
  str  r3, [r0, r1]
 800099c:	5043      	str	r3, [r0, r1]
  adds  r1, r1, #4
 800099e:	3104      	adds	r1, #4

080009a0 <LoopCopyDataInit>:
    
LoopCopyDataInit:
  ldr  r0, =_sdata
 80009a0:	480a      	ldr	r0, [pc, #40]	; (80009cc <LoopFillZerobss+0x18>)
  ldr  r3, =_edata
 80009a2:	4b0b      	ldr	r3, [pc, #44]	; (80009d0 <LoopFillZerobss+0x1c>)
  adds  r2, r0, r1
 80009a4:	1842      	adds	r2, r0, r1
  cmp  r2, r3
 80009a6:	429a      	cmp	r2, r3
  bcc  CopyDataInit
 80009a8:	d3f6      	bcc.n	8000998 <CopyDataInit>
  ldr  r2, =_sbss
 80009aa:	4a0a      	ldr	r2, [pc, #40]	; (80009d4 <LoopFillZerobss+0x20>)
  b  LoopFillZerobss
 80009ac:	e002      	b.n	80009b4 <LoopFillZerobss>

080009ae <FillZerobss>:
/* Zero fill the bss segment. */  
FillZerobss:
  movs  r3, #0
 80009ae:	2300      	movs	r3, #0
  str  r3, [r2], #4
 80009b0:	f842 3b04 	str.w	r3, [r2], #4

080009b4 <LoopFillZerobss>:
    
LoopFillZerobss:
  ldr  r3, = _ebss
 80009b4:	4b08      	ldr	r3, [pc, #32]	; (80009d8 <LoopFillZerobss+0x24>)
  cmp  r2, r3
 80009b6:	429a      	cmp	r2, r3
  bcc  FillZerobss
 80009b8:	d3f9      	bcc.n	80009ae <FillZerobss>

/* Call static constructors */
    bl __libc_init_array
 80009ba:	f003 fda3 	bl	8004504 <__libc_init_array>
/* Call the application's entry point.*/
  bl  main
 80009be:	f7ff fdbb 	bl	8000538 <main>
  bx  lr    
 80009c2:	4770      	bx	lr
  ldr   sp, =_estack      /* set stack pointer */
 80009c4:	24080000 	.word	0x24080000
  ldr  r3, =_sidata
 80009c8:	08004604 	.word	0x08004604
  ldr  r0, =_sdata
 80009cc:	24000000 	.word	0x24000000
  ldr  r3, =_edata
 80009d0:	24000010 	.word	0x24000010
  ldr  r2, =_sbss
 80009d4:	24000010 	.word	0x24000010
  ldr  r3, = _ebss
 80009d8:	24000130 	.word	0x24000130

080009dc <ADC3_IRQHandler>:
 * @retval None       
*/
    .section  .text.Default_Handler,"ax",%progbits
Default_Handler:
Infinite_Loop:
  b  Infinite_Loop
 80009dc:	e7fe      	b.n	80009dc <ADC3_IRQHandler>
	...

080009e0 <HAL_Init>:
  *         need to ensure that the SysTick time base is always set to 1 millisecond
  *         to have correct HAL operation.
  * @retval HAL status
  */
HAL_StatusTypeDef HAL_Init(void)
{
 80009e0:	b580      	push	{r7, lr}
 80009e2:	b082      	sub	sp, #8
 80009e4:	af00      	add	r7, sp, #0
   __HAL_ART_CONFIG_BASE_ADDRESS(0x08100000UL);  /* Configure the Cortex-M4 ART Base address to the Flash Bank 2 : */
   __HAL_ART_ENABLE();                           /* Enable the Cortex-M4 ART */
#endif /* DUAL_CORE &&  CORE_CM4 */

  /* Set Interrupt Group Priority */
  HAL_NVIC_SetPriorityGrouping(NVIC_PRIORITYGROUP_4);
 80009e6:	2003      	movs	r0, #3
 80009e8:	f000 f98c 	bl	8000d04 <HAL_NVIC_SetPriorityGrouping>

  /* Update the SystemCoreClock global variable */
#if defined(RCC_D1CFGR_D1CPRE)
  common_system_clock = HAL_RCC_GetSysClockFreq() >> ((D1CorePrescTable[(RCC->D1CFGR & RCC_D1CFGR_D1CPRE)>> RCC_D1CFGR_D1CPRE_Pos]) & 0x1FU);
 80009ec:	f002 fb7c 	bl	80030e8 <HAL_RCC_GetSysClockFreq>
 80009f0:	4602      	mov	r2, r0
 80009f2:	4b15      	ldr	r3, [pc, #84]	; (8000a48 <HAL_Init+0x68>)
 80009f4:	699b      	ldr	r3, [r3, #24]
 80009f6:	0a1b      	lsrs	r3, r3, #8
 80009f8:	f003 030f 	and.w	r3, r3, #15
 80009fc:	4913      	ldr	r1, [pc, #76]	; (8000a4c <HAL_Init+0x6c>)
 80009fe:	5ccb      	ldrb	r3, [r1, r3]
 8000a00:	f003 031f 	and.w	r3, r3, #31
 8000a04:	fa22 f303 	lsr.w	r3, r2, r3
 8000a08:	607b      	str	r3, [r7, #4]
  common_system_clock = HAL_RCC_GetSysClockFreq() >> ((D1CorePrescTable[(RCC->CDCFGR1 & RCC_CDCFGR1_CDCPRE)>> RCC_CDCFGR1_CDCPRE_Pos]) & 0x1FU);
#endif

  /* Update the SystemD2Clock global variable */
#if defined(RCC_D1CFGR_HPRE)
  SystemD2Clock = (common_system_clock >> ((D1CorePrescTable[(RCC->D1CFGR & RCC_D1CFGR_HPRE)>> RCC_D1CFGR_HPRE_Pos]) & 0x1FU));
 8000a0a:	4b0f      	ldr	r3, [pc, #60]	; (8000a48 <HAL_Init+0x68>)
 8000a0c:	699b      	ldr	r3, [r3, #24]
 8000a0e:	f003 030f 	and.w	r3, r3, #15
 8000a12:	4a0e      	ldr	r2, [pc, #56]	; (8000a4c <HAL_Init+0x6c>)
 8000a14:	5cd3      	ldrb	r3, [r2, r3]
 8000a16:	f003 031f 	and.w	r3, r3, #31
 8000a1a:	687a      	ldr	r2, [r7, #4]
 8000a1c:	fa22 f303 	lsr.w	r3, r2, r3
 8000a20:	4a0b      	ldr	r2, [pc, #44]	; (8000a50 <HAL_Init+0x70>)
 8000a22:	6013      	str	r3, [r2, #0]
#endif

#if defined(DUAL_CORE) && defined(CORE_CM4)
  SystemCoreClock = SystemD2Clock;
#else
  SystemCoreClock = common_system_clock;
 8000a24:	4a0b      	ldr	r2, [pc, #44]	; (8000a54 <HAL_Init+0x74>)
 8000a26:	687b      	ldr	r3, [r7, #4]
 8000a28:	6013      	str	r3, [r2, #0]
#endif /* DUAL_CORE && CORE_CM4 */

  /* Use systick as time base source and configure 1ms tick (default clock after Reset is HSI) */
  if(HAL_InitTick(TICK_INT_PRIORITY) != HAL_OK)
 8000a2a:	2000      	movs	r0, #0
 8000a2c:	f000 f814 	bl	8000a58 <HAL_InitTick>
 8000a30:	4603      	mov	r3, r0
 8000a32:	2b00      	cmp	r3, #0
 8000a34:	d001      	beq.n	8000a3a <HAL_Init+0x5a>
  {
    return HAL_ERROR;
 8000a36:	2301      	movs	r3, #1
 8000a38:	e002      	b.n	8000a40 <HAL_Init+0x60>
  }

  /* Init the low level hardware */
  HAL_MspInit();
 8000a3a:	f7ff fecd 	bl	80007d8 <HAL_MspInit>

  /* Return function status */
  return HAL_OK;
 8000a3e:	2300      	movs	r3, #0
}
 8000a40:	4618      	mov	r0, r3
 8000a42:	3708      	adds	r7, #8
 8000a44:	46bd      	mov	sp, r7
 8000a46:	bd80      	pop	{r7, pc}
 8000a48:	58024400 	.word	0x58024400
 8000a4c:	080045dc 	.word	0x080045dc
 8000a50:	24000004 	.word	0x24000004
 8000a54:	24000000 	.word	0x24000000

08000a58 <HAL_InitTick>:
  *       implementation  in user file.
  * @param TickPriority: Tick interrupt priority.
  * @retval HAL status
  */
__weak HAL_StatusTypeDef HAL_InitTick(uint32_t TickPriority)
{
 8000a58:	b580      	push	{r7, lr}
 8000a5a:	b082      	sub	sp, #8
 8000a5c:	af00      	add	r7, sp, #0
 8000a5e:	6078      	str	r0, [r7, #4]
  /* Check uwTickFreq for MisraC 2012 (even if uwTickFreq is a enum type that don't take the value zero)*/
  if((uint32_t)uwTickFreq == 0UL)
 8000a60:	4b15      	ldr	r3, [pc, #84]	; (8000ab8 <HAL_InitTick+0x60>)
 8000a62:	781b      	ldrb	r3, [r3, #0]
 8000a64:	2b00      	cmp	r3, #0
 8000a66:	d101      	bne.n	8000a6c <HAL_InitTick+0x14>
  {
    return HAL_ERROR;
 8000a68:	2301      	movs	r3, #1
 8000a6a:	e021      	b.n	8000ab0 <HAL_InitTick+0x58>
  }

    /* Configure the SysTick to have interrupt in 1ms time basis*/
    if (HAL_SYSTICK_Config(SystemCoreClock / (1000UL / (uint32_t)uwTickFreq)) > 0U)
 8000a6c:	4b13      	ldr	r3, [pc, #76]	; (8000abc <HAL_InitTick+0x64>)
 8000a6e:	681a      	ldr	r2, [r3, #0]
 8000a70:	4b11      	ldr	r3, [pc, #68]	; (8000ab8 <HAL_InitTick+0x60>)
 8000a72:	781b      	ldrb	r3, [r3, #0]
 8000a74:	4619      	mov	r1, r3
 8000a76:	f44f 737a 	mov.w	r3, #1000	; 0x3e8
 8000a7a:	fbb3 f3f1 	udiv	r3, r3, r1
 8000a7e:	fbb2 f3f3 	udiv	r3, r2, r3
 8000a82:	4618      	mov	r0, r3
 8000a84:	f000 f971 	bl	8000d6a <HAL_SYSTICK_Config>
 8000a88:	4603      	mov	r3, r0
 8000a8a:	2b00      	cmp	r3, #0
 8000a8c:	d001      	beq.n	8000a92 <HAL_InitTick+0x3a>
    {
      return HAL_ERROR;
 8000a8e:	2301      	movs	r3, #1
 8000a90:	e00e      	b.n	8000ab0 <HAL_InitTick+0x58>
    }

  /* Configure the SysTick IRQ priority */
  if (TickPriority < (1UL << __NVIC_PRIO_BITS))
 8000a92:	687b      	ldr	r3, [r7, #4]
 8000a94:	2b0f      	cmp	r3, #15
 8000a96:	d80a      	bhi.n	8000aae <HAL_InitTick+0x56>
  {
    HAL_NVIC_SetPriority(SysTick_IRQn, TickPriority, 0U);
 8000a98:	2200      	movs	r2, #0
 8000a9a:	6879      	ldr	r1, [r7, #4]
 8000a9c:	f04f 30ff 	mov.w	r0, #4294967295
 8000aa0:	f000 f93b 	bl	8000d1a <HAL_NVIC_SetPriority>
    uwTickPrio = TickPriority;
 8000aa4:	4a06      	ldr	r2, [pc, #24]	; (8000ac0 <HAL_InitTick+0x68>)
 8000aa6:	687b      	ldr	r3, [r7, #4]
 8000aa8:	6013      	str	r3, [r2, #0]
  {
    return HAL_ERROR;
  }

  /* Return function status */
  return HAL_OK;
 8000aaa:	2300      	movs	r3, #0
 8000aac:	e000      	b.n	8000ab0 <HAL_InitTick+0x58>
    return HAL_ERROR;
 8000aae:	2301      	movs	r3, #1
}
 8000ab0:	4618      	mov	r0, r3
 8000ab2:	3708      	adds	r7, #8
 8000ab4:	46bd      	mov	sp, r7
 8000ab6:	bd80      	pop	{r7, pc}
 8000ab8:	2400000c 	.word	0x2400000c
 8000abc:	24000000 	.word	0x24000000
 8000ac0:	24000008 	.word	0x24000008

08000ac4 <HAL_IncTick>:
 * @note This function is declared as __weak to be overwritten in case of other
  *      implementations in user file.
  * @retval None
  */
__weak void HAL_IncTick(void)
{
 8000ac4:	b480      	push	{r7}
 8000ac6:	af00      	add	r7, sp, #0
  uwTick += (uint32_t)uwTickFreq;
 8000ac8:	4b06      	ldr	r3, [pc, #24]	; (8000ae4 <HAL_IncTick+0x20>)
 8000aca:	781b      	ldrb	r3, [r3, #0]
 8000acc:	461a      	mov	r2, r3
 8000ace:	4b06      	ldr	r3, [pc, #24]	; (8000ae8 <HAL_IncTick+0x24>)
 8000ad0:	681b      	ldr	r3, [r3, #0]
 8000ad2:	4413      	add	r3, r2
 8000ad4:	4a04      	ldr	r2, [pc, #16]	; (8000ae8 <HAL_IncTick+0x24>)
 8000ad6:	6013      	str	r3, [r2, #0]
}
 8000ad8:	bf00      	nop
 8000ada:	46bd      	mov	sp, r7
 8000adc:	f85d 7b04 	ldr.w	r7, [sp], #4
 8000ae0:	4770      	bx	lr
 8000ae2:	bf00      	nop
 8000ae4:	2400000c 	.word	0x2400000c
 8000ae8:	2400012c 	.word	0x2400012c

08000aec <HAL_GetTick>:
  * @note This function is declared as __weak to be overwritten in case of other
  *       implementations in user file.
  * @retval tick value
  */
__weak uint32_t HAL_GetTick(void)
{
 8000aec:	b480      	push	{r7}
 8000aee:	af00      	add	r7, sp, #0
  return uwTick;
 8000af0:	4b03      	ldr	r3, [pc, #12]	; (8000b00 <HAL_GetTick+0x14>)
 8000af2:	681b      	ldr	r3, [r3, #0]
}
 8000af4:	4618      	mov	r0, r3
 8000af6:	46bd      	mov	sp, r7
 8000af8:	f85d 7b04 	ldr.w	r7, [sp], #4
 8000afc:	4770      	bx	lr
 8000afe:	bf00      	nop
 8000b00:	2400012c 	.word	0x2400012c

08000b04 <HAL_Delay>:
  *       implementations in user file.
  * @param Delay  specifies the delay time length, in milliseconds.
  * @retval None
  */
__weak void HAL_Delay(uint32_t Delay)
{
 8000b04:	b580      	push	{r7, lr}
 8000b06:	b084      	sub	sp, #16
 8000b08:	af00      	add	r7, sp, #0
 8000b0a:	6078      	str	r0, [r7, #4]
  uint32_t tickstart = HAL_GetTick();
 8000b0c:	f7ff ffee 	bl	8000aec <HAL_GetTick>
 8000b10:	60b8      	str	r0, [r7, #8]
  uint32_t wait = Delay;
 8000b12:	687b      	ldr	r3, [r7, #4]
 8000b14:	60fb      	str	r3, [r7, #12]

  /* Add a freq to guarantee minimum wait */
  if (wait < HAL_MAX_DELAY)
 8000b16:	68fb      	ldr	r3, [r7, #12]
 8000b18:	f1b3 3fff 	cmp.w	r3, #4294967295
 8000b1c:	d005      	beq.n	8000b2a <HAL_Delay+0x26>
  {
    wait += (uint32_t)(uwTickFreq);
 8000b1e:	4b0a      	ldr	r3, [pc, #40]	; (8000b48 <HAL_Delay+0x44>)
 8000b20:	781b      	ldrb	r3, [r3, #0]
 8000b22:	461a      	mov	r2, r3
 8000b24:	68fb      	ldr	r3, [r7, #12]
 8000b26:	4413      	add	r3, r2
 8000b28:	60fb      	str	r3, [r7, #12]
  }

  while ((HAL_GetTick() - tickstart) < wait)
 8000b2a:	bf00      	nop
 8000b2c:	f7ff ffde 	bl	8000aec <HAL_GetTick>
 8000b30:	4602      	mov	r2, r0
 8000b32:	68bb      	ldr	r3, [r7, #8]
 8000b34:	1ad3      	subs	r3, r2, r3
 8000b36:	68fa      	ldr	r2, [r7, #12]
 8000b38:	429a      	cmp	r2, r3
 8000b3a:	d8f7      	bhi.n	8000b2c <HAL_Delay+0x28>
  {
  }
}
 8000b3c:	bf00      	nop
 8000b3e:	bf00      	nop
 8000b40:	3710      	adds	r7, #16
 8000b42:	46bd      	mov	sp, r7
 8000b44:	bd80      	pop	{r7, pc}
 8000b46:	bf00      	nop
 8000b48:	2400000c 	.word	0x2400000c

08000b4c <HAL_GetREVID>:
/**
  * @brief  Returns the device revision identifier.
  * @retval Device revision identifier
  */
uint32_t HAL_GetREVID(void)
{
 8000b4c:	b480      	push	{r7}
 8000b4e:	af00      	add	r7, sp, #0
   return((DBGMCU->IDCODE) >> 16);
 8000b50:	4b03      	ldr	r3, [pc, #12]	; (8000b60 <HAL_GetREVID+0x14>)
 8000b52:	681b      	ldr	r3, [r3, #0]
 8000b54:	0c1b      	lsrs	r3, r3, #16
}
 8000b56:	4618      	mov	r0, r3
 8000b58:	46bd      	mov	sp, r7
 8000b5a:	f85d 7b04 	ldr.w	r7, [sp], #4
 8000b5e:	4770      	bx	lr
 8000b60:	5c001000 	.word	0x5c001000

08000b64 <__NVIC_SetPriorityGrouping>:
           In case of a conflict between priority grouping and available
           priority bits (__NVIC_PRIO_BITS), the smallest possible priority group is set.
  \param [in]      PriorityGroup  Priority grouping field.
 */
__STATIC_INLINE void __NVIC_SetPriorityGrouping(uint32_t PriorityGroup)
{
 8000b64:	b480      	push	{r7}
 8000b66:	b085      	sub	sp, #20
 8000b68:	af00      	add	r7, sp, #0
 8000b6a:	6078      	str	r0, [r7, #4]
  uint32_t reg_value;
  uint32_t PriorityGroupTmp = (PriorityGroup & (uint32_t)0x07UL);             /* only values 0..7 are used          */
 8000b6c:	687b      	ldr	r3, [r7, #4]
 8000b6e:	f003 0307 	and.w	r3, r3, #7
 8000b72:	60fb      	str	r3, [r7, #12]

  reg_value  =  SCB->AIRCR;                                                   /* read old register configuration    */
 8000b74:	4b0b      	ldr	r3, [pc, #44]	; (8000ba4 <__NVIC_SetPriorityGrouping+0x40>)
 8000b76:	68db      	ldr	r3, [r3, #12]
 8000b78:	60bb      	str	r3, [r7, #8]
  reg_value &= ~((uint32_t)(SCB_AIRCR_VECTKEY_Msk | SCB_AIRCR_PRIGROUP_Msk)); /* clear bits to change               */
 8000b7a:	68ba      	ldr	r2, [r7, #8]
 8000b7c:	f64f 03ff 	movw	r3, #63743	; 0xf8ff
 8000b80:	4013      	ands	r3, r2
 8000b82:	60bb      	str	r3, [r7, #8]
  reg_value  =  (reg_value                                   |
                ((uint32_t)0x5FAUL << SCB_AIRCR_VECTKEY_Pos) |
                (PriorityGroupTmp << SCB_AIRCR_PRIGROUP_Pos)  );              /* Insert write key and priority group */
 8000b84:	68fb      	ldr	r3, [r7, #12]
 8000b86:	021a      	lsls	r2, r3, #8
                ((uint32_t)0x5FAUL << SCB_AIRCR_VECTKEY_Pos) |
 8000b88:	68bb      	ldr	r3, [r7, #8]
 8000b8a:	431a      	orrs	r2, r3
  reg_value  =  (reg_value                                   |
 8000b8c:	4b06      	ldr	r3, [pc, #24]	; (8000ba8 <__NVIC_SetPriorityGrouping+0x44>)
 8000b8e:	4313      	orrs	r3, r2
 8000b90:	60bb      	str	r3, [r7, #8]
  SCB->AIRCR =  reg_value;
 8000b92:	4a04      	ldr	r2, [pc, #16]	; (8000ba4 <__NVIC_SetPriorityGrouping+0x40>)
 8000b94:	68bb      	ldr	r3, [r7, #8]
 8000b96:	60d3      	str	r3, [r2, #12]
}
 8000b98:	bf00      	nop
 8000b9a:	3714      	adds	r7, #20
 8000b9c:	46bd      	mov	sp, r7
 8000b9e:	f85d 7b04 	ldr.w	r7, [sp], #4
 8000ba2:	4770      	bx	lr
 8000ba4:	e000ed00 	.word	0xe000ed00
 8000ba8:	05fa0000 	.word	0x05fa0000

08000bac <__NVIC_GetPriorityGrouping>:
  \brief   Get Priority Grouping
  \details Reads the priority grouping field from the NVIC Interrupt Controller.
  \return                Priority grouping field (SCB->AIRCR [10:8] PRIGROUP field).
 */
__STATIC_INLINE uint32_t __NVIC_GetPriorityGrouping(void)
{
 8000bac:	b480      	push	{r7}
 8000bae:	af00      	add	r7, sp, #0
  return ((uint32_t)((SCB->AIRCR & SCB_AIRCR_PRIGROUP_Msk) >> SCB_AIRCR_PRIGROUP_Pos));
 8000bb0:	4b04      	ldr	r3, [pc, #16]	; (8000bc4 <__NVIC_GetPriorityGrouping+0x18>)
 8000bb2:	68db      	ldr	r3, [r3, #12]
 8000bb4:	0a1b      	lsrs	r3, r3, #8
 8000bb6:	f003 0307 	and.w	r3, r3, #7
}
 8000bba:	4618      	mov	r0, r3
 8000bbc:	46bd      	mov	sp, r7
 8000bbe:	f85d 7b04 	ldr.w	r7, [sp], #4
 8000bc2:	4770      	bx	lr
 8000bc4:	e000ed00 	.word	0xe000ed00

08000bc8 <__NVIC_EnableIRQ>:
  \details Enables a device specific interrupt in the NVIC interrupt controller.
  \param [in]      IRQn  Device specific interrupt number.
  \note    IRQn must not be negative.
 */
__STATIC_INLINE void __NVIC_EnableIRQ(IRQn_Type IRQn)
{
 8000bc8:	b480      	push	{r7}
 8000bca:	b083      	sub	sp, #12
 8000bcc:	af00      	add	r7, sp, #0
 8000bce:	4603      	mov	r3, r0
 8000bd0:	80fb      	strh	r3, [r7, #6]
  if ((int32_t)(IRQn) >= 0)
 8000bd2:	f9b7 3006 	ldrsh.w	r3, [r7, #6]
 8000bd6:	2b00      	cmp	r3, #0
 8000bd8:	db0b      	blt.n	8000bf2 <__NVIC_EnableIRQ+0x2a>
  {
    NVIC->ISER[(((uint32_t)IRQn) >> 5UL)] = (uint32_t)(1UL << (((uint32_t)IRQn) & 0x1FUL));
 8000bda:	88fb      	ldrh	r3, [r7, #6]
 8000bdc:	f003 021f 	and.w	r2, r3, #31
 8000be0:	4907      	ldr	r1, [pc, #28]	; (8000c00 <__NVIC_EnableIRQ+0x38>)
 8000be2:	f9b7 3006 	ldrsh.w	r3, [r7, #6]
 8000be6:	095b      	lsrs	r3, r3, #5
 8000be8:	2001      	movs	r0, #1
 8000bea:	fa00 f202 	lsl.w	r2, r0, r2
 8000bee:	f841 2023 	str.w	r2, [r1, r3, lsl #2]
  }
}
 8000bf2:	bf00      	nop
 8000bf4:	370c      	adds	r7, #12
 8000bf6:	46bd      	mov	sp, r7
 8000bf8:	f85d 7b04 	ldr.w	r7, [sp], #4
 8000bfc:	4770      	bx	lr
 8000bfe:	bf00      	nop
 8000c00:	e000e100 	.word	0xe000e100

08000c04 <__NVIC_SetPriority>:
  \param [in]      IRQn  Interrupt number.
  \param [in]  priority  Priority to set.
  \note    The priority cannot be set for every processor exception.
 */
__STATIC_INLINE void __NVIC_SetPriority(IRQn_Type IRQn, uint32_t priority)
{
 8000c04:	b480      	push	{r7}
 8000c06:	b083      	sub	sp, #12
 8000c08:	af00      	add	r7, sp, #0
 8000c0a:	4603      	mov	r3, r0
 8000c0c:	6039      	str	r1, [r7, #0]
 8000c0e:	80fb      	strh	r3, [r7, #6]
  if ((int32_t)(IRQn) >= 0)
 8000c10:	f9b7 3006 	ldrsh.w	r3, [r7, #6]
 8000c14:	2b00      	cmp	r3, #0
 8000c16:	db0a      	blt.n	8000c2e <__NVIC_SetPriority+0x2a>
  {
    NVIC->IP[((uint32_t)IRQn)]                = (uint8_t)((priority << (8U - __NVIC_PRIO_BITS)) & (uint32_t)0xFFUL);
 8000c18:	683b      	ldr	r3, [r7, #0]
 8000c1a:	b2da      	uxtb	r2, r3
 8000c1c:	490c      	ldr	r1, [pc, #48]	; (8000c50 <__NVIC_SetPriority+0x4c>)
 8000c1e:	f9b7 3006 	ldrsh.w	r3, [r7, #6]
 8000c22:	0112      	lsls	r2, r2, #4
 8000c24:	b2d2      	uxtb	r2, r2
 8000c26:	440b      	add	r3, r1
 8000c28:	f883 2300 	strb.w	r2, [r3, #768]	; 0x300
  }
  else
  {
    SCB->SHPR[(((uint32_t)IRQn) & 0xFUL)-4UL] = (uint8_t)((priority << (8U - __NVIC_PRIO_BITS)) & (uint32_t)0xFFUL);
  }
}
 8000c2c:	e00a      	b.n	8000c44 <__NVIC_SetPriority+0x40>
    SCB->SHPR[(((uint32_t)IRQn) & 0xFUL)-4UL] = (uint8_t)((priority << (8U - __NVIC_PRIO_BITS)) & (uint32_t)0xFFUL);
 8000c2e:	683b      	ldr	r3, [r7, #0]
 8000c30:	b2da      	uxtb	r2, r3
 8000c32:	4908      	ldr	r1, [pc, #32]	; (8000c54 <__NVIC_SetPriority+0x50>)
 8000c34:	88fb      	ldrh	r3, [r7, #6]
 8000c36:	f003 030f 	and.w	r3, r3, #15
 8000c3a:	3b04      	subs	r3, #4
 8000c3c:	0112      	lsls	r2, r2, #4
 8000c3e:	b2d2      	uxtb	r2, r2
 8000c40:	440b      	add	r3, r1
 8000c42:	761a      	strb	r2, [r3, #24]
}
 8000c44:	bf00      	nop
 8000c46:	370c      	adds	r7, #12
 8000c48:	46bd      	mov	sp, r7
 8000c4a:	f85d 7b04 	ldr.w	r7, [sp], #4
 8000c4e:	4770      	bx	lr
 8000c50:	e000e100 	.word	0xe000e100
 8000c54:	e000ed00 	.word	0xe000ed00

08000c58 <NVIC_EncodePriority>:
  \param [in]   PreemptPriority  Preemptive priority value (starting from 0).
  \param [in]       SubPriority  Subpriority value (starting from 0).
  \return                        Encoded priority. Value can be used in the function \ref NVIC_SetPriority().
 */
__STATIC_INLINE uint32_t NVIC_EncodePriority (uint32_t PriorityGroup, uint32_t PreemptPriority, uint32_t SubPriority)
{
 8000c58:	b480      	push	{r7}
 8000c5a:	b089      	sub	sp, #36	; 0x24
 8000c5c:	af00      	add	r7, sp, #0
 8000c5e:	60f8      	str	r0, [r7, #12]
 8000c60:	60b9      	str	r1, [r7, #8]
 8000c62:	607a      	str	r2, [r7, #4]
  uint32_t PriorityGroupTmp = (PriorityGroup & (uint32_t)0x07UL);   /* only values 0..7 are used          */
 8000c64:	68fb      	ldr	r3, [r7, #12]
 8000c66:	f003 0307 	and.w	r3, r3, #7
 8000c6a:	61fb      	str	r3, [r7, #28]
  uint32_t PreemptPriorityBits;
  uint32_t SubPriorityBits;

  PreemptPriorityBits = ((7UL - PriorityGroupTmp) > (uint32_t)(__NVIC_PRIO_BITS)) ? (uint32_t)(__NVIC_PRIO_BITS) : (uint32_t)(7UL - PriorityGroupTmp);
 8000c6c:	69fb      	ldr	r3, [r7, #28]
 8000c6e:	f1c3 0307 	rsb	r3, r3, #7
 8000c72:	2b04      	cmp	r3, #4
 8000c74:	bf28      	it	cs
 8000c76:	2304      	movcs	r3, #4
 8000c78:	61bb      	str	r3, [r7, #24]
  SubPriorityBits     = ((PriorityGroupTmp + (uint32_t)(__NVIC_PRIO_BITS)) < (uint32_t)7UL) ? (uint32_t)0UL : (uint32_t)((PriorityGroupTmp - 7UL) + (uint32_t)(__NVIC_PRIO_BITS));
 8000c7a:	69fb      	ldr	r3, [r7, #28]
 8000c7c:	3304      	adds	r3, #4
 8000c7e:	2b06      	cmp	r3, #6
 8000c80:	d902      	bls.n	8000c88 <NVIC_EncodePriority+0x30>
 8000c82:	69fb      	ldr	r3, [r7, #28]
 8000c84:	3b03      	subs	r3, #3
 8000c86:	e000      	b.n	8000c8a <NVIC_EncodePriority+0x32>
 8000c88:	2300      	movs	r3, #0
 8000c8a:	617b      	str	r3, [r7, #20]

  return (
           ((PreemptPriority & (uint32_t)((1UL << (PreemptPriorityBits)) - 1UL)) << SubPriorityBits) |
 8000c8c:	f04f 32ff 	mov.w	r2, #4294967295
 8000c90:	69bb      	ldr	r3, [r7, #24]
 8000c92:	fa02 f303 	lsl.w	r3, r2, r3
 8000c96:	43da      	mvns	r2, r3
 8000c98:	68bb      	ldr	r3, [r7, #8]
 8000c9a:	401a      	ands	r2, r3
 8000c9c:	697b      	ldr	r3, [r7, #20]
 8000c9e:	409a      	lsls	r2, r3
           ((SubPriority     & (uint32_t)((1UL << (SubPriorityBits    )) - 1UL)))
 8000ca0:	f04f 31ff 	mov.w	r1, #4294967295
 8000ca4:	697b      	ldr	r3, [r7, #20]
 8000ca6:	fa01 f303 	lsl.w	r3, r1, r3
 8000caa:	43d9      	mvns	r1, r3
 8000cac:	687b      	ldr	r3, [r7, #4]
 8000cae:	400b      	ands	r3, r1
           ((PreemptPriority & (uint32_t)((1UL << (PreemptPriorityBits)) - 1UL)) << SubPriorityBits) |
 8000cb0:	4313      	orrs	r3, r2
         );
}
 8000cb2:	4618      	mov	r0, r3
 8000cb4:	3724      	adds	r7, #36	; 0x24
 8000cb6:	46bd      	mov	sp, r7
 8000cb8:	f85d 7b04 	ldr.w	r7, [sp], #4
 8000cbc:	4770      	bx	lr
	...

08000cc0 <SysTick_Config>:
  \note    When the variable <b>__Vendor_SysTickConfig</b> is set to 1, then the
           function <b>SysTick_Config</b> is not included. In this case, the file <b><i>device</i>.h</b>
           must contain a vendor-specific implementation of this function.
 */
__STATIC_INLINE uint32_t SysTick_Config(uint32_t ticks)
{
 8000cc0:	b580      	push	{r7, lr}
 8000cc2:	b082      	sub	sp, #8
 8000cc4:	af00      	add	r7, sp, #0
 8000cc6:	6078      	str	r0, [r7, #4]
  if ((ticks - 1UL) > SysTick_LOAD_RELOAD_Msk)
 8000cc8:	687b      	ldr	r3, [r7, #4]
 8000cca:	3b01      	subs	r3, #1
 8000ccc:	f1b3 7f80 	cmp.w	r3, #16777216	; 0x1000000
 8000cd0:	d301      	bcc.n	8000cd6 <SysTick_Config+0x16>
  {
    return (1UL);                                                   /* Reload value impossible */
 8000cd2:	2301      	movs	r3, #1
 8000cd4:	e00f      	b.n	8000cf6 <SysTick_Config+0x36>
  }

  SysTick->LOAD  = (uint32_t)(ticks - 1UL);                         /* set reload register */
 8000cd6:	4a0a      	ldr	r2, [pc, #40]	; (8000d00 <SysTick_Config+0x40>)
 8000cd8:	687b      	ldr	r3, [r7, #4]
 8000cda:	3b01      	subs	r3, #1
 8000cdc:	6053      	str	r3, [r2, #4]
  NVIC_SetPriority (SysTick_IRQn, (1UL << __NVIC_PRIO_BITS) - 1UL); /* set Priority for Systick Interrupt */
 8000cde:	210f      	movs	r1, #15
 8000ce0:	f04f 30ff 	mov.w	r0, #4294967295
 8000ce4:	f7ff ff8e 	bl	8000c04 <__NVIC_SetPriority>
  SysTick->VAL   = 0UL;                                             /* Load the SysTick Counter Value */
 8000ce8:	4b05      	ldr	r3, [pc, #20]	; (8000d00 <SysTick_Config+0x40>)
 8000cea:	2200      	movs	r2, #0
 8000cec:	609a      	str	r2, [r3, #8]
  SysTick->CTRL  = SysTick_CTRL_CLKSOURCE_Msk |
 8000cee:	4b04      	ldr	r3, [pc, #16]	; (8000d00 <SysTick_Config+0x40>)
 8000cf0:	2207      	movs	r2, #7
 8000cf2:	601a      	str	r2, [r3, #0]
                   SysTick_CTRL_TICKINT_Msk   |
                   SysTick_CTRL_ENABLE_Msk;                         /* Enable SysTick IRQ and SysTick Timer */
  return (0UL);                                                     /* Function successful */
 8000cf4:	2300      	movs	r3, #0
}
 8000cf6:	4618      	mov	r0, r3
 8000cf8:	3708      	adds	r7, #8
 8000cfa:	46bd      	mov	sp, r7
 8000cfc:	bd80      	pop	{r7, pc}
 8000cfe:	bf00      	nop
 8000d00:	e000e010 	.word	0xe000e010

08000d04 <HAL_NVIC_SetPriorityGrouping>:
  * @note   When the NVIC_PriorityGroup_0 is selected, IRQ preemption is no more possible.
  *         The pending IRQ priority will be managed only by the subpriority.
  * @retval None
  */
void HAL_NVIC_SetPriorityGrouping(uint32_t PriorityGroup)
{
 8000d04:	b580      	push	{r7, lr}
 8000d06:	b082      	sub	sp, #8
 8000d08:	af00      	add	r7, sp, #0
 8000d0a:	6078      	str	r0, [r7, #4]
  /* Check the parameters */
  assert_param(IS_NVIC_PRIORITY_GROUP(PriorityGroup));

  /* Set the PRIGROUP[10:8] bits according to the PriorityGroup parameter value */
  NVIC_SetPriorityGrouping(PriorityGroup);
 8000d0c:	6878      	ldr	r0, [r7, #4]
 8000d0e:	f7ff ff29 	bl	8000b64 <__NVIC_SetPriorityGrouping>
}
 8000d12:	bf00      	nop
 8000d14:	3708      	adds	r7, #8
 8000d16:	46bd      	mov	sp, r7
 8000d18:	bd80      	pop	{r7, pc}

08000d1a <HAL_NVIC_SetPriority>:
  *         This parameter can be a value between 0 and 15
  *         A lower priority value indicates a higher priority.
  * @retval None
  */
void HAL_NVIC_SetPriority(IRQn_Type IRQn, uint32_t PreemptPriority, uint32_t SubPriority)
{
 8000d1a:	b580      	push	{r7, lr}
 8000d1c:	b086      	sub	sp, #24
 8000d1e:	af00      	add	r7, sp, #0
 8000d20:	4603      	mov	r3, r0
 8000d22:	60b9      	str	r1, [r7, #8]
 8000d24:	607a      	str	r2, [r7, #4]
 8000d26:	81fb      	strh	r3, [r7, #14]

  /* Check the parameters */
  assert_param(IS_NVIC_SUB_PRIORITY(SubPriority));
  assert_param(IS_NVIC_PREEMPTION_PRIORITY(PreemptPriority));

  prioritygroup = NVIC_GetPriorityGrouping();
 8000d28:	f7ff ff40 	bl	8000bac <__NVIC_GetPriorityGrouping>
 8000d2c:	6178      	str	r0, [r7, #20]

  NVIC_SetPriority(IRQn, NVIC_EncodePriority(prioritygroup, PreemptPriority, SubPriority));
 8000d2e:	687a      	ldr	r2, [r7, #4]
 8000d30:	68b9      	ldr	r1, [r7, #8]
 8000d32:	6978      	ldr	r0, [r7, #20]
 8000d34:	f7ff ff90 	bl	8000c58 <NVIC_EncodePriority>
 8000d38:	4602      	mov	r2, r0
 8000d3a:	f9b7 300e 	ldrsh.w	r3, [r7, #14]
 8000d3e:	4611      	mov	r1, r2
 8000d40:	4618      	mov	r0, r3
 8000d42:	f7ff ff5f 	bl	8000c04 <__NVIC_SetPriority>
}
 8000d46:	bf00      	nop
 8000d48:	3718      	adds	r7, #24
 8000d4a:	46bd      	mov	sp, r7
 8000d4c:	bd80      	pop	{r7, pc}

08000d4e <HAL_NVIC_EnableIRQ>:
  *         This parameter can be an enumerator of IRQn_Type enumeration
  *         (For the complete STM32 Devices IRQ Channels list, please refer to the appropriate CMSIS device file (stm32h7xxxx.h))
  * @retval None
  */
void HAL_NVIC_EnableIRQ(IRQn_Type IRQn)
{
 8000d4e:	b580      	push	{r7, lr}
 8000d50:	b082      	sub	sp, #8
 8000d52:	af00      	add	r7, sp, #0
 8000d54:	4603      	mov	r3, r0
 8000d56:	80fb      	strh	r3, [r7, #6]
  /* Check the parameters */
  assert_param(IS_NVIC_DEVICE_IRQ(IRQn));

  /* Enable interrupt */
  NVIC_EnableIRQ(IRQn);
 8000d58:	f9b7 3006 	ldrsh.w	r3, [r7, #6]
 8000d5c:	4618      	mov	r0, r3
 8000d5e:	f7ff ff33 	bl	8000bc8 <__NVIC_EnableIRQ>
}
 8000d62:	bf00      	nop
 8000d64:	3708      	adds	r7, #8
 8000d66:	46bd      	mov	sp, r7
 8000d68:	bd80      	pop	{r7, pc}

08000d6a <HAL_SYSTICK_Config>:
  * @param  TicksNumb Specifies the ticks Number of ticks between two interrupts.
  * @retval status   - 0  Function succeeded.
  *                  - 1  Function failed.
  */
uint32_t HAL_SYSTICK_Config(uint32_t TicksNumb)
{
 8000d6a:	b580      	push	{r7, lr}
 8000d6c:	b082      	sub	sp, #8
 8000d6e:	af00      	add	r7, sp, #0
 8000d70:	6078      	str	r0, [r7, #4]
   return SysTick_Config(TicksNumb);
 8000d72:	6878      	ldr	r0, [r7, #4]
 8000d74:	f7ff ffa4 	bl	8000cc0 <SysTick_Config>
 8000d78:	4603      	mov	r3, r0
}
 8000d7a:	4618      	mov	r0, r3
 8000d7c:	3708      	adds	r7, #8
 8000d7e:	46bd      	mov	sp, r7
 8000d80:	bd80      	pop	{r7, pc}
	...

08000d84 <HAL_FDCAN_Init>:
  * @param  hfdcan pointer to an FDCAN_HandleTypeDef structure that contains
  *         the configuration information for the specified FDCAN.
  * @retval HAL status
  */
HAL_StatusTypeDef HAL_FDCAN_Init(FDCAN_HandleTypeDef *hfdcan)
{
 8000d84:	b580      	push	{r7, lr}
 8000d86:	b098      	sub	sp, #96	; 0x60
 8000d88:	af00      	add	r7, sp, #0
 8000d8a:	6078      	str	r0, [r7, #4]
  uint32_t tickstart;
  HAL_StatusTypeDef status;
  const uint32_t CvtEltSize[] = {0, 0, 0, 0, 0, 1, 2, 3, 4, 0, 5, 0, 0, 0, 6, 0, 0, 0, 7};
 8000d8c:	4a84      	ldr	r2, [pc, #528]	; (8000fa0 <HAL_FDCAN_Init+0x21c>)
 8000d8e:	f107 030c 	add.w	r3, r7, #12
 8000d92:	4611      	mov	r1, r2
 8000d94:	224c      	movs	r2, #76	; 0x4c
 8000d96:	4618      	mov	r0, r3
 8000d98:	f003 fbd8 	bl	800454c <memcpy>

  /* Check FDCAN handle */
  if (hfdcan == NULL)
 8000d9c:	687b      	ldr	r3, [r7, #4]
 8000d9e:	2b00      	cmp	r3, #0
 8000da0:	d101      	bne.n	8000da6 <HAL_FDCAN_Init+0x22>
  {
    return HAL_ERROR;
 8000da2:	2301      	movs	r3, #1
 8000da4:	e1ca      	b.n	800113c <HAL_FDCAN_Init+0x3b8>
  }

  /* Check FDCAN instance */
  if (hfdcan->Instance == FDCAN1)
 8000da6:	687b      	ldr	r3, [r7, #4]
 8000da8:	681b      	ldr	r3, [r3, #0]
 8000daa:	4a7e      	ldr	r2, [pc, #504]	; (8000fa4 <HAL_FDCAN_Init+0x220>)
 8000dac:	4293      	cmp	r3, r2
 8000dae:	d106      	bne.n	8000dbe <HAL_FDCAN_Init+0x3a>
  {
    hfdcan->ttcan = (TTCAN_TypeDef *)((uint32_t)hfdcan->Instance + 0x100U);
 8000db0:	687b      	ldr	r3, [r7, #4]
 8000db2:	681b      	ldr	r3, [r3, #0]
 8000db4:	f503 7380 	add.w	r3, r3, #256	; 0x100
 8000db8:	461a      	mov	r2, r3
 8000dba:	687b      	ldr	r3, [r7, #4]
 8000dbc:	605a      	str	r2, [r3, #4]

    /* Init the low level hardware: CLOCK, NVIC */
    hfdcan->MspInitCallback(hfdcan);
  }
#else
  if (hfdcan->State == HAL_FDCAN_STATE_RESET)
 8000dbe:	687b      	ldr	r3, [r7, #4]
 8000dc0:	f893 3098 	ldrb.w	r3, [r3, #152]	; 0x98
 8000dc4:	b2db      	uxtb	r3, r3
 8000dc6:	2b00      	cmp	r3, #0
 8000dc8:	d106      	bne.n	8000dd8 <HAL_FDCAN_Init+0x54>
  {
    /* Allocate lock resource and initialize it */
    hfdcan->Lock = HAL_UNLOCKED;
 8000dca:	687b      	ldr	r3, [r7, #4]
 8000dcc:	2200      	movs	r2, #0
 8000dce:	f883 2099 	strb.w	r2, [r3, #153]	; 0x99

    /* Init the low level hardware: CLOCK, NVIC */
    HAL_FDCAN_MspInit(hfdcan);
 8000dd2:	6878      	ldr	r0, [r7, #4]
 8000dd4:	f7ff fae4 	bl	80003a0 <HAL_FDCAN_MspInit>
  }
#endif /* USE_HAL_FDCAN_REGISTER_CALLBACKS */

  /* Exit from Sleep mode */
  CLEAR_BIT(hfdcan->Instance->CCCR, FDCAN_CCCR_CSR);
 8000dd8:	687b      	ldr	r3, [r7, #4]
 8000dda:	681b      	ldr	r3, [r3, #0]
 8000ddc:	699a      	ldr	r2, [r3, #24]
 8000dde:	687b      	ldr	r3, [r7, #4]
 8000de0:	681b      	ldr	r3, [r3, #0]
 8000de2:	f022 0210 	bic.w	r2, r2, #16
 8000de6:	619a      	str	r2, [r3, #24]

  /* Get tick */
  tickstart = HAL_GetTick();
 8000de8:	f7ff fe80 	bl	8000aec <HAL_GetTick>
 8000dec:	65f8      	str	r0, [r7, #92]	; 0x5c

  /* Check Sleep mode acknowledge */
  while ((hfdcan->Instance->CCCR & FDCAN_CCCR_CSA) == FDCAN_CCCR_CSA)
 8000dee:	e014      	b.n	8000e1a <HAL_FDCAN_Init+0x96>
  {
    if ((HAL_GetTick() - tickstart) > FDCAN_TIMEOUT_VALUE)
 8000df0:	f7ff fe7c 	bl	8000aec <HAL_GetTick>
 8000df4:	4602      	mov	r2, r0
 8000df6:	6dfb      	ldr	r3, [r7, #92]	; 0x5c
 8000df8:	1ad3      	subs	r3, r2, r3
 8000dfa:	2b0a      	cmp	r3, #10
 8000dfc:	d90d      	bls.n	8000e1a <HAL_FDCAN_Init+0x96>
    {
      /* Update error code */
      hfdcan->ErrorCode |= HAL_FDCAN_ERROR_TIMEOUT;
 8000dfe:	687b      	ldr	r3, [r7, #4]
 8000e00:	f8d3 309c 	ldr.w	r3, [r3, #156]	; 0x9c
 8000e04:	f043 0201 	orr.w	r2, r3, #1
 8000e08:	687b      	ldr	r3, [r7, #4]
 8000e0a:	f8c3 209c 	str.w	r2, [r3, #156]	; 0x9c

      /* Change FDCAN state */
      hfdcan->State = HAL_FDCAN_STATE_ERROR;
 8000e0e:	687b      	ldr	r3, [r7, #4]
 8000e10:	2203      	movs	r2, #3
 8000e12:	f883 2098 	strb.w	r2, [r3, #152]	; 0x98

      return HAL_ERROR;
 8000e16:	2301      	movs	r3, #1
 8000e18:	e190      	b.n	800113c <HAL_FDCAN_Init+0x3b8>
  while ((hfdcan->Instance->CCCR & FDCAN_CCCR_CSA) == FDCAN_CCCR_CSA)
 8000e1a:	687b      	ldr	r3, [r7, #4]
 8000e1c:	681b      	ldr	r3, [r3, #0]
 8000e1e:	699b      	ldr	r3, [r3, #24]
 8000e20:	f003 0308 	and.w	r3, r3, #8
 8000e24:	2b08      	cmp	r3, #8
 8000e26:	d0e3      	beq.n	8000df0 <HAL_FDCAN_Init+0x6c>
    }
  }

  /* Request initialisation */
  SET_BIT(hfdcan->Instance->CCCR, FDCAN_CCCR_INIT);
 8000e28:	687b      	ldr	r3, [r7, #4]
 8000e2a:	681b      	ldr	r3, [r3, #0]
 8000e2c:	699a      	ldr	r2, [r3, #24]
 8000e2e:	687b      	ldr	r3, [r7, #4]
 8000e30:	681b      	ldr	r3, [r3, #0]
 8000e32:	f042 0201 	orr.w	r2, r2, #1
 8000e36:	619a      	str	r2, [r3, #24]

  /* Get tick */
  tickstart = HAL_GetTick();
 8000e38:	f7ff fe58 	bl	8000aec <HAL_GetTick>
 8000e3c:	65f8      	str	r0, [r7, #92]	; 0x5c

  /* Wait until the INIT bit into CCCR register is set */
  while ((hfdcan->Instance->CCCR & FDCAN_CCCR_INIT) == 0U)
 8000e3e:	e014      	b.n	8000e6a <HAL_FDCAN_Init+0xe6>
  {
    /* Check for the Timeout */
    if ((HAL_GetTick() - tickstart) > FDCAN_TIMEOUT_VALUE)
 8000e40:	f7ff fe54 	bl	8000aec <HAL_GetTick>
 8000e44:	4602      	mov	r2, r0
 8000e46:	6dfb      	ldr	r3, [r7, #92]	; 0x5c
 8000e48:	1ad3      	subs	r3, r2, r3
 8000e4a:	2b0a      	cmp	r3, #10
 8000e4c:	d90d      	bls.n	8000e6a <HAL_FDCAN_Init+0xe6>
    {
      /* Update error code */
      hfdcan->ErrorCode |= HAL_FDCAN_ERROR_TIMEOUT;
 8000e4e:	687b      	ldr	r3, [r7, #4]
 8000e50:	f8d3 309c 	ldr.w	r3, [r3, #156]	; 0x9c
 8000e54:	f043 0201 	orr.w	r2, r3, #1
 8000e58:	687b      	ldr	r3, [r7, #4]
 8000e5a:	f8c3 209c 	str.w	r2, [r3, #156]	; 0x9c

      /* Change FDCAN state */
      hfdcan->State = HAL_FDCAN_STATE_ERROR;
 8000e5e:	687b      	ldr	r3, [r7, #4]
 8000e60:	2203      	movs	r2, #3
 8000e62:	f883 2098 	strb.w	r2, [r3, #152]	; 0x98

      return HAL_ERROR;
 8000e66:	2301      	movs	r3, #1
 8000e68:	e168      	b.n	800113c <HAL_FDCAN_Init+0x3b8>
  while ((hfdcan->Instance->CCCR & FDCAN_CCCR_INIT) == 0U)
 8000e6a:	687b      	ldr	r3, [r7, #4]
 8000e6c:	681b      	ldr	r3, [r3, #0]
 8000e6e:	699b      	ldr	r3, [r3, #24]
 8000e70:	f003 0301 	and.w	r3, r3, #1
 8000e74:	2b00      	cmp	r3, #0
 8000e76:	d0e3      	beq.n	8000e40 <HAL_FDCAN_Init+0xbc>
    }
  }

  /* Enable configuration change */
  SET_BIT(hfdcan->Instance->CCCR, FDCAN_CCCR_CCE);
 8000e78:	687b      	ldr	r3, [r7, #4]
 8000e7a:	681b      	ldr	r3, [r3, #0]
 8000e7c:	699a      	ldr	r2, [r3, #24]
 8000e7e:	687b      	ldr	r3, [r7, #4]
 8000e80:	681b      	ldr	r3, [r3, #0]
 8000e82:	f042 0202 	orr.w	r2, r2, #2
 8000e86:	619a      	str	r2, [r3, #24]

  /* Set the no automatic retransmission */
  if (hfdcan->Init.AutoRetransmission == ENABLE)
 8000e88:	687b      	ldr	r3, [r7, #4]
 8000e8a:	7c1b      	ldrb	r3, [r3, #16]
 8000e8c:	2b01      	cmp	r3, #1
 8000e8e:	d108      	bne.n	8000ea2 <HAL_FDCAN_Init+0x11e>
  {
    CLEAR_BIT(hfdcan->Instance->CCCR, FDCAN_CCCR_DAR);
 8000e90:	687b      	ldr	r3, [r7, #4]
 8000e92:	681b      	ldr	r3, [r3, #0]
 8000e94:	699a      	ldr	r2, [r3, #24]
 8000e96:	687b      	ldr	r3, [r7, #4]
 8000e98:	681b      	ldr	r3, [r3, #0]
 8000e9a:	f022 0240 	bic.w	r2, r2, #64	; 0x40
 8000e9e:	619a      	str	r2, [r3, #24]
 8000ea0:	e007      	b.n	8000eb2 <HAL_FDCAN_Init+0x12e>
  }
  else
  {
    SET_BIT(hfdcan->Instance->CCCR, FDCAN_CCCR_DAR);
 8000ea2:	687b      	ldr	r3, [r7, #4]
 8000ea4:	681b      	ldr	r3, [r3, #0]
 8000ea6:	699a      	ldr	r2, [r3, #24]
 8000ea8:	687b      	ldr	r3, [r7, #4]
 8000eaa:	681b      	ldr	r3, [r3, #0]
 8000eac:	f042 0240 	orr.w	r2, r2, #64	; 0x40
 8000eb0:	619a      	str	r2, [r3, #24]
  }

  /* Set the transmit pause feature */
  if (hfdcan->Init.TransmitPause == ENABLE)
 8000eb2:	687b      	ldr	r3, [r7, #4]
 8000eb4:	7c5b      	ldrb	r3, [r3, #17]
 8000eb6:	2b01      	cmp	r3, #1
 8000eb8:	d108      	bne.n	8000ecc <HAL_FDCAN_Init+0x148>
  {
    SET_BIT(hfdcan->Instance->CCCR, FDCAN_CCCR_TXP);
 8000eba:	687b      	ldr	r3, [r7, #4]
 8000ebc:	681b      	ldr	r3, [r3, #0]
 8000ebe:	699a      	ldr	r2, [r3, #24]
 8000ec0:	687b      	ldr	r3, [r7, #4]
 8000ec2:	681b      	ldr	r3, [r3, #0]
 8000ec4:	f442 4280 	orr.w	r2, r2, #16384	; 0x4000
 8000ec8:	619a      	str	r2, [r3, #24]
 8000eca:	e007      	b.n	8000edc <HAL_FDCAN_Init+0x158>
  }
  else
  {
    CLEAR_BIT(hfdcan->Instance->CCCR, FDCAN_CCCR_TXP);
 8000ecc:	687b      	ldr	r3, [r7, #4]
 8000ece:	681b      	ldr	r3, [r3, #0]
 8000ed0:	699a      	ldr	r2, [r3, #24]
 8000ed2:	687b      	ldr	r3, [r7, #4]
 8000ed4:	681b      	ldr	r3, [r3, #0]
 8000ed6:	f422 4280 	bic.w	r2, r2, #16384	; 0x4000
 8000eda:	619a      	str	r2, [r3, #24]
  }

  /* Set the Protocol Exception Handling */
  if (hfdcan->Init.ProtocolException == ENABLE)
 8000edc:	687b      	ldr	r3, [r7, #4]
 8000ede:	7c9b      	ldrb	r3, [r3, #18]
 8000ee0:	2b01      	cmp	r3, #1
 8000ee2:	d108      	bne.n	8000ef6 <HAL_FDCAN_Init+0x172>
  {
    CLEAR_BIT(hfdcan->Instance->CCCR, FDCAN_CCCR_PXHD);
 8000ee4:	687b      	ldr	r3, [r7, #4]
 8000ee6:	681b      	ldr	r3, [r3, #0]
 8000ee8:	699a      	ldr	r2, [r3, #24]
 8000eea:	687b      	ldr	r3, [r7, #4]
 8000eec:	681b      	ldr	r3, [r3, #0]
 8000eee:	f422 5280 	bic.w	r2, r2, #4096	; 0x1000
 8000ef2:	619a      	str	r2, [r3, #24]
 8000ef4:	e007      	b.n	8000f06 <HAL_FDCAN_Init+0x182>
  }
  else
  {
    SET_BIT(hfdcan->Instance->CCCR, FDCAN_CCCR_PXHD);
 8000ef6:	687b      	ldr	r3, [r7, #4]
 8000ef8:	681b      	ldr	r3, [r3, #0]
 8000efa:	699a      	ldr	r2, [r3, #24]
 8000efc:	687b      	ldr	r3, [r7, #4]
 8000efe:	681b      	ldr	r3, [r3, #0]
 8000f00:	f442 5280 	orr.w	r2, r2, #4096	; 0x1000
 8000f04:	619a      	str	r2, [r3, #24]
  }

  /* Set FDCAN Frame Format */
  MODIFY_REG(hfdcan->Instance->CCCR, FDCAN_FRAME_FD_BRS, hfdcan->Init.FrameFormat);
 8000f06:	687b      	ldr	r3, [r7, #4]
 8000f08:	681b      	ldr	r3, [r3, #0]
 8000f0a:	699b      	ldr	r3, [r3, #24]
 8000f0c:	f423 7140 	bic.w	r1, r3, #768	; 0x300
 8000f10:	687b      	ldr	r3, [r7, #4]
 8000f12:	689a      	ldr	r2, [r3, #8]
 8000f14:	687b      	ldr	r3, [r7, #4]
 8000f16:	681b      	ldr	r3, [r3, #0]
 8000f18:	430a      	orrs	r2, r1
 8000f1a:	619a      	str	r2, [r3, #24]

  /* Reset FDCAN Operation Mode */
  CLEAR_BIT(hfdcan->Instance->CCCR, (FDCAN_CCCR_TEST | FDCAN_CCCR_MON | FDCAN_CCCR_ASM));
 8000f1c:	687b      	ldr	r3, [r7, #4]
 8000f1e:	681b      	ldr	r3, [r3, #0]
 8000f20:	699a      	ldr	r2, [r3, #24]
 8000f22:	687b      	ldr	r3, [r7, #4]
 8000f24:	681b      	ldr	r3, [r3, #0]
 8000f26:	f022 02a4 	bic.w	r2, r2, #164	; 0xa4
 8000f2a:	619a      	str	r2, [r3, #24]
  CLEAR_BIT(hfdcan->Instance->TEST, FDCAN_TEST_LBCK);
 8000f2c:	687b      	ldr	r3, [r7, #4]
 8000f2e:	681b      	ldr	r3, [r3, #0]
 8000f30:	691a      	ldr	r2, [r3, #16]
 8000f32:	687b      	ldr	r3, [r7, #4]
 8000f34:	681b      	ldr	r3, [r3, #0]
 8000f36:	f022 0210 	bic.w	r2, r2, #16
 8000f3a:	611a      	str	r2, [r3, #16]
     CCCR.TEST |   0    |     0      |     0      |    1     |    1
     CCCR.MON  |   0    |     0      |     1      |    1     |    0
     TEST.LBCK |   0    |     0      |     0      |    1     |    1
     CCCR.ASM  |   0    |     1      |     0      |    0     |    0
  */
  if (hfdcan->Init.Mode == FDCAN_MODE_RESTRICTED_OPERATION)
 8000f3c:	687b      	ldr	r3, [r7, #4]
 8000f3e:	68db      	ldr	r3, [r3, #12]
 8000f40:	2b01      	cmp	r3, #1
 8000f42:	d108      	bne.n	8000f56 <HAL_FDCAN_Init+0x1d2>
  {
    /* Enable Restricted Operation mode */
    SET_BIT(hfdcan->Instance->CCCR, FDCAN_CCCR_ASM);
 8000f44:	687b      	ldr	r3, [r7, #4]
 8000f46:	681b      	ldr	r3, [r3, #0]
 8000f48:	699a      	ldr	r2, [r3, #24]
 8000f4a:	687b      	ldr	r3, [r7, #4]
 8000f4c:	681b      	ldr	r3, [r3, #0]
 8000f4e:	f042 0204 	orr.w	r2, r2, #4
 8000f52:	619a      	str	r2, [r3, #24]
 8000f54:	e030      	b.n	8000fb8 <HAL_FDCAN_Init+0x234>
  }
  else if (hfdcan->Init.Mode != FDCAN_MODE_NORMAL)
 8000f56:	687b      	ldr	r3, [r7, #4]
 8000f58:	68db      	ldr	r3, [r3, #12]
 8000f5a:	2b00      	cmp	r3, #0
 8000f5c:	d02c      	beq.n	8000fb8 <HAL_FDCAN_Init+0x234>
  {
    if (hfdcan->Init.Mode != FDCAN_MODE_BUS_MONITORING)
 8000f5e:	687b      	ldr	r3, [r7, #4]
 8000f60:	68db      	ldr	r3, [r3, #12]
 8000f62:	2b02      	cmp	r3, #2
 8000f64:	d020      	beq.n	8000fa8 <HAL_FDCAN_Init+0x224>
    {
      /* Enable write access to TEST register */
      SET_BIT(hfdcan->Instance->CCCR, FDCAN_CCCR_TEST);
 8000f66:	687b      	ldr	r3, [r7, #4]
 8000f68:	681b      	ldr	r3, [r3, #0]
 8000f6a:	699a      	ldr	r2, [r3, #24]
 8000f6c:	687b      	ldr	r3, [r7, #4]
 8000f6e:	681b      	ldr	r3, [r3, #0]
 8000f70:	f042 0280 	orr.w	r2, r2, #128	; 0x80
 8000f74:	619a      	str	r2, [r3, #24]

      /* Enable LoopBack mode */
      SET_BIT(hfdcan->Instance->TEST, FDCAN_TEST_LBCK);
 8000f76:	687b      	ldr	r3, [r7, #4]
 8000f78:	681b      	ldr	r3, [r3, #0]
 8000f7a:	691a      	ldr	r2, [r3, #16]
 8000f7c:	687b      	ldr	r3, [r7, #4]
 8000f7e:	681b      	ldr	r3, [r3, #0]
 8000f80:	f042 0210 	orr.w	r2, r2, #16
 8000f84:	611a      	str	r2, [r3, #16]

      if (hfdcan->Init.Mode == FDCAN_MODE_INTERNAL_LOOPBACK)
 8000f86:	687b      	ldr	r3, [r7, #4]
 8000f88:	68db      	ldr	r3, [r3, #12]
 8000f8a:	2b03      	cmp	r3, #3
 8000f8c:	d114      	bne.n	8000fb8 <HAL_FDCAN_Init+0x234>
      {
        SET_BIT(hfdcan->Instance->CCCR, FDCAN_CCCR_MON);
 8000f8e:	687b      	ldr	r3, [r7, #4]
 8000f90:	681b      	ldr	r3, [r3, #0]
 8000f92:	699a      	ldr	r2, [r3, #24]
 8000f94:	687b      	ldr	r3, [r7, #4]
 8000f96:	681b      	ldr	r3, [r3, #0]
 8000f98:	f042 0220 	orr.w	r2, r2, #32
 8000f9c:	619a      	str	r2, [r3, #24]
 8000f9e:	e00b      	b.n	8000fb8 <HAL_FDCAN_Init+0x234>
 8000fa0:	08004590 	.word	0x08004590
 8000fa4:	4000a000 	.word	0x4000a000
      }
    }
    else
    {
      /* Enable bus monitoring mode */
      SET_BIT(hfdcan->Instance->CCCR, FDCAN_CCCR_MON);
 8000fa8:	687b      	ldr	r3, [r7, #4]
 8000faa:	681b      	ldr	r3, [r3, #0]
 8000fac:	699a      	ldr	r2, [r3, #24]
 8000fae:	687b      	ldr	r3, [r7, #4]
 8000fb0:	681b      	ldr	r3, [r3, #0]
 8000fb2:	f042 0220 	orr.w	r2, r2, #32
 8000fb6:	619a      	str	r2, [r3, #24]
  {
    /* Nothing to do: normal mode */
  }

  /* Set the nominal bit timing register */
  hfdcan->Instance->NBTP = ((((uint32_t)hfdcan->Init.NominalSyncJumpWidth - 1U) << FDCAN_NBTP_NSJW_Pos) | \
 8000fb8:	687b      	ldr	r3, [r7, #4]
 8000fba:	699b      	ldr	r3, [r3, #24]
 8000fbc:	3b01      	subs	r3, #1
 8000fbe:	065a      	lsls	r2, r3, #25
                            (((uint32_t)hfdcan->Init.NominalTimeSeg1 - 1U) << FDCAN_NBTP_NTSEG1_Pos)    | \
 8000fc0:	687b      	ldr	r3, [r7, #4]
 8000fc2:	69db      	ldr	r3, [r3, #28]
 8000fc4:	3b01      	subs	r3, #1
 8000fc6:	021b      	lsls	r3, r3, #8
  hfdcan->Instance->NBTP = ((((uint32_t)hfdcan->Init.NominalSyncJumpWidth - 1U) << FDCAN_NBTP_NSJW_Pos) | \
 8000fc8:	431a      	orrs	r2, r3
                            (((uint32_t)hfdcan->Init.NominalTimeSeg2 - 1U) << FDCAN_NBTP_NTSEG2_Pos)    | \
 8000fca:	687b      	ldr	r3, [r7, #4]
 8000fcc:	6a1b      	ldr	r3, [r3, #32]
 8000fce:	3b01      	subs	r3, #1
                            (((uint32_t)hfdcan->Init.NominalTimeSeg1 - 1U) << FDCAN_NBTP_NTSEG1_Pos)    | \
 8000fd0:	ea42 0103 	orr.w	r1, r2, r3
                            (((uint32_t)hfdcan->Init.NominalPrescaler - 1U) << FDCAN_NBTP_NBRP_Pos));
 8000fd4:	687b      	ldr	r3, [r7, #4]
 8000fd6:	695b      	ldr	r3, [r3, #20]
 8000fd8:	3b01      	subs	r3, #1
 8000fda:	041a      	lsls	r2, r3, #16
  hfdcan->Instance->NBTP = ((((uint32_t)hfdcan->Init.NominalSyncJumpWidth - 1U) << FDCAN_NBTP_NSJW_Pos) | \
 8000fdc:	687b      	ldr	r3, [r7, #4]
 8000fde:	681b      	ldr	r3, [r3, #0]
                            (((uint32_t)hfdcan->Init.NominalTimeSeg2 - 1U) << FDCAN_NBTP_NTSEG2_Pos)    | \
 8000fe0:	430a      	orrs	r2, r1
  hfdcan->Instance->NBTP = ((((uint32_t)hfdcan->Init.NominalSyncJumpWidth - 1U) << FDCAN_NBTP_NSJW_Pos) | \
 8000fe2:	61da      	str	r2, [r3, #28]

  /* If FD operation with BRS is selected, set the data bit timing register */
  if (hfdcan->Init.FrameFormat == FDCAN_FRAME_FD_BRS)
 8000fe4:	687b      	ldr	r3, [r7, #4]
 8000fe6:	689b      	ldr	r3, [r3, #8]
 8000fe8:	f5b3 7f40 	cmp.w	r3, #768	; 0x300
 8000fec:	d115      	bne.n	800101a <HAL_FDCAN_Init+0x296>
  {
    hfdcan->Instance->DBTP = ((((uint32_t)hfdcan->Init.DataSyncJumpWidth - 1U) << FDCAN_DBTP_DSJW_Pos) | \
 8000fee:	687b      	ldr	r3, [r7, #4]
 8000ff0:	6a9b      	ldr	r3, [r3, #40]	; 0x28
 8000ff2:	1e5a      	subs	r2, r3, #1
                              (((uint32_t)hfdcan->Init.DataTimeSeg1 - 1U) << FDCAN_DBTP_DTSEG1_Pos)    | \
 8000ff4:	687b      	ldr	r3, [r7, #4]
 8000ff6:	6adb      	ldr	r3, [r3, #44]	; 0x2c
 8000ff8:	3b01      	subs	r3, #1
 8000ffa:	021b      	lsls	r3, r3, #8
    hfdcan->Instance->DBTP = ((((uint32_t)hfdcan->Init.DataSyncJumpWidth - 1U) << FDCAN_DBTP_DSJW_Pos) | \
 8000ffc:	431a      	orrs	r2, r3
                              (((uint32_t)hfdcan->Init.DataTimeSeg2 - 1U) << FDCAN_DBTP_DTSEG2_Pos)    | \
 8000ffe:	687b      	ldr	r3, [r7, #4]
 8001000:	6b1b      	ldr	r3, [r3, #48]	; 0x30
 8001002:	3b01      	subs	r3, #1
 8001004:	011b      	lsls	r3, r3, #4
                              (((uint32_t)hfdcan->Init.DataTimeSeg1 - 1U) << FDCAN_DBTP_DTSEG1_Pos)    | \
 8001006:	ea42 0103 	orr.w	r1, r2, r3
                              (((uint32_t)hfdcan->Init.DataPrescaler - 1U) << FDCAN_DBTP_DBRP_Pos));
 800100a:	687b      	ldr	r3, [r7, #4]
 800100c:	6a5b      	ldr	r3, [r3, #36]	; 0x24
 800100e:	3b01      	subs	r3, #1
 8001010:	041a      	lsls	r2, r3, #16
    hfdcan->Instance->DBTP = ((((uint32_t)hfdcan->Init.DataSyncJumpWidth - 1U) << FDCAN_DBTP_DSJW_Pos) | \
 8001012:	687b      	ldr	r3, [r7, #4]
 8001014:	681b      	ldr	r3, [r3, #0]
                              (((uint32_t)hfdcan->Init.DataTimeSeg2 - 1U) << FDCAN_DBTP_DTSEG2_Pos)    | \
 8001016:	430a      	orrs	r2, r1
    hfdcan->Instance->DBTP = ((((uint32_t)hfdcan->Init.DataSyncJumpWidth - 1U) << FDCAN_DBTP_DSJW_Pos) | \
 8001018:	60da      	str	r2, [r3, #12]
  }

  if (hfdcan->Init.TxFifoQueueElmtsNbr > 0U)
 800101a:	687b      	ldr	r3, [r7, #4]
 800101c:	6e1b      	ldr	r3, [r3, #96]	; 0x60
 800101e:	2b00      	cmp	r3, #0
 8001020:	d00a      	beq.n	8001038 <HAL_FDCAN_Init+0x2b4>
  {
    /* Select between Tx FIFO and Tx Queue operation modes */
    SET_BIT(hfdcan->Instance->TXBC, hfdcan->Init.TxFifoQueueMode);
 8001022:	687b      	ldr	r3, [r7, #4]
 8001024:	681b      	ldr	r3, [r3, #0]
 8001026:	f8d3 10c0 	ldr.w	r1, [r3, #192]	; 0xc0
 800102a:	687b      	ldr	r3, [r7, #4]
 800102c:	6e5a      	ldr	r2, [r3, #100]	; 0x64
 800102e:	687b      	ldr	r3, [r7, #4]
 8001030:	681b      	ldr	r3, [r3, #0]
 8001032:	430a      	orrs	r2, r1
 8001034:	f8c3 20c0 	str.w	r2, [r3, #192]	; 0xc0
  }

  /* Configure Tx element size */
  if ((hfdcan->Init.TxBuffersNbr + hfdcan->Init.TxFifoQueueElmtsNbr) > 0U)
 8001038:	687b      	ldr	r3, [r7, #4]
 800103a:	6dda      	ldr	r2, [r3, #92]	; 0x5c
 800103c:	687b      	ldr	r3, [r7, #4]
 800103e:	6e1b      	ldr	r3, [r3, #96]	; 0x60
 8001040:	4413      	add	r3, r2
 8001042:	2b00      	cmp	r3, #0
 8001044:	d012      	beq.n	800106c <HAL_FDCAN_Init+0x2e8>
  {
    MODIFY_REG(hfdcan->Instance->TXESC, FDCAN_TXESC_TBDS, CvtEltSize[hfdcan->Init.TxElmtSize]);
 8001046:	687b      	ldr	r3, [r7, #4]
 8001048:	681b      	ldr	r3, [r3, #0]
 800104a:	f8d3 30c8 	ldr.w	r3, [r3, #200]	; 0xc8
 800104e:	f023 0107 	bic.w	r1, r3, #7
 8001052:	687b      	ldr	r3, [r7, #4]
 8001054:	6e9b      	ldr	r3, [r3, #104]	; 0x68
 8001056:	009b      	lsls	r3, r3, #2
 8001058:	f107 0260 	add.w	r2, r7, #96	; 0x60
 800105c:	4413      	add	r3, r2
 800105e:	f853 2c54 	ldr.w	r2, [r3, #-84]
 8001062:	687b      	ldr	r3, [r7, #4]
 8001064:	681b      	ldr	r3, [r3, #0]
 8001066:	430a      	orrs	r2, r1
 8001068:	f8c3 20c8 	str.w	r2, [r3, #200]	; 0xc8
  }

  /* Configure Rx FIFO 0 element size */
  if (hfdcan->Init.RxFifo0ElmtsNbr > 0U)
 800106c:	687b      	ldr	r3, [r7, #4]
 800106e:	6c1b      	ldr	r3, [r3, #64]	; 0x40
 8001070:	2b00      	cmp	r3, #0
 8001072:	d012      	beq.n	800109a <HAL_FDCAN_Init+0x316>
  {
    MODIFY_REG(hfdcan->Instance->RXESC, FDCAN_RXESC_F0DS, (CvtEltSize[hfdcan->Init.RxFifo0ElmtSize] << FDCAN_RXESC_F0DS_Pos));
 8001074:	687b      	ldr	r3, [r7, #4]
 8001076:	681b      	ldr	r3, [r3, #0]
 8001078:	f8d3 30bc 	ldr.w	r3, [r3, #188]	; 0xbc
 800107c:	f023 0107 	bic.w	r1, r3, #7
 8001080:	687b      	ldr	r3, [r7, #4]
 8001082:	6c5b      	ldr	r3, [r3, #68]	; 0x44
 8001084:	009b      	lsls	r3, r3, #2
 8001086:	f107 0260 	add.w	r2, r7, #96	; 0x60
 800108a:	4413      	add	r3, r2
 800108c:	f853 2c54 	ldr.w	r2, [r3, #-84]
 8001090:	687b      	ldr	r3, [r7, #4]
 8001092:	681b      	ldr	r3, [r3, #0]
 8001094:	430a      	orrs	r2, r1
 8001096:	f8c3 20bc 	str.w	r2, [r3, #188]	; 0xbc
  }

  /* Configure Rx FIFO 1 element size */
  if (hfdcan->Init.RxFifo1ElmtsNbr > 0U)
 800109a:	687b      	ldr	r3, [r7, #4]
 800109c:	6c9b      	ldr	r3, [r3, #72]	; 0x48
 800109e:	2b00      	cmp	r3, #0
 80010a0:	d013      	beq.n	80010ca <HAL_FDCAN_Init+0x346>
  {
    MODIFY_REG(hfdcan->Instance->RXESC, FDCAN_RXESC_F1DS, (CvtEltSize[hfdcan->Init.RxFifo1ElmtSize] << FDCAN_RXESC_F1DS_Pos));
 80010a2:	687b      	ldr	r3, [r7, #4]
 80010a4:	681b      	ldr	r3, [r3, #0]
 80010a6:	f8d3 30bc 	ldr.w	r3, [r3, #188]	; 0xbc
 80010aa:	f023 0170 	bic.w	r1, r3, #112	; 0x70
 80010ae:	687b      	ldr	r3, [r7, #4]
 80010b0:	6cdb      	ldr	r3, [r3, #76]	; 0x4c
 80010b2:	009b      	lsls	r3, r3, #2
 80010b4:	f107 0260 	add.w	r2, r7, #96	; 0x60
 80010b8:	4413      	add	r3, r2
 80010ba:	f853 3c54 	ldr.w	r3, [r3, #-84]
 80010be:	011a      	lsls	r2, r3, #4
 80010c0:	687b      	ldr	r3, [r7, #4]
 80010c2:	681b      	ldr	r3, [r3, #0]
 80010c4:	430a      	orrs	r2, r1
 80010c6:	f8c3 20bc 	str.w	r2, [r3, #188]	; 0xbc
  }

  /* Configure Rx buffer element size */
  if (hfdcan->Init.RxBuffersNbr > 0U)
 80010ca:	687b      	ldr	r3, [r7, #4]
 80010cc:	6d1b      	ldr	r3, [r3, #80]	; 0x50
 80010ce:	2b00      	cmp	r3, #0
 80010d0:	d013      	beq.n	80010fa <HAL_FDCAN_Init+0x376>
  {
    MODIFY_REG(hfdcan->Instance->RXESC, FDCAN_RXESC_RBDS, (CvtEltSize[hfdcan->Init.RxBufferSize] << FDCAN_RXESC_RBDS_Pos));
 80010d2:	687b      	ldr	r3, [r7, #4]
 80010d4:	681b      	ldr	r3, [r3, #0]
 80010d6:	f8d3 30bc 	ldr.w	r3, [r3, #188]	; 0xbc
 80010da:	f423 61e0 	bic.w	r1, r3, #1792	; 0x700
 80010de:	687b      	ldr	r3, [r7, #4]
 80010e0:	6d5b      	ldr	r3, [r3, #84]	; 0x54
 80010e2:	009b      	lsls	r3, r3, #2
 80010e4:	f107 0260 	add.w	r2, r7, #96	; 0x60
 80010e8:	4413      	add	r3, r2
 80010ea:	f853 3c54 	ldr.w	r3, [r3, #-84]
 80010ee:	021a      	lsls	r2, r3, #8
 80010f0:	687b      	ldr	r3, [r7, #4]
 80010f2:	681b      	ldr	r3, [r3, #0]
 80010f4:	430a      	orrs	r2, r1
 80010f6:	f8c3 20bc 	str.w	r2, [r3, #188]	; 0xbc
  }

  /* By default operation mode is set to Event-driven communication.
     If Time-triggered communication is needed, user should call the
     HAL_FDCAN_TT_ConfigOperation function just after the HAL_FDCAN_Init */
  if (hfdcan->Instance == FDCAN1)
 80010fa:	687b      	ldr	r3, [r7, #4]
 80010fc:	681b      	ldr	r3, [r3, #0]
 80010fe:	4a11      	ldr	r2, [pc, #68]	; (8001144 <HAL_FDCAN_Init+0x3c0>)
 8001100:	4293      	cmp	r3, r2
 8001102:	d107      	bne.n	8001114 <HAL_FDCAN_Init+0x390>
  {
    CLEAR_BIT(hfdcan->ttcan->TTOCF, FDCAN_TTOCF_OM);
 8001104:	687b      	ldr	r3, [r7, #4]
 8001106:	685b      	ldr	r3, [r3, #4]
 8001108:	689a      	ldr	r2, [r3, #8]
 800110a:	687b      	ldr	r3, [r7, #4]
 800110c:	685b      	ldr	r3, [r3, #4]
 800110e:	f022 0203 	bic.w	r2, r2, #3
 8001112:	609a      	str	r2, [r3, #8]
  }

  /* Initialize the Latest Tx FIFO/Queue request buffer index */
  hfdcan->LatestTxFifoQRequest = 0U;
 8001114:	687b      	ldr	r3, [r7, #4]
 8001116:	2200      	movs	r2, #0
 8001118:	f8c3 2094 	str.w	r2, [r3, #148]	; 0x94

  /* Initialize the error code */
  hfdcan->ErrorCode = HAL_FDCAN_ERROR_NONE;
 800111c:	687b      	ldr	r3, [r7, #4]
 800111e:	2200      	movs	r2, #0
 8001120:	f8c3 209c 	str.w	r2, [r3, #156]	; 0x9c

  /* Initialize the FDCAN state */
  hfdcan->State = HAL_FDCAN_STATE_READY;
 8001124:	687b      	ldr	r3, [r7, #4]
 8001126:	2201      	movs	r2, #1
 8001128:	f883 2098 	strb.w	r2, [r3, #152]	; 0x98

  /* Calculate each RAM block address */
  status = FDCAN_CalcultateRamBlockAddresses(hfdcan);
 800112c:	6878      	ldr	r0, [r7, #4]
 800112e:	f000 fe27 	bl	8001d80 <FDCAN_CalcultateRamBlockAddresses>
 8001132:	4603      	mov	r3, r0
 8001134:	f887 305b 	strb.w	r3, [r7, #91]	; 0x5b

  /* Return function status */
  return status;
 8001138:	f897 305b 	ldrb.w	r3, [r7, #91]	; 0x5b
}
 800113c:	4618      	mov	r0, r3
 800113e:	3760      	adds	r7, #96	; 0x60
 8001140:	46bd      	mov	sp, r7
 8001142:	bd80      	pop	{r7, pc}
 8001144:	4000a000 	.word	0x4000a000

08001148 <HAL_FDCAN_ConfigFilter>:
  * @param  sFilterConfig pointer to an FDCAN_FilterTypeDef structure that
  *         contains the filter configuration information
  * @retval HAL status
  */
HAL_StatusTypeDef HAL_FDCAN_ConfigFilter(FDCAN_HandleTypeDef *hfdcan, FDCAN_FilterTypeDef *sFilterConfig)
{
 8001148:	b480      	push	{r7}
 800114a:	b087      	sub	sp, #28
 800114c:	af00      	add	r7, sp, #0
 800114e:	6078      	str	r0, [r7, #4]
 8001150:	6039      	str	r1, [r7, #0]
  uint32_t FilterElementW1;
  uint32_t FilterElementW2;
  uint32_t *FilterAddress;
  HAL_FDCAN_StateTypeDef state = hfdcan->State;
 8001152:	687b      	ldr	r3, [r7, #4]
 8001154:	f893 3098 	ldrb.w	r3, [r3, #152]	; 0x98
 8001158:	73fb      	strb	r3, [r7, #15]

  if ((state == HAL_FDCAN_STATE_READY) || (state == HAL_FDCAN_STATE_BUSY))
 800115a:	7bfb      	ldrb	r3, [r7, #15]
 800115c:	2b01      	cmp	r3, #1
 800115e:	d002      	beq.n	8001166 <HAL_FDCAN_ConfigFilter+0x1e>
 8001160:	7bfb      	ldrb	r3, [r7, #15]
 8001162:	2b02      	cmp	r3, #2
 8001164:	d157      	bne.n	8001216 <HAL_FDCAN_ConfigFilter+0xce>
    {
      assert_param(IS_FDCAN_MAX_VALUE(sFilterConfig->RxBufferIndex, 63U));
      assert_param(IS_FDCAN_MAX_VALUE(sFilterConfig->IsCalibrationMsg, 1U));
    }

    if (sFilterConfig->IdType == FDCAN_STANDARD_ID)
 8001166:	683b      	ldr	r3, [r7, #0]
 8001168:	681b      	ldr	r3, [r3, #0]
 800116a:	2b00      	cmp	r3, #0
 800116c:	d12b      	bne.n	80011c6 <HAL_FDCAN_ConfigFilter+0x7e>
        assert_param(IS_FDCAN_MAX_VALUE(sFilterConfig->FilterID2, 0x7FFU));
        assert_param(IS_FDCAN_STD_FILTER_TYPE(sFilterConfig->FilterType));
      }

      /* Build filter element */
      if (sFilterConfig->FilterConfig == FDCAN_FILTER_TO_RXBUFFER)
 800116e:	683b      	ldr	r3, [r7, #0]
 8001170:	68db      	ldr	r3, [r3, #12]
 8001172:	2b07      	cmp	r3, #7
 8001174:	d10d      	bne.n	8001192 <HAL_FDCAN_ConfigFilter+0x4a>
      {
        FilterElementW1 = ((FDCAN_FILTER_TO_RXBUFFER << 27U)       |
                           (sFilterConfig->FilterID1 << 16U)       |
 8001176:	683b      	ldr	r3, [r7, #0]
 8001178:	691b      	ldr	r3, [r3, #16]
 800117a:	041a      	lsls	r2, r3, #16
                           (sFilterConfig->IsCalibrationMsg << 8U) |
 800117c:	683b      	ldr	r3, [r7, #0]
 800117e:	69db      	ldr	r3, [r3, #28]
 8001180:	021b      	lsls	r3, r3, #8
                           (sFilterConfig->FilterID1 << 16U)       |
 8001182:	431a      	orrs	r2, r3
                           sFilterConfig->RxBufferIndex);
 8001184:	683b      	ldr	r3, [r7, #0]
 8001186:	699b      	ldr	r3, [r3, #24]
                           (sFilterConfig->IsCalibrationMsg << 8U) |
 8001188:	4313      	orrs	r3, r2
        FilterElementW1 = ((FDCAN_FILTER_TO_RXBUFFER << 27U)       |
 800118a:	f043 5360 	orr.w	r3, r3, #939524096	; 0x38000000
 800118e:	617b      	str	r3, [r7, #20]
 8001190:	e00e      	b.n	80011b0 <HAL_FDCAN_ConfigFilter+0x68>
      }
      else
      {
        FilterElementW1 = ((sFilterConfig->FilterType << 30U)   |
 8001192:	683b      	ldr	r3, [r7, #0]
 8001194:	689b      	ldr	r3, [r3, #8]
 8001196:	079a      	lsls	r2, r3, #30
                           (sFilterConfig->FilterConfig << 27U) |
 8001198:	683b      	ldr	r3, [r7, #0]
 800119a:	68db      	ldr	r3, [r3, #12]
 800119c:	06db      	lsls	r3, r3, #27
        FilterElementW1 = ((sFilterConfig->FilterType << 30U)   |
 800119e:	431a      	orrs	r2, r3
                           (sFilterConfig->FilterID1 << 16U)    |
 80011a0:	683b      	ldr	r3, [r7, #0]
 80011a2:	691b      	ldr	r3, [r3, #16]
 80011a4:	041b      	lsls	r3, r3, #16
                           (sFilterConfig->FilterConfig << 27U) |
 80011a6:	431a      	orrs	r2, r3
                           sFilterConfig->FilterID2);
 80011a8:	683b      	ldr	r3, [r7, #0]
 80011aa:	695b      	ldr	r3, [r3, #20]
        FilterElementW1 = ((sFilterConfig->FilterType << 30U)   |
 80011ac:	4313      	orrs	r3, r2
 80011ae:	617b      	str	r3, [r7, #20]
      }

      /* Calculate filter address */
      FilterAddress = (uint32_t *)(hfdcan->msgRam.StandardFilterSA + (sFilterConfig->FilterIndex * 4U));
 80011b0:	687b      	ldr	r3, [r7, #4]
 80011b2:	6eda      	ldr	r2, [r3, #108]	; 0x6c
 80011b4:	683b      	ldr	r3, [r7, #0]
 80011b6:	685b      	ldr	r3, [r3, #4]
 80011b8:	009b      	lsls	r3, r3, #2
 80011ba:	4413      	add	r3, r2
 80011bc:	60bb      	str	r3, [r7, #8]

      /* Write filter element to the message RAM */
      *FilterAddress = FilterElementW1;
 80011be:	68bb      	ldr	r3, [r7, #8]
 80011c0:	697a      	ldr	r2, [r7, #20]
 80011c2:	601a      	str	r2, [r3, #0]
 80011c4:	e025      	b.n	8001212 <HAL_FDCAN_ConfigFilter+0xca>
        assert_param(IS_FDCAN_MAX_VALUE(sFilterConfig->FilterID2, 0x1FFFFFFFU));
        assert_param(IS_FDCAN_EXT_FILTER_TYPE(sFilterConfig->FilterType));
      }

      /* Build first word of filter element */
      FilterElementW1 = ((sFilterConfig->FilterConfig << 29U) | sFilterConfig->FilterID1);
 80011c6:	683b      	ldr	r3, [r7, #0]
 80011c8:	68db      	ldr	r3, [r3, #12]
 80011ca:	075a      	lsls	r2, r3, #29
 80011cc:	683b      	ldr	r3, [r7, #0]
 80011ce:	691b      	ldr	r3, [r3, #16]
 80011d0:	4313      	orrs	r3, r2
 80011d2:	617b      	str	r3, [r7, #20]

      /* Build second word of filter element */
      if (sFilterConfig->FilterConfig == FDCAN_FILTER_TO_RXBUFFER)
 80011d4:	683b      	ldr	r3, [r7, #0]
 80011d6:	68db      	ldr	r3, [r3, #12]
 80011d8:	2b07      	cmp	r3, #7
 80011da:	d103      	bne.n	80011e4 <HAL_FDCAN_ConfigFilter+0x9c>
      {
        FilterElementW2 = sFilterConfig->RxBufferIndex;
 80011dc:	683b      	ldr	r3, [r7, #0]
 80011de:	699b      	ldr	r3, [r3, #24]
 80011e0:	613b      	str	r3, [r7, #16]
 80011e2:	e006      	b.n	80011f2 <HAL_FDCAN_ConfigFilter+0xaa>
      }
      else
      {
        FilterElementW2 = ((sFilterConfig->FilterType << 30U) | sFilterConfig->FilterID2);
 80011e4:	683b      	ldr	r3, [r7, #0]
 80011e6:	689b      	ldr	r3, [r3, #8]
 80011e8:	079a      	lsls	r2, r3, #30
 80011ea:	683b      	ldr	r3, [r7, #0]
 80011ec:	695b      	ldr	r3, [r3, #20]
 80011ee:	4313      	orrs	r3, r2
 80011f0:	613b      	str	r3, [r7, #16]
      }

      /* Calculate filter address */
      FilterAddress = (uint32_t *)(hfdcan->msgRam.ExtendedFilterSA + (sFilterConfig->FilterIndex * 4U * 2U));
 80011f2:	687b      	ldr	r3, [r7, #4]
 80011f4:	6f1a      	ldr	r2, [r3, #112]	; 0x70
 80011f6:	683b      	ldr	r3, [r7, #0]
 80011f8:	685b      	ldr	r3, [r3, #4]
 80011fa:	00db      	lsls	r3, r3, #3
 80011fc:	4413      	add	r3, r2
 80011fe:	60bb      	str	r3, [r7, #8]

      /* Write filter element to the message RAM */
      *FilterAddress = FilterElementW1;
 8001200:	68bb      	ldr	r3, [r7, #8]
 8001202:	697a      	ldr	r2, [r7, #20]
 8001204:	601a      	str	r2, [r3, #0]
      FilterAddress++;
 8001206:	68bb      	ldr	r3, [r7, #8]
 8001208:	3304      	adds	r3, #4
 800120a:	60bb      	str	r3, [r7, #8]
      *FilterAddress = FilterElementW2;
 800120c:	68bb      	ldr	r3, [r7, #8]
 800120e:	693a      	ldr	r2, [r7, #16]
 8001210:	601a      	str	r2, [r3, #0]
    }

    /* Return function status */
    return HAL_OK;
 8001212:	2300      	movs	r3, #0
 8001214:	e008      	b.n	8001228 <HAL_FDCAN_ConfigFilter+0xe0>
  }
  else
  {
    /* Update error code */
    hfdcan->ErrorCode |= HAL_FDCAN_ERROR_NOT_INITIALIZED;
 8001216:	687b      	ldr	r3, [r7, #4]
 8001218:	f8d3 309c 	ldr.w	r3, [r3, #156]	; 0x9c
 800121c:	f043 0202 	orr.w	r2, r3, #2
 8001220:	687b      	ldr	r3, [r7, #4]
 8001222:	f8c3 209c 	str.w	r2, [r3, #156]	; 0x9c

    return HAL_ERROR;
 8001226:	2301      	movs	r3, #1
  }
}
 8001228:	4618      	mov	r0, r3
 800122a:	371c      	adds	r7, #28
 800122c:	46bd      	mov	sp, r7
 800122e:	f85d 7b04 	ldr.w	r7, [sp], #4
 8001232:	4770      	bx	lr

08001234 <HAL_FDCAN_ConfigGlobalFilter>:
HAL_StatusTypeDef HAL_FDCAN_ConfigGlobalFilter(FDCAN_HandleTypeDef *hfdcan,
                                               uint32_t NonMatchingStd,
                                               uint32_t NonMatchingExt,
                                               uint32_t RejectRemoteStd,
                                               uint32_t RejectRemoteExt)
{
 8001234:	b480      	push	{r7}
 8001236:	b085      	sub	sp, #20
 8001238:	af00      	add	r7, sp, #0
 800123a:	60f8      	str	r0, [r7, #12]
 800123c:	60b9      	str	r1, [r7, #8]
 800123e:	607a      	str	r2, [r7, #4]
 8001240:	603b      	str	r3, [r7, #0]
  assert_param(IS_FDCAN_NON_MATCHING(NonMatchingStd));
  assert_param(IS_FDCAN_NON_MATCHING(NonMatchingExt));
  assert_param(IS_FDCAN_REJECT_REMOTE(RejectRemoteStd));
  assert_param(IS_FDCAN_REJECT_REMOTE(RejectRemoteExt));

  if (hfdcan->State == HAL_FDCAN_STATE_READY)
 8001242:	68fb      	ldr	r3, [r7, #12]
 8001244:	f893 3098 	ldrb.w	r3, [r3, #152]	; 0x98
 8001248:	b2db      	uxtb	r3, r3
 800124a:	2b01      	cmp	r3, #1
 800124c:	d110      	bne.n	8001270 <HAL_FDCAN_ConfigGlobalFilter+0x3c>
  {
    /* Configure global filter */
    hfdcan->Instance->GFC = ((NonMatchingStd << FDCAN_GFC_ANFS_Pos)  |
 800124e:	68bb      	ldr	r3, [r7, #8]
 8001250:	011a      	lsls	r2, r3, #4
                             (NonMatchingExt << FDCAN_GFC_ANFE_Pos)  |
 8001252:	687b      	ldr	r3, [r7, #4]
 8001254:	009b      	lsls	r3, r3, #2
    hfdcan->Instance->GFC = ((NonMatchingStd << FDCAN_GFC_ANFS_Pos)  |
 8001256:	431a      	orrs	r2, r3
                             (RejectRemoteStd << FDCAN_GFC_RRFS_Pos) |
 8001258:	683b      	ldr	r3, [r7, #0]
 800125a:	005b      	lsls	r3, r3, #1
                             (NonMatchingExt << FDCAN_GFC_ANFE_Pos)  |
 800125c:	ea42 0103 	orr.w	r1, r2, r3
    hfdcan->Instance->GFC = ((NonMatchingStd << FDCAN_GFC_ANFS_Pos)  |
 8001260:	68fb      	ldr	r3, [r7, #12]
 8001262:	681b      	ldr	r3, [r3, #0]
                             (RejectRemoteStd << FDCAN_GFC_RRFS_Pos) |
 8001264:	69ba      	ldr	r2, [r7, #24]
 8001266:	430a      	orrs	r2, r1
    hfdcan->Instance->GFC = ((NonMatchingStd << FDCAN_GFC_ANFS_Pos)  |
 8001268:	f8c3 2080 	str.w	r2, [r3, #128]	; 0x80
                             (RejectRemoteExt << FDCAN_GFC_RRFE_Pos));

    /* Return function status */
    return HAL_OK;
 800126c:	2300      	movs	r3, #0
 800126e:	e008      	b.n	8001282 <HAL_FDCAN_ConfigGlobalFilter+0x4e>
  }
  else
  {
    /* Update error code */
    hfdcan->ErrorCode |= HAL_FDCAN_ERROR_NOT_READY;
 8001270:	68fb      	ldr	r3, [r7, #12]
 8001272:	f8d3 309c 	ldr.w	r3, [r3, #156]	; 0x9c
 8001276:	f043 0204 	orr.w	r2, r3, #4
 800127a:	68fb      	ldr	r3, [r7, #12]
 800127c:	f8c3 209c 	str.w	r2, [r3, #156]	; 0x9c

    return HAL_ERROR;
 8001280:	2301      	movs	r3, #1
  }
}
 8001282:	4618      	mov	r0, r3
 8001284:	3714      	adds	r7, #20
 8001286:	46bd      	mov	sp, r7
 8001288:	f85d 7b04 	ldr.w	r7, [sp], #4
 800128c:	4770      	bx	lr

0800128e <HAL_FDCAN_Start>:
  * @param  hfdcan pointer to an FDCAN_HandleTypeDef structure that contains
  *         the configuration information for the specified FDCAN.
  * @retval HAL status
  */
HAL_StatusTypeDef HAL_FDCAN_Start(FDCAN_HandleTypeDef *hfdcan)
{
 800128e:	b480      	push	{r7}
 8001290:	b083      	sub	sp, #12
 8001292:	af00      	add	r7, sp, #0
 8001294:	6078      	str	r0, [r7, #4]
  if (hfdcan->State == HAL_FDCAN_STATE_READY)
 8001296:	687b      	ldr	r3, [r7, #4]
 8001298:	f893 3098 	ldrb.w	r3, [r3, #152]	; 0x98
 800129c:	b2db      	uxtb	r3, r3
 800129e:	2b01      	cmp	r3, #1
 80012a0:	d111      	bne.n	80012c6 <HAL_FDCAN_Start+0x38>
  {
    /* Change FDCAN peripheral state */
    hfdcan->State = HAL_FDCAN_STATE_BUSY;
 80012a2:	687b      	ldr	r3, [r7, #4]
 80012a4:	2202      	movs	r2, #2
 80012a6:	f883 2098 	strb.w	r2, [r3, #152]	; 0x98

    /* Request leave initialisation */
    CLEAR_BIT(hfdcan->Instance->CCCR, FDCAN_CCCR_INIT);
 80012aa:	687b      	ldr	r3, [r7, #4]
 80012ac:	681b      	ldr	r3, [r3, #0]
 80012ae:	699a      	ldr	r2, [r3, #24]
 80012b0:	687b      	ldr	r3, [r7, #4]
 80012b2:	681b      	ldr	r3, [r3, #0]
 80012b4:	f022 0201 	bic.w	r2, r2, #1
 80012b8:	619a      	str	r2, [r3, #24]

    /* Reset the FDCAN ErrorCode */
    hfdcan->ErrorCode = HAL_FDCAN_ERROR_NONE;
 80012ba:	687b      	ldr	r3, [r7, #4]
 80012bc:	2200      	movs	r2, #0
 80012be:	f8c3 209c 	str.w	r2, [r3, #156]	; 0x9c

    /* Return function status */
    return HAL_OK;
 80012c2:	2300      	movs	r3, #0
 80012c4:	e008      	b.n	80012d8 <HAL_FDCAN_Start+0x4a>
  }
  else
  {
    /* Update error code */
    hfdcan->ErrorCode |= HAL_FDCAN_ERROR_NOT_READY;
 80012c6:	687b      	ldr	r3, [r7, #4]
 80012c8:	f8d3 309c 	ldr.w	r3, [r3, #156]	; 0x9c
 80012cc:	f043 0204 	orr.w	r2, r3, #4
 80012d0:	687b      	ldr	r3, [r7, #4]
 80012d2:	f8c3 209c 	str.w	r2, [r3, #156]	; 0x9c

    return HAL_ERROR;
 80012d6:	2301      	movs	r3, #1
  }
}
 80012d8:	4618      	mov	r0, r3
 80012da:	370c      	adds	r7, #12
 80012dc:	46bd      	mov	sp, r7
 80012de:	f85d 7b04 	ldr.w	r7, [sp], #4
 80012e2:	4770      	bx	lr

080012e4 <HAL_FDCAN_AddMessageToTxFifoQ>:
  * @param  pTxHeader pointer to a FDCAN_TxHeaderTypeDef structure.
  * @param  pTxData pointer to a buffer containing the payload of the Tx frame.
  * @retval HAL status
  */
HAL_StatusTypeDef HAL_FDCAN_AddMessageToTxFifoQ(FDCAN_HandleTypeDef *hfdcan, FDCAN_TxHeaderTypeDef *pTxHeader, uint8_t *pTxData)
{
 80012e4:	b580      	push	{r7, lr}
 80012e6:	b086      	sub	sp, #24
 80012e8:	af00      	add	r7, sp, #0
 80012ea:	60f8      	str	r0, [r7, #12]
 80012ec:	60b9      	str	r1, [r7, #8]
 80012ee:	607a      	str	r2, [r7, #4]
  assert_param(IS_FDCAN_BRS(pTxHeader->BitRateSwitch));
  assert_param(IS_FDCAN_FDF(pTxHeader->FDFormat));
  assert_param(IS_FDCAN_EFC(pTxHeader->TxEventFifoControl));
  assert_param(IS_FDCAN_MAX_VALUE(pTxHeader->MessageMarker, 0xFFU));

  if (hfdcan->State == HAL_FDCAN_STATE_BUSY)
 80012f0:	68fb      	ldr	r3, [r7, #12]
 80012f2:	f893 3098 	ldrb.w	r3, [r3, #152]	; 0x98
 80012f6:	b2db      	uxtb	r3, r3
 80012f8:	2b02      	cmp	r3, #2
 80012fa:	d141      	bne.n	8001380 <HAL_FDCAN_AddMessageToTxFifoQ+0x9c>
  {
    /* Check that the Tx FIFO/Queue has an allocated area into the RAM */
    if ((hfdcan->Instance->TXBC & FDCAN_TXBC_TFQS) == 0U)
 80012fc:	68fb      	ldr	r3, [r7, #12]
 80012fe:	681b      	ldr	r3, [r3, #0]
 8001300:	f8d3 30c0 	ldr.w	r3, [r3, #192]	; 0xc0
 8001304:	f003 537c 	and.w	r3, r3, #1056964608	; 0x3f000000
 8001308:	2b00      	cmp	r3, #0
 800130a:	d109      	bne.n	8001320 <HAL_FDCAN_AddMessageToTxFifoQ+0x3c>
    {
      /* Update error code */
      hfdcan->ErrorCode |= HAL_FDCAN_ERROR_PARAM;
 800130c:	68fb      	ldr	r3, [r7, #12]
 800130e:	f8d3 309c 	ldr.w	r3, [r3, #156]	; 0x9c
 8001312:	f043 0220 	orr.w	r2, r3, #32
 8001316:	68fb      	ldr	r3, [r7, #12]
 8001318:	f8c3 209c 	str.w	r2, [r3, #156]	; 0x9c

      return HAL_ERROR;
 800131c:	2301      	movs	r3, #1
 800131e:	e038      	b.n	8001392 <HAL_FDCAN_AddMessageToTxFifoQ+0xae>
    }

    /* Check that the Tx FIFO/Queue is not full */
    if ((hfdcan->Instance->TXFQS & FDCAN_TXFQS_TFQF) != 0U)
 8001320:	68fb      	ldr	r3, [r7, #12]
 8001322:	681b      	ldr	r3, [r3, #0]
 8001324:	f8d3 30c4 	ldr.w	r3, [r3, #196]	; 0xc4
 8001328:	f403 1300 	and.w	r3, r3, #2097152	; 0x200000
 800132c:	2b00      	cmp	r3, #0
 800132e:	d009      	beq.n	8001344 <HAL_FDCAN_AddMessageToTxFifoQ+0x60>
    {
      /* Update error code */
      hfdcan->ErrorCode |= HAL_FDCAN_ERROR_FIFO_FULL;
 8001330:	68fb      	ldr	r3, [r7, #12]
 8001332:	f8d3 309c 	ldr.w	r3, [r3, #156]	; 0x9c
 8001336:	f443 7200 	orr.w	r2, r3, #512	; 0x200
 800133a:	68fb      	ldr	r3, [r7, #12]
 800133c:	f8c3 209c 	str.w	r2, [r3, #156]	; 0x9c

      return HAL_ERROR;
 8001340:	2301      	movs	r3, #1
 8001342:	e026      	b.n	8001392 <HAL_FDCAN_AddMessageToTxFifoQ+0xae>
    }
    else
    {
      /* Retrieve the Tx FIFO PutIndex */
      PutIndex = ((hfdcan->Instance->TXFQS & FDCAN_TXFQS_TFQPI) >> FDCAN_TXFQS_TFQPI_Pos);
 8001344:	68fb      	ldr	r3, [r7, #12]
 8001346:	681b      	ldr	r3, [r3, #0]
 8001348:	f8d3 30c4 	ldr.w	r3, [r3, #196]	; 0xc4
 800134c:	0c1b      	lsrs	r3, r3, #16
 800134e:	f003 031f 	and.w	r3, r3, #31
 8001352:	617b      	str	r3, [r7, #20]

      /* Add the message to the Tx FIFO/Queue */
      FDCAN_CopyMessageToRAM(hfdcan, pTxHeader, pTxData, PutIndex);
 8001354:	697b      	ldr	r3, [r7, #20]
 8001356:	687a      	ldr	r2, [r7, #4]
 8001358:	68b9      	ldr	r1, [r7, #8]
 800135a:	68f8      	ldr	r0, [r7, #12]
 800135c:	f000 fe96 	bl	800208c <FDCAN_CopyMessageToRAM>

      /* Activate the corresponding transmission request */
      hfdcan->Instance->TXBAR = ((uint32_t)1 << PutIndex);
 8001360:	68fb      	ldr	r3, [r7, #12]
 8001362:	681b      	ldr	r3, [r3, #0]
 8001364:	2101      	movs	r1, #1
 8001366:	697a      	ldr	r2, [r7, #20]
 8001368:	fa01 f202 	lsl.w	r2, r1, r2
 800136c:	f8c3 20d0 	str.w	r2, [r3, #208]	; 0xd0

      /* Store the Latest Tx FIFO/Queue Request Buffer Index */
      hfdcan->LatestTxFifoQRequest = ((uint32_t)1 << PutIndex);
 8001370:	2201      	movs	r2, #1
 8001372:	697b      	ldr	r3, [r7, #20]
 8001374:	409a      	lsls	r2, r3
 8001376:	68fb      	ldr	r3, [r7, #12]
 8001378:	f8c3 2094 	str.w	r2, [r3, #148]	; 0x94
    }

    /* Return function status */
    return HAL_OK;
 800137c:	2300      	movs	r3, #0
 800137e:	e008      	b.n	8001392 <HAL_FDCAN_AddMessageToTxFifoQ+0xae>
  }
  else
  {
    /* Update error code */
    hfdcan->ErrorCode |= HAL_FDCAN_ERROR_NOT_STARTED;
 8001380:	68fb      	ldr	r3, [r7, #12]
 8001382:	f8d3 309c 	ldr.w	r3, [r3, #156]	; 0x9c
 8001386:	f043 0208 	orr.w	r2, r3, #8
 800138a:	68fb      	ldr	r3, [r7, #12]
 800138c:	f8c3 209c 	str.w	r2, [r3, #156]	; 0x9c

    return HAL_ERROR;
 8001390:	2301      	movs	r3, #1
  }
}
 8001392:	4618      	mov	r0, r3
 8001394:	3718      	adds	r7, #24
 8001396:	46bd      	mov	sp, r7
 8001398:	bd80      	pop	{r7, pc}
	...

0800139c <HAL_FDCAN_GetRxMessage>:
  * @param  pRxHeader pointer to a FDCAN_RxHeaderTypeDef structure.
  * @param  pRxData pointer to a buffer where the payload of the Rx frame will be stored.
  * @retval HAL status
  */
HAL_StatusTypeDef HAL_FDCAN_GetRxMessage(FDCAN_HandleTypeDef *hfdcan, uint32_t RxLocation, FDCAN_RxHeaderTypeDef *pRxHeader, uint8_t *pRxData)
{
 800139c:	b480      	push	{r7}
 800139e:	b08b      	sub	sp, #44	; 0x2c
 80013a0:	af00      	add	r7, sp, #0
 80013a2:	60f8      	str	r0, [r7, #12]
 80013a4:	60b9      	str	r1, [r7, #8]
 80013a6:	607a      	str	r2, [r7, #4]
 80013a8:	603b      	str	r3, [r7, #0]
  uint32_t *RxAddress;
  uint8_t  *pData;
  uint32_t ByteCounter;
  uint32_t GetIndex = 0;
 80013aa:	2300      	movs	r3, #0
 80013ac:	61fb      	str	r3, [r7, #28]
  HAL_FDCAN_StateTypeDef state = hfdcan->State;
 80013ae:	68fb      	ldr	r3, [r7, #12]
 80013b0:	f893 3098 	ldrb.w	r3, [r3, #152]	; 0x98
 80013b4:	76fb      	strb	r3, [r7, #27]

  if (state == HAL_FDCAN_STATE_BUSY)
 80013b6:	7efb      	ldrb	r3, [r7, #27]
 80013b8:	2b02      	cmp	r3, #2
 80013ba:	f040 814b 	bne.w	8001654 <HAL_FDCAN_GetRxMessage+0x2b8>
  {
    if (RxLocation == FDCAN_RX_FIFO0) /* Rx element is assigned to the Rx FIFO 0 */
 80013be:	68bb      	ldr	r3, [r7, #8]
 80013c0:	2b40      	cmp	r3, #64	; 0x40
 80013c2:	d14d      	bne.n	8001460 <HAL_FDCAN_GetRxMessage+0xc4>
    {
      /* Check that the Rx FIFO 0 has an allocated area into the RAM */
      if ((hfdcan->Instance->RXF0C & FDCAN_RXF0C_F0S) == 0U)
 80013c4:	68fb      	ldr	r3, [r7, #12]
 80013c6:	681b      	ldr	r3, [r3, #0]
 80013c8:	f8d3 30a0 	ldr.w	r3, [r3, #160]	; 0xa0
 80013cc:	f403 03fe 	and.w	r3, r3, #8323072	; 0x7f0000
 80013d0:	2b00      	cmp	r3, #0
 80013d2:	d109      	bne.n	80013e8 <HAL_FDCAN_GetRxMessage+0x4c>
      {
        /* Update error code */
        hfdcan->ErrorCode |= HAL_FDCAN_ERROR_PARAM;
 80013d4:	68fb      	ldr	r3, [r7, #12]
 80013d6:	f8d3 309c 	ldr.w	r3, [r3, #156]	; 0x9c
 80013da:	f043 0220 	orr.w	r2, r3, #32
 80013de:	68fb      	ldr	r3, [r7, #12]
 80013e0:	f8c3 209c 	str.w	r2, [r3, #156]	; 0x9c

        return HAL_ERROR;
 80013e4:	2301      	movs	r3, #1
 80013e6:	e13e      	b.n	8001666 <HAL_FDCAN_GetRxMessage+0x2ca>
      }

      /* Check that the Rx FIFO 0 is not empty */
      if ((hfdcan->Instance->RXF0S & FDCAN_RXF0S_F0FL) == 0U)
 80013e8:	68fb      	ldr	r3, [r7, #12]
 80013ea:	681b      	ldr	r3, [r3, #0]
 80013ec:	f8d3 30a4 	ldr.w	r3, [r3, #164]	; 0xa4
 80013f0:	f003 037f 	and.w	r3, r3, #127	; 0x7f
 80013f4:	2b00      	cmp	r3, #0
 80013f6:	d109      	bne.n	800140c <HAL_FDCAN_GetRxMessage+0x70>
      {
        /* Update error code */
        hfdcan->ErrorCode |= HAL_FDCAN_ERROR_FIFO_EMPTY;
 80013f8:	68fb      	ldr	r3, [r7, #12]
 80013fa:	f8d3 309c 	ldr.w	r3, [r3, #156]	; 0x9c
 80013fe:	f443 7280 	orr.w	r2, r3, #256	; 0x100
 8001402:	68fb      	ldr	r3, [r7, #12]
 8001404:	f8c3 209c 	str.w	r2, [r3, #156]	; 0x9c

        return HAL_ERROR;
 8001408:	2301      	movs	r3, #1
 800140a:	e12c      	b.n	8001666 <HAL_FDCAN_GetRxMessage+0x2ca>
      }
      else
      {
        /* Check that the Rx FIFO 0 is full & overwrite mode is on*/
        if(((hfdcan->Instance->RXF0S & FDCAN_RXF0S_F0F) >> FDCAN_RXF0S_F0F_Pos) == 1U)
 800140c:	68fb      	ldr	r3, [r7, #12]
 800140e:	681b      	ldr	r3, [r3, #0]
 8001410:	f8d3 30a4 	ldr.w	r3, [r3, #164]	; 0xa4
 8001414:	0e1b      	lsrs	r3, r3, #24
 8001416:	f003 0301 	and.w	r3, r3, #1
 800141a:	2b01      	cmp	r3, #1
 800141c:	d10b      	bne.n	8001436 <HAL_FDCAN_GetRxMessage+0x9a>
        {
          if(((hfdcan->Instance->RXF0C & FDCAN_RXF0C_F0OM) >> FDCAN_RXF0C_F0OM_Pos) == FDCAN_RX_FIFO_OVERWRITE)
 800141e:	68fb      	ldr	r3, [r7, #12]
 8001420:	681b      	ldr	r3, [r3, #0]
 8001422:	f8d3 30a0 	ldr.w	r3, [r3, #160]	; 0xa0
 8001426:	0fdb      	lsrs	r3, r3, #31
 8001428:	f003 0301 	and.w	r3, r3, #1
 800142c:	f1b3 4f00 	cmp.w	r3, #2147483648	; 0x80000000
 8001430:	d101      	bne.n	8001436 <HAL_FDCAN_GetRxMessage+0x9a>
          {
            /* When overwrite status is on discard first message in FIFO */
            GetIndex = 1U;
 8001432:	2301      	movs	r3, #1
 8001434:	61fb      	str	r3, [r7, #28]
          }
        }

        /* Calculate Rx FIFO 0 element index*/
        GetIndex += ((hfdcan->Instance->RXF0S & FDCAN_RXF0S_F0GI) >> FDCAN_RXF0S_F0GI_Pos);
 8001436:	68fb      	ldr	r3, [r7, #12]
 8001438:	681b      	ldr	r3, [r3, #0]
 800143a:	f8d3 30a4 	ldr.w	r3, [r3, #164]	; 0xa4
 800143e:	0a1b      	lsrs	r3, r3, #8
 8001440:	f003 033f 	and.w	r3, r3, #63	; 0x3f
 8001444:	69fa      	ldr	r2, [r7, #28]
 8001446:	4413      	add	r3, r2
 8001448:	61fb      	str	r3, [r7, #28]

        /* Calculate Rx FIFO 0 element address */
        RxAddress = (uint32_t *)(hfdcan->msgRam.RxFIFO0SA + (GetIndex * hfdcan->Init.RxFifo0ElmtSize * 4U));
 800144a:	68fb      	ldr	r3, [r7, #12]
 800144c:	6f5a      	ldr	r2, [r3, #116]	; 0x74
 800144e:	68fb      	ldr	r3, [r7, #12]
 8001450:	6c5b      	ldr	r3, [r3, #68]	; 0x44
 8001452:	69f9      	ldr	r1, [r7, #28]
 8001454:	fb01 f303 	mul.w	r3, r1, r3
 8001458:	009b      	lsls	r3, r3, #2
 800145a:	4413      	add	r3, r2
 800145c:	627b      	str	r3, [r7, #36]	; 0x24
 800145e:	e069      	b.n	8001534 <HAL_FDCAN_GetRxMessage+0x198>
      }
    }
    else if (RxLocation == FDCAN_RX_FIFO1) /* Rx element is assigned to the Rx FIFO 1 */
 8001460:	68bb      	ldr	r3, [r7, #8]
 8001462:	2b41      	cmp	r3, #65	; 0x41
 8001464:	d14d      	bne.n	8001502 <HAL_FDCAN_GetRxMessage+0x166>
    {
      /* Check that the Rx FIFO 1 has an allocated area into the RAM */
      if ((hfdcan->Instance->RXF1C & FDCAN_RXF1C_F1S) == 0U)
 8001466:	68fb      	ldr	r3, [r7, #12]
 8001468:	681b      	ldr	r3, [r3, #0]
 800146a:	f8d3 30b0 	ldr.w	r3, [r3, #176]	; 0xb0
 800146e:	f403 03fe 	and.w	r3, r3, #8323072	; 0x7f0000
 8001472:	2b00      	cmp	r3, #0
 8001474:	d109      	bne.n	800148a <HAL_FDCAN_GetRxMessage+0xee>
      {
        /* Update error code */
        hfdcan->ErrorCode |= HAL_FDCAN_ERROR_PARAM;
 8001476:	68fb      	ldr	r3, [r7, #12]
 8001478:	f8d3 309c 	ldr.w	r3, [r3, #156]	; 0x9c
 800147c:	f043 0220 	orr.w	r2, r3, #32
 8001480:	68fb      	ldr	r3, [r7, #12]
 8001482:	f8c3 209c 	str.w	r2, [r3, #156]	; 0x9c

        return HAL_ERROR;
 8001486:	2301      	movs	r3, #1
 8001488:	e0ed      	b.n	8001666 <HAL_FDCAN_GetRxMessage+0x2ca>
      }

      /* Check that the Rx FIFO 0 is not empty */
      if ((hfdcan->Instance->RXF1S & FDCAN_RXF1S_F1FL) == 0U)
 800148a:	68fb      	ldr	r3, [r7, #12]
 800148c:	681b      	ldr	r3, [r3, #0]
 800148e:	f8d3 30b4 	ldr.w	r3, [r3, #180]	; 0xb4
 8001492:	f003 037f 	and.w	r3, r3, #127	; 0x7f
 8001496:	2b00      	cmp	r3, #0
 8001498:	d109      	bne.n	80014ae <HAL_FDCAN_GetRxMessage+0x112>
      {
        /* Update error code */
        hfdcan->ErrorCode |= HAL_FDCAN_ERROR_FIFO_EMPTY;
 800149a:	68fb      	ldr	r3, [r7, #12]
 800149c:	f8d3 309c 	ldr.w	r3, [r3, #156]	; 0x9c
 80014a0:	f443 7280 	orr.w	r2, r3, #256	; 0x100
 80014a4:	68fb      	ldr	r3, [r7, #12]
 80014a6:	f8c3 209c 	str.w	r2, [r3, #156]	; 0x9c

        return HAL_ERROR;
 80014aa:	2301      	movs	r3, #1
 80014ac:	e0db      	b.n	8001666 <HAL_FDCAN_GetRxMessage+0x2ca>
      }
      else
      {
        /* Check that the Rx FIFO 1 is full & overwrite mode is on*/
        if(((hfdcan->Instance->RXF1S & FDCAN_RXF1S_F1F) >> FDCAN_RXF1S_F1F_Pos) == 1U)
 80014ae:	68fb      	ldr	r3, [r7, #12]
 80014b0:	681b      	ldr	r3, [r3, #0]
 80014b2:	f8d3 30b4 	ldr.w	r3, [r3, #180]	; 0xb4
 80014b6:	0e1b      	lsrs	r3, r3, #24
 80014b8:	f003 0301 	and.w	r3, r3, #1
 80014bc:	2b01      	cmp	r3, #1
 80014be:	d10b      	bne.n	80014d8 <HAL_FDCAN_GetRxMessage+0x13c>
        {
          if(((hfdcan->Instance->RXF1C & FDCAN_RXF1C_F1OM) >> FDCAN_RXF1C_F1OM_Pos) == FDCAN_RX_FIFO_OVERWRITE)
 80014c0:	68fb      	ldr	r3, [r7, #12]
 80014c2:	681b      	ldr	r3, [r3, #0]
 80014c4:	f8d3 30b0 	ldr.w	r3, [r3, #176]	; 0xb0
 80014c8:	0fdb      	lsrs	r3, r3, #31
 80014ca:	f003 0301 	and.w	r3, r3, #1
 80014ce:	f1b3 4f00 	cmp.w	r3, #2147483648	; 0x80000000
 80014d2:	d101      	bne.n	80014d8 <HAL_FDCAN_GetRxMessage+0x13c>
          {
            /* When overwrite status is on discard first message in FIFO */
            GetIndex = 1U;
 80014d4:	2301      	movs	r3, #1
 80014d6:	61fb      	str	r3, [r7, #28]
          }
        }

        /* Calculate Rx FIFO 1 element index*/
        GetIndex += ((hfdcan->Instance->RXF1S & FDCAN_RXF1S_F1GI) >> FDCAN_RXF1S_F1GI_Pos);
 80014d8:	68fb      	ldr	r3, [r7, #12]
 80014da:	681b      	ldr	r3, [r3, #0]
 80014dc:	f8d3 30b4 	ldr.w	r3, [r3, #180]	; 0xb4
 80014e0:	0a1b      	lsrs	r3, r3, #8
 80014e2:	f003 033f 	and.w	r3, r3, #63	; 0x3f
 80014e6:	69fa      	ldr	r2, [r7, #28]
 80014e8:	4413      	add	r3, r2
 80014ea:	61fb      	str	r3, [r7, #28]

        /* Calculate Rx FIFO 1 element address */
        RxAddress = (uint32_t *)(hfdcan->msgRam.RxFIFO1SA + (GetIndex * hfdcan->Init.RxFifo1ElmtSize * 4U));
 80014ec:	68fb      	ldr	r3, [r7, #12]
 80014ee:	6f9a      	ldr	r2, [r3, #120]	; 0x78
 80014f0:	68fb      	ldr	r3, [r7, #12]
 80014f2:	6cdb      	ldr	r3, [r3, #76]	; 0x4c
 80014f4:	69f9      	ldr	r1, [r7, #28]
 80014f6:	fb01 f303 	mul.w	r3, r1, r3
 80014fa:	009b      	lsls	r3, r3, #2
 80014fc:	4413      	add	r3, r2
 80014fe:	627b      	str	r3, [r7, #36]	; 0x24
 8001500:	e018      	b.n	8001534 <HAL_FDCAN_GetRxMessage+0x198>
      }
    }
    else /* Rx element is assigned to a dedicated Rx buffer */
    {
      /* Check that the selected buffer has an allocated area into the RAM */
      if (RxLocation >= hfdcan->Init.RxBuffersNbr)
 8001502:	68fb      	ldr	r3, [r7, #12]
 8001504:	6d1b      	ldr	r3, [r3, #80]	; 0x50
 8001506:	68ba      	ldr	r2, [r7, #8]
 8001508:	429a      	cmp	r2, r3
 800150a:	d309      	bcc.n	8001520 <HAL_FDCAN_GetRxMessage+0x184>
      {
        /* Update error code */
        hfdcan->ErrorCode |= HAL_FDCAN_ERROR_PARAM;
 800150c:	68fb      	ldr	r3, [r7, #12]
 800150e:	f8d3 309c 	ldr.w	r3, [r3, #156]	; 0x9c
 8001512:	f043 0220 	orr.w	r2, r3, #32
 8001516:	68fb      	ldr	r3, [r7, #12]
 8001518:	f8c3 209c 	str.w	r2, [r3, #156]	; 0x9c

        return HAL_ERROR;
 800151c:	2301      	movs	r3, #1
 800151e:	e0a2      	b.n	8001666 <HAL_FDCAN_GetRxMessage+0x2ca>
      }
      else
      {
        /* Calculate Rx buffer address */
        RxAddress = (uint32_t *)(hfdcan->msgRam.RxBufferSA + (RxLocation * hfdcan->Init.RxBufferSize * 4U));
 8001520:	68fb      	ldr	r3, [r7, #12]
 8001522:	6fda      	ldr	r2, [r3, #124]	; 0x7c
 8001524:	68fb      	ldr	r3, [r7, #12]
 8001526:	6d5b      	ldr	r3, [r3, #84]	; 0x54
 8001528:	68b9      	ldr	r1, [r7, #8]
 800152a:	fb01 f303 	mul.w	r3, r1, r3
 800152e:	009b      	lsls	r3, r3, #2
 8001530:	4413      	add	r3, r2
 8001532:	627b      	str	r3, [r7, #36]	; 0x24
      }
    }

    /* Retrieve IdType */
    pRxHeader->IdType = *RxAddress & FDCAN_ELEMENT_MASK_XTD;
 8001534:	6a7b      	ldr	r3, [r7, #36]	; 0x24
 8001536:	681b      	ldr	r3, [r3, #0]
 8001538:	f003 4280 	and.w	r2, r3, #1073741824	; 0x40000000
 800153c:	687b      	ldr	r3, [r7, #4]
 800153e:	605a      	str	r2, [r3, #4]

    /* Retrieve Identifier */
    if (pRxHeader->IdType == FDCAN_STANDARD_ID) /* Standard ID element */
 8001540:	687b      	ldr	r3, [r7, #4]
 8001542:	685b      	ldr	r3, [r3, #4]
 8001544:	2b00      	cmp	r3, #0
 8001546:	d107      	bne.n	8001558 <HAL_FDCAN_GetRxMessage+0x1bc>
    {
      pRxHeader->Identifier = ((*RxAddress & FDCAN_ELEMENT_MASK_STDID) >> 18);
 8001548:	6a7b      	ldr	r3, [r7, #36]	; 0x24
 800154a:	681b      	ldr	r3, [r3, #0]
 800154c:	0c9b      	lsrs	r3, r3, #18
 800154e:	f3c3 020a 	ubfx	r2, r3, #0, #11
 8001552:	687b      	ldr	r3, [r7, #4]
 8001554:	601a      	str	r2, [r3, #0]
 8001556:	e005      	b.n	8001564 <HAL_FDCAN_GetRxMessage+0x1c8>
    }
    else /* Extended ID element */
    {
      pRxHeader->Identifier = (*RxAddress & FDCAN_ELEMENT_MASK_EXTID);
 8001558:	6a7b      	ldr	r3, [r7, #36]	; 0x24
 800155a:	681b      	ldr	r3, [r3, #0]
 800155c:	f023 4260 	bic.w	r2, r3, #3758096384	; 0xe0000000
 8001560:	687b      	ldr	r3, [r7, #4]
 8001562:	601a      	str	r2, [r3, #0]
    }

    /* Retrieve RxFrameType */
    pRxHeader->RxFrameType = (*RxAddress & FDCAN_ELEMENT_MASK_RTR);
 8001564:	6a7b      	ldr	r3, [r7, #36]	; 0x24
 8001566:	681b      	ldr	r3, [r3, #0]
 8001568:	f003 5200 	and.w	r2, r3, #536870912	; 0x20000000
 800156c:	687b      	ldr	r3, [r7, #4]
 800156e:	609a      	str	r2, [r3, #8]

    /* Retrieve ErrorStateIndicator */
    pRxHeader->ErrorStateIndicator = (*RxAddress & FDCAN_ELEMENT_MASK_ESI);
 8001570:	6a7b      	ldr	r3, [r7, #36]	; 0x24
 8001572:	681b      	ldr	r3, [r3, #0]
 8001574:	f003 4200 	and.w	r2, r3, #2147483648	; 0x80000000
 8001578:	687b      	ldr	r3, [r7, #4]
 800157a:	611a      	str	r2, [r3, #16]

    /* Increment RxAddress pointer to second word of Rx FIFO element */
    RxAddress++;
 800157c:	6a7b      	ldr	r3, [r7, #36]	; 0x24
 800157e:	3304      	adds	r3, #4
 8001580:	627b      	str	r3, [r7, #36]	; 0x24

    /* Retrieve RxTimestamp */
    pRxHeader->RxTimestamp = (*RxAddress & FDCAN_ELEMENT_MASK_TS);
 8001582:	6a7b      	ldr	r3, [r7, #36]	; 0x24
 8001584:	681b      	ldr	r3, [r3, #0]
 8001586:	b29a      	uxth	r2, r3
 8001588:	687b      	ldr	r3, [r7, #4]
 800158a:	61da      	str	r2, [r3, #28]

    /* Retrieve DataLength */
    pRxHeader->DataLength = (*RxAddress & FDCAN_ELEMENT_MASK_DLC);
 800158c:	6a7b      	ldr	r3, [r7, #36]	; 0x24
 800158e:	681b      	ldr	r3, [r3, #0]
 8001590:	f403 2270 	and.w	r2, r3, #983040	; 0xf0000
 8001594:	687b      	ldr	r3, [r7, #4]
 8001596:	60da      	str	r2, [r3, #12]

    /* Retrieve BitRateSwitch */
    pRxHeader->BitRateSwitch = (*RxAddress & FDCAN_ELEMENT_MASK_BRS);
 8001598:	6a7b      	ldr	r3, [r7, #36]	; 0x24
 800159a:	681b      	ldr	r3, [r3, #0]
 800159c:	f403 1280 	and.w	r2, r3, #1048576	; 0x100000
 80015a0:	687b      	ldr	r3, [r7, #4]
 80015a2:	615a      	str	r2, [r3, #20]

    /* Retrieve FDFormat */
    pRxHeader->FDFormat = (*RxAddress & FDCAN_ELEMENT_MASK_FDF);
 80015a4:	6a7b      	ldr	r3, [r7, #36]	; 0x24
 80015a6:	681b      	ldr	r3, [r3, #0]
 80015a8:	f403 1200 	and.w	r2, r3, #2097152	; 0x200000
 80015ac:	687b      	ldr	r3, [r7, #4]
 80015ae:	619a      	str	r2, [r3, #24]

    /* Retrieve FilterIndex */
    pRxHeader->FilterIndex = ((*RxAddress & FDCAN_ELEMENT_MASK_FIDX) >> 24);
 80015b0:	6a7b      	ldr	r3, [r7, #36]	; 0x24
 80015b2:	681b      	ldr	r3, [r3, #0]
 80015b4:	0e1b      	lsrs	r3, r3, #24
 80015b6:	f003 027f 	and.w	r2, r3, #127	; 0x7f
 80015ba:	687b      	ldr	r3, [r7, #4]
 80015bc:	621a      	str	r2, [r3, #32]

    /* Retrieve NonMatchingFrame */
    pRxHeader->IsFilterMatchingFrame = ((*RxAddress & FDCAN_ELEMENT_MASK_ANMF) >> 31);
 80015be:	6a7b      	ldr	r3, [r7, #36]	; 0x24
 80015c0:	681b      	ldr	r3, [r3, #0]
 80015c2:	0fda      	lsrs	r2, r3, #31
 80015c4:	687b      	ldr	r3, [r7, #4]
 80015c6:	625a      	str	r2, [r3, #36]	; 0x24

    /* Increment RxAddress pointer to payload of Rx FIFO element */
    RxAddress++;
 80015c8:	6a7b      	ldr	r3, [r7, #36]	; 0x24
 80015ca:	3304      	adds	r3, #4
 80015cc:	627b      	str	r3, [r7, #36]	; 0x24

    /* Retrieve Rx payload */
    pData = (uint8_t *)RxAddress;
 80015ce:	6a7b      	ldr	r3, [r7, #36]	; 0x24
 80015d0:	617b      	str	r3, [r7, #20]
    for (ByteCounter = 0; ByteCounter < DLCtoBytes[pRxHeader->DataLength >> 16]; ByteCounter++)
 80015d2:	2300      	movs	r3, #0
 80015d4:	623b      	str	r3, [r7, #32]
 80015d6:	e00a      	b.n	80015ee <HAL_FDCAN_GetRxMessage+0x252>
    {
      pRxData[ByteCounter] = pData[ByteCounter];
 80015d8:	697a      	ldr	r2, [r7, #20]
 80015da:	6a3b      	ldr	r3, [r7, #32]
 80015dc:	441a      	add	r2, r3
 80015de:	6839      	ldr	r1, [r7, #0]
 80015e0:	6a3b      	ldr	r3, [r7, #32]
 80015e2:	440b      	add	r3, r1
 80015e4:	7812      	ldrb	r2, [r2, #0]
 80015e6:	701a      	strb	r2, [r3, #0]
    for (ByteCounter = 0; ByteCounter < DLCtoBytes[pRxHeader->DataLength >> 16]; ByteCounter++)
 80015e8:	6a3b      	ldr	r3, [r7, #32]
 80015ea:	3301      	adds	r3, #1
 80015ec:	623b      	str	r3, [r7, #32]
 80015ee:	687b      	ldr	r3, [r7, #4]
 80015f0:	68db      	ldr	r3, [r3, #12]
 80015f2:	0c1b      	lsrs	r3, r3, #16
 80015f4:	4a1f      	ldr	r2, [pc, #124]	; (8001674 <HAL_FDCAN_GetRxMessage+0x2d8>)
 80015f6:	5cd3      	ldrb	r3, [r2, r3]
 80015f8:	461a      	mov	r2, r3
 80015fa:	6a3b      	ldr	r3, [r7, #32]
 80015fc:	4293      	cmp	r3, r2
 80015fe:	d3eb      	bcc.n	80015d8 <HAL_FDCAN_GetRxMessage+0x23c>
    }

    if (RxLocation == FDCAN_RX_FIFO0) /* Rx element is assigned to the Rx FIFO 0 */
 8001600:	68bb      	ldr	r3, [r7, #8]
 8001602:	2b40      	cmp	r3, #64	; 0x40
 8001604:	d105      	bne.n	8001612 <HAL_FDCAN_GetRxMessage+0x276>
    {
      /* Acknowledge the Rx FIFO 0 that the oldest element is read so that it increments the GetIndex */
      hfdcan->Instance->RXF0A = GetIndex;
 8001606:	68fb      	ldr	r3, [r7, #12]
 8001608:	681b      	ldr	r3, [r3, #0]
 800160a:	69fa      	ldr	r2, [r7, #28]
 800160c:	f8c3 20a8 	str.w	r2, [r3, #168]	; 0xa8
 8001610:	e01e      	b.n	8001650 <HAL_FDCAN_GetRxMessage+0x2b4>
    }
    else if (RxLocation == FDCAN_RX_FIFO1) /* Rx element is assigned to the Rx FIFO 1 */
 8001612:	68bb      	ldr	r3, [r7, #8]
 8001614:	2b41      	cmp	r3, #65	; 0x41
 8001616:	d105      	bne.n	8001624 <HAL_FDCAN_GetRxMessage+0x288>
    {
      /* Acknowledge the Rx FIFO 1 that the oldest element is read so that it increments the GetIndex */
      hfdcan->Instance->RXF1A = GetIndex;
 8001618:	68fb      	ldr	r3, [r7, #12]
 800161a:	681b      	ldr	r3, [r3, #0]
 800161c:	69fa      	ldr	r2, [r7, #28]
 800161e:	f8c3 20b8 	str.w	r2, [r3, #184]	; 0xb8
 8001622:	e015      	b.n	8001650 <HAL_FDCAN_GetRxMessage+0x2b4>
    }
    else /* Rx element is assigned to a dedicated Rx buffer */
    {
      /* Clear the New Data flag of the current Rx buffer */
      if (RxLocation < FDCAN_RX_BUFFER32)
 8001624:	68bb      	ldr	r3, [r7, #8]
 8001626:	2b1f      	cmp	r3, #31
 8001628:	d808      	bhi.n	800163c <HAL_FDCAN_GetRxMessage+0x2a0>
      {
        hfdcan->Instance->NDAT1 = ((uint32_t)1 << RxLocation);
 800162a:	68fb      	ldr	r3, [r7, #12]
 800162c:	681b      	ldr	r3, [r3, #0]
 800162e:	2101      	movs	r1, #1
 8001630:	68ba      	ldr	r2, [r7, #8]
 8001632:	fa01 f202 	lsl.w	r2, r1, r2
 8001636:	f8c3 2098 	str.w	r2, [r3, #152]	; 0x98
 800163a:	e009      	b.n	8001650 <HAL_FDCAN_GetRxMessage+0x2b4>
      }
      else /* FDCAN_RX_BUFFER32 <= RxLocation <= FDCAN_RX_BUFFER63 */
      {
        hfdcan->Instance->NDAT2 = ((uint32_t)1 << (RxLocation & 0x1FU));
 800163c:	68bb      	ldr	r3, [r7, #8]
 800163e:	f003 021f 	and.w	r2, r3, #31
 8001642:	68fb      	ldr	r3, [r7, #12]
 8001644:	681b      	ldr	r3, [r3, #0]
 8001646:	2101      	movs	r1, #1
 8001648:	fa01 f202 	lsl.w	r2, r1, r2
 800164c:	f8c3 209c 	str.w	r2, [r3, #156]	; 0x9c
      }
    }

    /* Return function status */
    return HAL_OK;
 8001650:	2300      	movs	r3, #0
 8001652:	e008      	b.n	8001666 <HAL_FDCAN_GetRxMessage+0x2ca>
  }
  else
  {
    /* Update error code */
    hfdcan->ErrorCode |= HAL_FDCAN_ERROR_NOT_STARTED;
 8001654:	68fb      	ldr	r3, [r7, #12]
 8001656:	f8d3 309c 	ldr.w	r3, [r3, #156]	; 0x9c
 800165a:	f043 0208 	orr.w	r2, r3, #8
 800165e:	68fb      	ldr	r3, [r7, #12]
 8001660:	f8c3 209c 	str.w	r2, [r3, #156]	; 0x9c

    return HAL_ERROR;
 8001664:	2301      	movs	r3, #1
  }
}
 8001666:	4618      	mov	r0, r3
 8001668:	372c      	adds	r7, #44	; 0x2c
 800166a:	46bd      	mov	sp, r7
 800166c:	f85d 7b04 	ldr.w	r7, [sp], #4
 8001670:	4770      	bx	lr
 8001672:	bf00      	nop
 8001674:	080045ec 	.word	0x080045ec

08001678 <HAL_FDCAN_ActivateNotification>:
  *           - FDCAN_IT_TX_COMPLETE
  *           - FDCAN_IT_TX_ABORT_COMPLETE
  * @retval HAL status
  */
HAL_StatusTypeDef HAL_FDCAN_ActivateNotification(FDCAN_HandleTypeDef *hfdcan, uint32_t ActiveITs, uint32_t BufferIndexes)
{
 8001678:	b480      	push	{r7}
 800167a:	b087      	sub	sp, #28
 800167c:	af00      	add	r7, sp, #0
 800167e:	60f8      	str	r0, [r7, #12]
 8001680:	60b9      	str	r1, [r7, #8]
 8001682:	607a      	str	r2, [r7, #4]
  HAL_FDCAN_StateTypeDef state = hfdcan->State;
 8001684:	68fb      	ldr	r3, [r7, #12]
 8001686:	f893 3098 	ldrb.w	r3, [r3, #152]	; 0x98
 800168a:	75fb      	strb	r3, [r7, #23]

  /* Check function parameters */
  assert_param(IS_FDCAN_IT(ActiveITs));

  if ((state == HAL_FDCAN_STATE_READY) || (state == HAL_FDCAN_STATE_BUSY))
 800168c:	7dfb      	ldrb	r3, [r7, #23]
 800168e:	2b01      	cmp	r3, #1
 8001690:	d002      	beq.n	8001698 <HAL_FDCAN_ActivateNotification+0x20>
 8001692:	7dfb      	ldrb	r3, [r7, #23]
 8001694:	2b02      	cmp	r3, #2
 8001696:	d155      	bne.n	8001744 <HAL_FDCAN_ActivateNotification+0xcc>
  {
    /* Enable Interrupt lines */
    if ((ActiveITs & hfdcan->Instance->ILS) == 0U)
 8001698:	68fb      	ldr	r3, [r7, #12]
 800169a:	681b      	ldr	r3, [r3, #0]
 800169c:	6d9a      	ldr	r2, [r3, #88]	; 0x58
 800169e:	68bb      	ldr	r3, [r7, #8]
 80016a0:	4013      	ands	r3, r2
 80016a2:	2b00      	cmp	r3, #0
 80016a4:	d108      	bne.n	80016b8 <HAL_FDCAN_ActivateNotification+0x40>
    {
      /* Enable Interrupt line 0 */
      SET_BIT(hfdcan->Instance->ILE, FDCAN_INTERRUPT_LINE0);
 80016a6:	68fb      	ldr	r3, [r7, #12]
 80016a8:	681b      	ldr	r3, [r3, #0]
 80016aa:	6dda      	ldr	r2, [r3, #92]	; 0x5c
 80016ac:	68fb      	ldr	r3, [r7, #12]
 80016ae:	681b      	ldr	r3, [r3, #0]
 80016b0:	f042 0201 	orr.w	r2, r2, #1
 80016b4:	65da      	str	r2, [r3, #92]	; 0x5c
 80016b6:	e014      	b.n	80016e2 <HAL_FDCAN_ActivateNotification+0x6a>
    }
    else if ((ActiveITs & hfdcan->Instance->ILS) == ActiveITs)
 80016b8:	68fb      	ldr	r3, [r7, #12]
 80016ba:	681b      	ldr	r3, [r3, #0]
 80016bc:	6d9a      	ldr	r2, [r3, #88]	; 0x58
 80016be:	68bb      	ldr	r3, [r7, #8]
 80016c0:	4013      	ands	r3, r2
 80016c2:	68ba      	ldr	r2, [r7, #8]
 80016c4:	429a      	cmp	r2, r3
 80016c6:	d108      	bne.n	80016da <HAL_FDCAN_ActivateNotification+0x62>
    {
      /* Enable Interrupt line 1 */
      SET_BIT(hfdcan->Instance->ILE, FDCAN_INTERRUPT_LINE1);
 80016c8:	68fb      	ldr	r3, [r7, #12]
 80016ca:	681b      	ldr	r3, [r3, #0]
 80016cc:	6dda      	ldr	r2, [r3, #92]	; 0x5c
 80016ce:	68fb      	ldr	r3, [r7, #12]
 80016d0:	681b      	ldr	r3, [r3, #0]
 80016d2:	f042 0202 	orr.w	r2, r2, #2
 80016d6:	65da      	str	r2, [r3, #92]	; 0x5c
 80016d8:	e003      	b.n	80016e2 <HAL_FDCAN_ActivateNotification+0x6a>
    }
    else
    {
      /* Enable Interrupt lines 0 and 1 */
      hfdcan->Instance->ILE = (FDCAN_INTERRUPT_LINE0 | FDCAN_INTERRUPT_LINE1);
 80016da:	68fb      	ldr	r3, [r7, #12]
 80016dc:	681b      	ldr	r3, [r3, #0]
 80016de:	2203      	movs	r2, #3
 80016e0:	65da      	str	r2, [r3, #92]	; 0x5c
    }

    if ((ActiveITs & FDCAN_IT_TX_COMPLETE) != 0U)
 80016e2:	68bb      	ldr	r3, [r7, #8]
 80016e4:	f403 7300 	and.w	r3, r3, #512	; 0x200
 80016e8:	2b00      	cmp	r3, #0
 80016ea:	d009      	beq.n	8001700 <HAL_FDCAN_ActivateNotification+0x88>
    {
      /* Enable Tx Buffer Transmission Interrupt to set TC flag in IR register,
         but interrupt will only occure if TC is enabled in IE register */
      SET_BIT(hfdcan->Instance->TXBTIE, BufferIndexes);
 80016ec:	68fb      	ldr	r3, [r7, #12]
 80016ee:	681b      	ldr	r3, [r3, #0]
 80016f0:	f8d3 10e0 	ldr.w	r1, [r3, #224]	; 0xe0
 80016f4:	68fb      	ldr	r3, [r7, #12]
 80016f6:	681b      	ldr	r3, [r3, #0]
 80016f8:	687a      	ldr	r2, [r7, #4]
 80016fa:	430a      	orrs	r2, r1
 80016fc:	f8c3 20e0 	str.w	r2, [r3, #224]	; 0xe0
    }

    if ((ActiveITs & FDCAN_IT_TX_ABORT_COMPLETE) != 0U)
 8001700:	68bb      	ldr	r3, [r7, #8]
 8001702:	f403 6380 	and.w	r3, r3, #1024	; 0x400
 8001706:	2b00      	cmp	r3, #0
 8001708:	d009      	beq.n	800171e <HAL_FDCAN_ActivateNotification+0xa6>
    {
      /* Enable Tx Buffer Cancellation Finished Interrupt to set TCF flag in IR register,
         but interrupt will only occure if TCF is enabled in IE register */
      SET_BIT(hfdcan->Instance->TXBCIE, BufferIndexes);
 800170a:	68fb      	ldr	r3, [r7, #12]
 800170c:	681b      	ldr	r3, [r3, #0]
 800170e:	f8d3 10e4 	ldr.w	r1, [r3, #228]	; 0xe4
 8001712:	68fb      	ldr	r3, [r7, #12]
 8001714:	681b      	ldr	r3, [r3, #0]
 8001716:	687a      	ldr	r2, [r7, #4]
 8001718:	430a      	orrs	r2, r1
 800171a:	f8c3 20e4 	str.w	r2, [r3, #228]	; 0xe4
    }

    /* Enable the selected interrupts */
    __HAL_FDCAN_ENABLE_IT(hfdcan, ActiveITs);
 800171e:	68fb      	ldr	r3, [r7, #12]
 8001720:	681b      	ldr	r3, [r3, #0]
 8001722:	6d59      	ldr	r1, [r3, #84]	; 0x54
 8001724:	68ba      	ldr	r2, [r7, #8]
 8001726:	4b0f      	ldr	r3, [pc, #60]	; (8001764 <HAL_FDCAN_ActivateNotification+0xec>)
 8001728:	4013      	ands	r3, r2
 800172a:	68fa      	ldr	r2, [r7, #12]
 800172c:	6812      	ldr	r2, [r2, #0]
 800172e:	430b      	orrs	r3, r1
 8001730:	6553      	str	r3, [r2, #84]	; 0x54
 8001732:	4b0d      	ldr	r3, [pc, #52]	; (8001768 <HAL_FDCAN_ActivateNotification+0xf0>)
 8001734:	695a      	ldr	r2, [r3, #20]
 8001736:	68bb      	ldr	r3, [r7, #8]
 8001738:	0f9b      	lsrs	r3, r3, #30
 800173a:	490b      	ldr	r1, [pc, #44]	; (8001768 <HAL_FDCAN_ActivateNotification+0xf0>)
 800173c:	4313      	orrs	r3, r2
 800173e:	614b      	str	r3, [r1, #20]

    /* Return function status */
    return HAL_OK;
 8001740:	2300      	movs	r3, #0
 8001742:	e008      	b.n	8001756 <HAL_FDCAN_ActivateNotification+0xde>
  }
  else
  {
    /* Update error code */
    hfdcan->ErrorCode |= HAL_FDCAN_ERROR_NOT_INITIALIZED;
 8001744:	68fb      	ldr	r3, [r7, #12]
 8001746:	f8d3 309c 	ldr.w	r3, [r3, #156]	; 0x9c
 800174a:	f043 0202 	orr.w	r2, r3, #2
 800174e:	68fb      	ldr	r3, [r7, #12]
 8001750:	f8c3 209c 	str.w	r2, [r3, #156]	; 0x9c

    return HAL_ERROR;
 8001754:	2301      	movs	r3, #1
  }
}
 8001756:	4618      	mov	r0, r3
 8001758:	371c      	adds	r7, #28
 800175a:	46bd      	mov	sp, r7
 800175c:	f85d 7b04 	ldr.w	r7, [sp], #4
 8001760:	4770      	bx	lr
 8001762:	bf00      	nop
 8001764:	3fcfffff 	.word	0x3fcfffff
 8001768:	4000a800 	.word	0x4000a800

0800176c <HAL_FDCAN_IRQHandler>:
  * @param  hfdcan pointer to an FDCAN_HandleTypeDef structure that contains
  *         the configuration information for the specified FDCAN.
  * @retval HAL status
  */
void HAL_FDCAN_IRQHandler(FDCAN_HandleTypeDef *hfdcan)
{
 800176c:	b580      	push	{r7, lr}
 800176e:	b092      	sub	sp, #72	; 0x48
 8001770:	af00      	add	r7, sp, #0
 8001772:	6078      	str	r0, [r7, #4]
  uint32_t TTDistErrors;
  uint32_t TTFatalErrors;
  uint32_t SWTime;
  uint32_t SWCycleCount;

  ClkCalibrationITs = (FDCAN_CCU->IR << 30);
 8001774:	4b90      	ldr	r3, [pc, #576]	; (80019b8 <HAL_FDCAN_IRQHandler+0x24c>)
 8001776:	691b      	ldr	r3, [r3, #16]
 8001778:	079b      	lsls	r3, r3, #30
 800177a:	647b      	str	r3, [r7, #68]	; 0x44
  ClkCalibrationITs &= (FDCAN_CCU->IE << 30);
 800177c:	4b8e      	ldr	r3, [pc, #568]	; (80019b8 <HAL_FDCAN_IRQHandler+0x24c>)
 800177e:	695b      	ldr	r3, [r3, #20]
 8001780:	079b      	lsls	r3, r3, #30
 8001782:	6c7a      	ldr	r2, [r7, #68]	; 0x44
 8001784:	4013      	ands	r3, r2
 8001786:	647b      	str	r3, [r7, #68]	; 0x44
  TxEventFifoITs = hfdcan->Instance->IR & FDCAN_TX_EVENT_FIFO_MASK;
 8001788:	687b      	ldr	r3, [r7, #4]
 800178a:	681b      	ldr	r3, [r3, #0]
 800178c:	6d1b      	ldr	r3, [r3, #80]	; 0x50
 800178e:	f403 4370 	and.w	r3, r3, #61440	; 0xf000
 8001792:	643b      	str	r3, [r7, #64]	; 0x40
  TxEventFifoITs &= hfdcan->Instance->IE;
 8001794:	687b      	ldr	r3, [r7, #4]
 8001796:	681b      	ldr	r3, [r3, #0]
 8001798:	6d5b      	ldr	r3, [r3, #84]	; 0x54
 800179a:	6c3a      	ldr	r2, [r7, #64]	; 0x40
 800179c:	4013      	ands	r3, r2
 800179e:	643b      	str	r3, [r7, #64]	; 0x40
  RxFifo0ITs = hfdcan->Instance->IR & FDCAN_RX_FIFO0_MASK;
 80017a0:	687b      	ldr	r3, [r7, #4]
 80017a2:	681b      	ldr	r3, [r3, #0]
 80017a4:	6d1b      	ldr	r3, [r3, #80]	; 0x50
 80017a6:	f003 030f 	and.w	r3, r3, #15
 80017aa:	63fb      	str	r3, [r7, #60]	; 0x3c
  RxFifo0ITs &= hfdcan->Instance->IE;
 80017ac:	687b      	ldr	r3, [r7, #4]
 80017ae:	681b      	ldr	r3, [r3, #0]
 80017b0:	6d5b      	ldr	r3, [r3, #84]	; 0x54
 80017b2:	6bfa      	ldr	r2, [r7, #60]	; 0x3c
 80017b4:	4013      	ands	r3, r2
 80017b6:	63fb      	str	r3, [r7, #60]	; 0x3c
  RxFifo1ITs = hfdcan->Instance->IR & FDCAN_RX_FIFO1_MASK;
 80017b8:	687b      	ldr	r3, [r7, #4]
 80017ba:	681b      	ldr	r3, [r3, #0]
 80017bc:	6d1b      	ldr	r3, [r3, #80]	; 0x50
 80017be:	f003 03f0 	and.w	r3, r3, #240	; 0xf0
 80017c2:	63bb      	str	r3, [r7, #56]	; 0x38
  RxFifo1ITs &= hfdcan->Instance->IE;
 80017c4:	687b      	ldr	r3, [r7, #4]
 80017c6:	681b      	ldr	r3, [r3, #0]
 80017c8:	6d5b      	ldr	r3, [r3, #84]	; 0x54
 80017ca:	6bba      	ldr	r2, [r7, #56]	; 0x38
 80017cc:	4013      	ands	r3, r2
 80017ce:	63bb      	str	r3, [r7, #56]	; 0x38
  Errors = hfdcan->Instance->IR & FDCAN_ERROR_MASK;
 80017d0:	687b      	ldr	r3, [r7, #4]
 80017d2:	681b      	ldr	r3, [r3, #0]
 80017d4:	6d1b      	ldr	r3, [r3, #80]	; 0x50
 80017d6:	f003 5371 	and.w	r3, r3, #1010827264	; 0x3c400000
 80017da:	637b      	str	r3, [r7, #52]	; 0x34
  Errors &= hfdcan->Instance->IE;
 80017dc:	687b      	ldr	r3, [r7, #4]
 80017de:	681b      	ldr	r3, [r3, #0]
 80017e0:	6d5b      	ldr	r3, [r3, #84]	; 0x54
 80017e2:	6b7a      	ldr	r2, [r7, #52]	; 0x34
 80017e4:	4013      	ands	r3, r2
 80017e6:	637b      	str	r3, [r7, #52]	; 0x34
  ErrorStatusITs = hfdcan->Instance->IR & FDCAN_ERROR_STATUS_MASK;
 80017e8:	687b      	ldr	r3, [r7, #4]
 80017ea:	681b      	ldr	r3, [r3, #0]
 80017ec:	6d1b      	ldr	r3, [r3, #80]	; 0x50
 80017ee:	f003 7360 	and.w	r3, r3, #58720256	; 0x3800000
 80017f2:	633b      	str	r3, [r7, #48]	; 0x30
  ErrorStatusITs &= hfdcan->Instance->IE;
 80017f4:	687b      	ldr	r3, [r7, #4]
 80017f6:	681b      	ldr	r3, [r3, #0]
 80017f8:	6d5b      	ldr	r3, [r3, #84]	; 0x54
 80017fa:	6b3a      	ldr	r2, [r7, #48]	; 0x30
 80017fc:	4013      	ands	r3, r2
 80017fe:	633b      	str	r3, [r7, #48]	; 0x30

  /* High Priority Message interrupt management *******************************/
  if (__HAL_FDCAN_GET_IT_SOURCE(hfdcan, FDCAN_IT_RX_HIGH_PRIORITY_MSG) != 0U)
 8001800:	687b      	ldr	r3, [r7, #4]
 8001802:	681b      	ldr	r3, [r3, #0]
 8001804:	6d5b      	ldr	r3, [r3, #84]	; 0x54
 8001806:	f403 7380 	and.w	r3, r3, #256	; 0x100
 800180a:	2b00      	cmp	r3, #0
 800180c:	d011      	beq.n	8001832 <HAL_FDCAN_IRQHandler+0xc6>
  {
    if (__HAL_FDCAN_GET_FLAG(hfdcan, FDCAN_FLAG_RX_HIGH_PRIORITY_MSG) != 0U)
 800180e:	687b      	ldr	r3, [r7, #4]
 8001810:	681b      	ldr	r3, [r3, #0]
 8001812:	6d1b      	ldr	r3, [r3, #80]	; 0x50
 8001814:	f403 7380 	and.w	r3, r3, #256	; 0x100
 8001818:	2b00      	cmp	r3, #0
 800181a:	d00a      	beq.n	8001832 <HAL_FDCAN_IRQHandler+0xc6>
    {
      /* Clear the High Priority Message flag */
      __HAL_FDCAN_CLEAR_FLAG(hfdcan, FDCAN_FLAG_RX_HIGH_PRIORITY_MSG);
 800181c:	687b      	ldr	r3, [r7, #4]
 800181e:	681b      	ldr	r3, [r3, #0]
 8001820:	f44f 7280 	mov.w	r2, #256	; 0x100
 8001824:	651a      	str	r2, [r3, #80]	; 0x50
 8001826:	4b64      	ldr	r3, [pc, #400]	; (80019b8 <HAL_FDCAN_IRQHandler+0x24c>)
 8001828:	2200      	movs	r2, #0
 800182a:	611a      	str	r2, [r3, #16]
#if USE_HAL_FDCAN_REGISTER_CALLBACKS == 1
      /* Call registered callback*/
      hfdcan->HighPriorityMessageCallback(hfdcan);
#else
      /* High Priority Message Callback */
      HAL_FDCAN_HighPriorityMessageCallback(hfdcan);
 800182c:	6878      	ldr	r0, [r7, #4]
 800182e:	f000 fa5a 	bl	8001ce6 <HAL_FDCAN_HighPriorityMessageCallback>
#endif /* USE_HAL_FDCAN_REGISTER_CALLBACKS */
    }
  }

  /* Transmission Abort interrupt management **********************************/
  if (__HAL_FDCAN_GET_IT_SOURCE(hfdcan, FDCAN_IT_TX_ABORT_COMPLETE) != 0U)
 8001832:	687b      	ldr	r3, [r7, #4]
 8001834:	681b      	ldr	r3, [r3, #0]
 8001836:	6d5b      	ldr	r3, [r3, #84]	; 0x54
 8001838:	f403 6380 	and.w	r3, r3, #1024	; 0x400
 800183c:	2b00      	cmp	r3, #0
 800183e:	d01e      	beq.n	800187e <HAL_FDCAN_IRQHandler+0x112>
  {
    if (__HAL_FDCAN_GET_FLAG(hfdcan, FDCAN_FLAG_TX_ABORT_COMPLETE) != 0U)
 8001840:	687b      	ldr	r3, [r7, #4]
 8001842:	681b      	ldr	r3, [r3, #0]
 8001844:	6d1b      	ldr	r3, [r3, #80]	; 0x50
 8001846:	f403 6380 	and.w	r3, r3, #1024	; 0x400
 800184a:	2b00      	cmp	r3, #0
 800184c:	d017      	beq.n	800187e <HAL_FDCAN_IRQHandler+0x112>
    {
      /* List of aborted monitored buffers */
      AbortedBuffers = hfdcan->Instance->TXBCF;
 800184e:	687b      	ldr	r3, [r7, #4]
 8001850:	681b      	ldr	r3, [r3, #0]
 8001852:	f8d3 30dc 	ldr.w	r3, [r3, #220]	; 0xdc
 8001856:	62fb      	str	r3, [r7, #44]	; 0x2c
      AbortedBuffers &= hfdcan->Instance->TXBCIE;
 8001858:	687b      	ldr	r3, [r7, #4]
 800185a:	681b      	ldr	r3, [r3, #0]
 800185c:	f8d3 30e4 	ldr.w	r3, [r3, #228]	; 0xe4
 8001860:	6afa      	ldr	r2, [r7, #44]	; 0x2c
 8001862:	4013      	ands	r3, r2
 8001864:	62fb      	str	r3, [r7, #44]	; 0x2c

      /* Clear the Transmission Cancellation flag */
      __HAL_FDCAN_CLEAR_FLAG(hfdcan, FDCAN_FLAG_TX_ABORT_COMPLETE);
 8001866:	687b      	ldr	r3, [r7, #4]
 8001868:	681b      	ldr	r3, [r3, #0]
 800186a:	f44f 6280 	mov.w	r2, #1024	; 0x400
 800186e:	651a      	str	r2, [r3, #80]	; 0x50
 8001870:	4b51      	ldr	r3, [pc, #324]	; (80019b8 <HAL_FDCAN_IRQHandler+0x24c>)
 8001872:	2200      	movs	r2, #0
 8001874:	611a      	str	r2, [r3, #16]
#if USE_HAL_FDCAN_REGISTER_CALLBACKS == 1
      /* Call registered callback*/
      hfdcan->TxBufferAbortCallback(hfdcan, AbortedBuffers);
#else
      /* Transmission Cancellation Callback */
      HAL_FDCAN_TxBufferAbortCallback(hfdcan, AbortedBuffers);
 8001876:	6af9      	ldr	r1, [r7, #44]	; 0x2c
 8001878:	6878      	ldr	r0, [r7, #4]
 800187a:	f000 fa0b 	bl	8001c94 <HAL_FDCAN_TxBufferAbortCallback>
#endif /* USE_HAL_FDCAN_REGISTER_CALLBACKS */
    }
  }

  /* Clock calibration unit interrupts management *****************************/
  if (ClkCalibrationITs != 0U)
 800187e:	6c7b      	ldr	r3, [r7, #68]	; 0x44
 8001880:	2b00      	cmp	r3, #0
 8001882:	d00d      	beq.n	80018a0 <HAL_FDCAN_IRQHandler+0x134>
  {
    /* Clear the Clock Calibration flags */
    __HAL_FDCAN_CLEAR_FLAG(hfdcan, ClkCalibrationITs);
 8001884:	687b      	ldr	r3, [r7, #4]
 8001886:	681a      	ldr	r2, [r3, #0]
 8001888:	6c79      	ldr	r1, [r7, #68]	; 0x44
 800188a:	4b4c      	ldr	r3, [pc, #304]	; (80019bc <HAL_FDCAN_IRQHandler+0x250>)
 800188c:	400b      	ands	r3, r1
 800188e:	6513      	str	r3, [r2, #80]	; 0x50
 8001890:	4a49      	ldr	r2, [pc, #292]	; (80019b8 <HAL_FDCAN_IRQHandler+0x24c>)
 8001892:	6c7b      	ldr	r3, [r7, #68]	; 0x44
 8001894:	0f9b      	lsrs	r3, r3, #30
 8001896:	6113      	str	r3, [r2, #16]
#if USE_HAL_FDCAN_REGISTER_CALLBACKS == 1
    /* Call registered callback*/
    hfdcan->ClockCalibrationCallback(hfdcan, ClkCalibrationITs);
#else
    /* Clock Calibration Callback */
    HAL_FDCAN_ClockCalibrationCallback(hfdcan, ClkCalibrationITs);
 8001898:	6c79      	ldr	r1, [r7, #68]	; 0x44
 800189a:	6878      	ldr	r0, [r7, #4]
 800189c:	f000 f9c4 	bl	8001c28 <HAL_FDCAN_ClockCalibrationCallback>
#endif /* USE_HAL_FDCAN_REGISTER_CALLBACKS */
  }

  /* Tx event FIFO interrupts management **************************************/
  if (TxEventFifoITs != 0U)
 80018a0:	6c3b      	ldr	r3, [r7, #64]	; 0x40
 80018a2:	2b00      	cmp	r3, #0
 80018a4:	d00d      	beq.n	80018c2 <HAL_FDCAN_IRQHandler+0x156>
  {
    /* Clear the Tx Event FIFO flags */
    __HAL_FDCAN_CLEAR_FLAG(hfdcan, TxEventFifoITs);
 80018a6:	687b      	ldr	r3, [r7, #4]
 80018a8:	681a      	ldr	r2, [r3, #0]
 80018aa:	6c39      	ldr	r1, [r7, #64]	; 0x40
 80018ac:	4b43      	ldr	r3, [pc, #268]	; (80019bc <HAL_FDCAN_IRQHandler+0x250>)
 80018ae:	400b      	ands	r3, r1
 80018b0:	6513      	str	r3, [r2, #80]	; 0x50
 80018b2:	4a41      	ldr	r2, [pc, #260]	; (80019b8 <HAL_FDCAN_IRQHandler+0x24c>)
 80018b4:	6c3b      	ldr	r3, [r7, #64]	; 0x40
 80018b6:	0f9b      	lsrs	r3, r3, #30
 80018b8:	6113      	str	r3, [r2, #16]
#if USE_HAL_FDCAN_REGISTER_CALLBACKS == 1
    /* Call registered callback*/
    hfdcan->TxEventFifoCallback(hfdcan, TxEventFifoITs);
#else
    /* Tx Event FIFO Callback */
    HAL_FDCAN_TxEventFifoCallback(hfdcan, TxEventFifoITs);
 80018ba:	6c39      	ldr	r1, [r7, #64]	; 0x40
 80018bc:	6878      	ldr	r0, [r7, #4]
 80018be:	f000 f9be 	bl	8001c3e <HAL_FDCAN_TxEventFifoCallback>
#endif /* USE_HAL_FDCAN_REGISTER_CALLBACKS */
  }

  /* Rx FIFO 0 interrupts management ******************************************/
  if (RxFifo0ITs != 0U)
 80018c2:	6bfb      	ldr	r3, [r7, #60]	; 0x3c
 80018c4:	2b00      	cmp	r3, #0
 80018c6:	d00d      	beq.n	80018e4 <HAL_FDCAN_IRQHandler+0x178>
  {
    /* Clear the Rx FIFO 0 flags */
    __HAL_FDCAN_CLEAR_FLAG(hfdcan, RxFifo0ITs);
 80018c8:	687b      	ldr	r3, [r7, #4]
 80018ca:	681a      	ldr	r2, [r3, #0]
 80018cc:	6bf9      	ldr	r1, [r7, #60]	; 0x3c
 80018ce:	4b3b      	ldr	r3, [pc, #236]	; (80019bc <HAL_FDCAN_IRQHandler+0x250>)
 80018d0:	400b      	ands	r3, r1
 80018d2:	6513      	str	r3, [r2, #80]	; 0x50
 80018d4:	4a38      	ldr	r2, [pc, #224]	; (80019b8 <HAL_FDCAN_IRQHandler+0x24c>)
 80018d6:	6bfb      	ldr	r3, [r7, #60]	; 0x3c
 80018d8:	0f9b      	lsrs	r3, r3, #30
 80018da:	6113      	str	r3, [r2, #16]
#if USE_HAL_FDCAN_REGISTER_CALLBACKS == 1
    /* Call registered callback*/
    hfdcan->RxFifo0Callback(hfdcan, RxFifo0ITs);
#else
    /* Rx FIFO 0 Callback */
    HAL_FDCAN_RxFifo0Callback(hfdcan, RxFifo0ITs);
 80018dc:	6bf9      	ldr	r1, [r7, #60]	; 0x3c
 80018de:	6878      	ldr	r0, [r7, #4]
 80018e0:	f7fe ff5a 	bl	8000798 <HAL_FDCAN_RxFifo0Callback>
#endif /* USE_HAL_FDCAN_REGISTER_CALLBACKS */
  }

  /* Rx FIFO 1 interrupts management ******************************************/
  if (RxFifo1ITs != 0U)
 80018e4:	6bbb      	ldr	r3, [r7, #56]	; 0x38
 80018e6:	2b00      	cmp	r3, #0
 80018e8:	d00d      	beq.n	8001906 <HAL_FDCAN_IRQHandler+0x19a>
  {
    /* Clear the Rx FIFO 1 flags */
    __HAL_FDCAN_CLEAR_FLAG(hfdcan, RxFifo1ITs);
 80018ea:	687b      	ldr	r3, [r7, #4]
 80018ec:	681a      	ldr	r2, [r3, #0]
 80018ee:	6bb9      	ldr	r1, [r7, #56]	; 0x38
 80018f0:	4b32      	ldr	r3, [pc, #200]	; (80019bc <HAL_FDCAN_IRQHandler+0x250>)
 80018f2:	400b      	ands	r3, r1
 80018f4:	6513      	str	r3, [r2, #80]	; 0x50
 80018f6:	4a30      	ldr	r2, [pc, #192]	; (80019b8 <HAL_FDCAN_IRQHandler+0x24c>)
 80018f8:	6bbb      	ldr	r3, [r7, #56]	; 0x38
 80018fa:	0f9b      	lsrs	r3, r3, #30
 80018fc:	6113      	str	r3, [r2, #16]
#if USE_HAL_FDCAN_REGISTER_CALLBACKS == 1
    /* Call registered callback*/
    hfdcan->RxFifo1Callback(hfdcan, RxFifo1ITs);
#else
    /* Rx FIFO 1 Callback */
    HAL_FDCAN_RxFifo1Callback(hfdcan, RxFifo1ITs);
 80018fe:	6bb9      	ldr	r1, [r7, #56]	; 0x38
 8001900:	6878      	ldr	r0, [r7, #4]
 8001902:	f000 f9a7 	bl	8001c54 <HAL_FDCAN_RxFifo1Callback>
#endif /* USE_HAL_FDCAN_REGISTER_CALLBACKS */
  }

  /* Tx FIFO empty interrupt management ***************************************/
  if (__HAL_FDCAN_GET_IT_SOURCE(hfdcan, FDCAN_IT_TX_FIFO_EMPTY) != 0U)
 8001906:	687b      	ldr	r3, [r7, #4]
 8001908:	681b      	ldr	r3, [r3, #0]
 800190a:	6d5b      	ldr	r3, [r3, #84]	; 0x54
 800190c:	f403 6300 	and.w	r3, r3, #2048	; 0x800
 8001910:	2b00      	cmp	r3, #0
 8001912:	d011      	beq.n	8001938 <HAL_FDCAN_IRQHandler+0x1cc>
  {
    if (__HAL_FDCAN_GET_FLAG(hfdcan, FDCAN_FLAG_TX_FIFO_EMPTY) != 0U)
 8001914:	687b      	ldr	r3, [r7, #4]
 8001916:	681b      	ldr	r3, [r3, #0]
 8001918:	6d1b      	ldr	r3, [r3, #80]	; 0x50
 800191a:	f403 6300 	and.w	r3, r3, #2048	; 0x800
 800191e:	2b00      	cmp	r3, #0
 8001920:	d00a      	beq.n	8001938 <HAL_FDCAN_IRQHandler+0x1cc>
    {
      /* Clear the Tx FIFO empty flag */
      __HAL_FDCAN_CLEAR_FLAG(hfdcan, FDCAN_FLAG_TX_FIFO_EMPTY);
 8001922:	687b      	ldr	r3, [r7, #4]
 8001924:	681b      	ldr	r3, [r3, #0]
 8001926:	f44f 6200 	mov.w	r2, #2048	; 0x800
 800192a:	651a      	str	r2, [r3, #80]	; 0x50
 800192c:	4b22      	ldr	r3, [pc, #136]	; (80019b8 <HAL_FDCAN_IRQHandler+0x24c>)
 800192e:	2200      	movs	r2, #0
 8001930:	611a      	str	r2, [r3, #16]
#if USE_HAL_FDCAN_REGISTER_CALLBACKS == 1
      /* Call registered callback*/
      hfdcan->TxFifoEmptyCallback(hfdcan);
#else
      /* Tx FIFO empty Callback */
      HAL_FDCAN_TxFifoEmptyCallback(hfdcan);
 8001932:	6878      	ldr	r0, [r7, #4]
 8001934:	f000 f999 	bl	8001c6a <HAL_FDCAN_TxFifoEmptyCallback>
#endif /* USE_HAL_FDCAN_REGISTER_CALLBACKS */
    }
  }

  /* Transmission Complete interrupt management *******************************/
  if (__HAL_FDCAN_GET_IT_SOURCE(hfdcan, FDCAN_IT_TX_COMPLETE) != 0U)
 8001938:	687b      	ldr	r3, [r7, #4]
 800193a:	681b      	ldr	r3, [r3, #0]
 800193c:	6d5b      	ldr	r3, [r3, #84]	; 0x54
 800193e:	f403 7300 	and.w	r3, r3, #512	; 0x200
 8001942:	2b00      	cmp	r3, #0
 8001944:	d01e      	beq.n	8001984 <HAL_FDCAN_IRQHandler+0x218>
  {
    if (__HAL_FDCAN_GET_FLAG(hfdcan, FDCAN_FLAG_TX_COMPLETE) != 0U)
 8001946:	687b      	ldr	r3, [r7, #4]
 8001948:	681b      	ldr	r3, [r3, #0]
 800194a:	6d1b      	ldr	r3, [r3, #80]	; 0x50
 800194c:	f403 7300 	and.w	r3, r3, #512	; 0x200
 8001950:	2b00      	cmp	r3, #0
 8001952:	d017      	beq.n	8001984 <HAL_FDCAN_IRQHandler+0x218>
    {
      /* List of transmitted monitored buffers */
      TransmittedBuffers = hfdcan->Instance->TXBTO;
 8001954:	687b      	ldr	r3, [r7, #4]
 8001956:	681b      	ldr	r3, [r3, #0]
 8001958:	f8d3 30d8 	ldr.w	r3, [r3, #216]	; 0xd8
 800195c:	62bb      	str	r3, [r7, #40]	; 0x28
      TransmittedBuffers &= hfdcan->Instance->TXBTIE;
 800195e:	687b      	ldr	r3, [r7, #4]
 8001960:	681b      	ldr	r3, [r3, #0]
 8001962:	f8d3 30e0 	ldr.w	r3, [r3, #224]	; 0xe0
 8001966:	6aba      	ldr	r2, [r7, #40]	; 0x28
 8001968:	4013      	ands	r3, r2
 800196a:	62bb      	str	r3, [r7, #40]	; 0x28

      /* Clear the Transmission Complete flag */
      __HAL_FDCAN_CLEAR_FLAG(hfdcan, FDCAN_FLAG_TX_COMPLETE);
 800196c:	687b      	ldr	r3, [r7, #4]
 800196e:	681b      	ldr	r3, [r3, #0]
 8001970:	f44f 7200 	mov.w	r2, #512	; 0x200
 8001974:	651a      	str	r2, [r3, #80]	; 0x50
 8001976:	4b10      	ldr	r3, [pc, #64]	; (80019b8 <HAL_FDCAN_IRQHandler+0x24c>)
 8001978:	2200      	movs	r2, #0
 800197a:	611a      	str	r2, [r3, #16]
#if USE_HAL_FDCAN_REGISTER_CALLBACKS == 1
      /* Call registered callback*/
      hfdcan->TxBufferCompleteCallback(hfdcan, TransmittedBuffers);
#else
      /* Transmission Complete Callback */
      HAL_FDCAN_TxBufferCompleteCallback(hfdcan, TransmittedBuffers);
 800197c:	6ab9      	ldr	r1, [r7, #40]	; 0x28
 800197e:	6878      	ldr	r0, [r7, #4]
 8001980:	f000 f97d 	bl	8001c7e <HAL_FDCAN_TxBufferCompleteCallback>
#endif /* USE_HAL_FDCAN_REGISTER_CALLBACKS */
    }
  }

  /* Rx Buffer New Message interrupt management *******************************/
  if (__HAL_FDCAN_GET_IT_SOURCE(hfdcan, FDCAN_IT_RX_BUFFER_NEW_MESSAGE) != 0U)
 8001984:	687b      	ldr	r3, [r7, #4]
 8001986:	681b      	ldr	r3, [r3, #0]
 8001988:	6d5b      	ldr	r3, [r3, #84]	; 0x54
 800198a:	f403 2300 	and.w	r3, r3, #524288	; 0x80000
 800198e:	2b00      	cmp	r3, #0
 8001990:	d016      	beq.n	80019c0 <HAL_FDCAN_IRQHandler+0x254>
  {
    if (__HAL_FDCAN_GET_FLAG(hfdcan, FDCAN_FLAG_RX_BUFFER_NEW_MESSAGE) != 0U)
 8001992:	687b      	ldr	r3, [r7, #4]
 8001994:	681b      	ldr	r3, [r3, #0]
 8001996:	6d1b      	ldr	r3, [r3, #80]	; 0x50
 8001998:	f403 2300 	and.w	r3, r3, #524288	; 0x80000
 800199c:	2b00      	cmp	r3, #0
 800199e:	d00f      	beq.n	80019c0 <HAL_FDCAN_IRQHandler+0x254>
    {
      /* Clear the Rx Buffer New Message flag */
      __HAL_FDCAN_CLEAR_FLAG(hfdcan, FDCAN_FLAG_RX_BUFFER_NEW_MESSAGE);
 80019a0:	687b      	ldr	r3, [r7, #4]
 80019a2:	681b      	ldr	r3, [r3, #0]
 80019a4:	f44f 2200 	mov.w	r2, #524288	; 0x80000
 80019a8:	651a      	str	r2, [r3, #80]	; 0x50
 80019aa:	4b03      	ldr	r3, [pc, #12]	; (80019b8 <HAL_FDCAN_IRQHandler+0x24c>)
 80019ac:	2200      	movs	r2, #0
 80019ae:	611a      	str	r2, [r3, #16]
#if USE_HAL_FDCAN_REGISTER_CALLBACKS == 1
      /* Call registered callback*/
      hfdcan->RxBufferNewMessageCallback(hfdcan);
#else
      /* Rx Buffer New Message Callback */
      HAL_FDCAN_RxBufferNewMessageCallback(hfdcan);
 80019b0:	6878      	ldr	r0, [r7, #4]
 80019b2:	f000 f97a 	bl	8001caa <HAL_FDCAN_RxBufferNewMessageCallback>
 80019b6:	e003      	b.n	80019c0 <HAL_FDCAN_IRQHandler+0x254>
 80019b8:	4000a800 	.word	0x4000a800
 80019bc:	3fcfffff 	.word	0x3fcfffff
#endif /* USE_HAL_FDCAN_REGISTER_CALLBACKS */
    }
  }

  /* Timestamp Wraparound interrupt management ********************************/
  if (__HAL_FDCAN_GET_IT_SOURCE(hfdcan, FDCAN_IT_TIMESTAMP_WRAPAROUND) != 0U)
 80019c0:	687b      	ldr	r3, [r7, #4]
 80019c2:	681b      	ldr	r3, [r3, #0]
 80019c4:	6d5b      	ldr	r3, [r3, #84]	; 0x54
 80019c6:	f403 3380 	and.w	r3, r3, #65536	; 0x10000
 80019ca:	2b00      	cmp	r3, #0
 80019cc:	d011      	beq.n	80019f2 <HAL_FDCAN_IRQHandler+0x286>
  {
    if (__HAL_FDCAN_GET_FLAG(hfdcan, FDCAN_FLAG_TIMESTAMP_WRAPAROUND) != 0U)
 80019ce:	687b      	ldr	r3, [r7, #4]
 80019d0:	681b      	ldr	r3, [r3, #0]
 80019d2:	6d1b      	ldr	r3, [r3, #80]	; 0x50
 80019d4:	f403 3380 	and.w	r3, r3, #65536	; 0x10000
 80019d8:	2b00      	cmp	r3, #0
 80019da:	d00a      	beq.n	80019f2 <HAL_FDCAN_IRQHandler+0x286>
    {
      /* Clear the Timestamp Wraparound flag */
      __HAL_FDCAN_CLEAR_FLAG(hfdcan, FDCAN_FLAG_TIMESTAMP_WRAPAROUND);
 80019dc:	687b      	ldr	r3, [r7, #4]
 80019de:	681b      	ldr	r3, [r3, #0]
 80019e0:	f44f 3280 	mov.w	r2, #65536	; 0x10000
 80019e4:	651a      	str	r2, [r3, #80]	; 0x50
 80019e6:	4b8d      	ldr	r3, [pc, #564]	; (8001c1c <HAL_FDCAN_IRQHandler+0x4b0>)
 80019e8:	2200      	movs	r2, #0
 80019ea:	611a      	str	r2, [r3, #16]
#if USE_HAL_FDCAN_REGISTER_CALLBACKS == 1
      /* Call registered callback*/
      hfdcan->TimestampWraparoundCallback(hfdcan);
#else
      /* Timestamp Wraparound Callback */
      HAL_FDCAN_TimestampWraparoundCallback(hfdcan);
 80019ec:	6878      	ldr	r0, [r7, #4]
 80019ee:	f000 f966 	bl	8001cbe <HAL_FDCAN_TimestampWraparoundCallback>
#endif /* USE_HAL_FDCAN_REGISTER_CALLBACKS */
    }
  }

  /* Timeout Occurred interrupt management ************************************/
  if (__HAL_FDCAN_GET_IT_SOURCE(hfdcan, FDCAN_IT_TIMEOUT_OCCURRED) != 0U)
 80019f2:	687b      	ldr	r3, [r7, #4]
 80019f4:	681b      	ldr	r3, [r3, #0]
 80019f6:	6d5b      	ldr	r3, [r3, #84]	; 0x54
 80019f8:	f403 2380 	and.w	r3, r3, #262144	; 0x40000
 80019fc:	2b00      	cmp	r3, #0
 80019fe:	d011      	beq.n	8001a24 <HAL_FDCAN_IRQHandler+0x2b8>
  {
    if (__HAL_FDCAN_GET_FLAG(hfdcan, FDCAN_FLAG_TIMEOUT_OCCURRED) != 0U)
 8001a00:	687b      	ldr	r3, [r7, #4]
 8001a02:	681b      	ldr	r3, [r3, #0]
 8001a04:	6d1b      	ldr	r3, [r3, #80]	; 0x50
 8001a06:	f403 2380 	and.w	r3, r3, #262144	; 0x40000
 8001a0a:	2b00      	cmp	r3, #0
 8001a0c:	d00a      	beq.n	8001a24 <HAL_FDCAN_IRQHandler+0x2b8>
    {
      /* Clear the Timeout Occurred flag */
      __HAL_FDCAN_CLEAR_FLAG(hfdcan, FDCAN_FLAG_TIMEOUT_OCCURRED);
 8001a0e:	687b      	ldr	r3, [r7, #4]
 8001a10:	681b      	ldr	r3, [r3, #0]
 8001a12:	f44f 2280 	mov.w	r2, #262144	; 0x40000
 8001a16:	651a      	str	r2, [r3, #80]	; 0x50
 8001a18:	4b80      	ldr	r3, [pc, #512]	; (8001c1c <HAL_FDCAN_IRQHandler+0x4b0>)
 8001a1a:	2200      	movs	r2, #0
 8001a1c:	611a      	str	r2, [r3, #16]
#if USE_HAL_FDCAN_REGISTER_CALLBACKS == 1
      /* Call registered callback*/
      hfdcan->TimeoutOccurredCallback(hfdcan);
#else
      /* Timeout Occurred Callback */
      HAL_FDCAN_TimeoutOccurredCallback(hfdcan);
 8001a1e:	6878      	ldr	r0, [r7, #4]
 8001a20:	f000 f957 	bl	8001cd2 <HAL_FDCAN_TimeoutOccurredCallback>
#endif /* USE_HAL_FDCAN_REGISTER_CALLBACKS */
    }
  }

  /* Message RAM access failure interrupt management **************************/
  if (__HAL_FDCAN_GET_IT_SOURCE(hfdcan, FDCAN_IT_RAM_ACCESS_FAILURE) != 0U)
 8001a24:	687b      	ldr	r3, [r7, #4]
 8001a26:	681b      	ldr	r3, [r3, #0]
 8001a28:	6d5b      	ldr	r3, [r3, #84]	; 0x54
 8001a2a:	f403 3300 	and.w	r3, r3, #131072	; 0x20000
 8001a2e:	2b00      	cmp	r3, #0
 8001a30:	d016      	beq.n	8001a60 <HAL_FDCAN_IRQHandler+0x2f4>
  {
    if (__HAL_FDCAN_GET_FLAG(hfdcan, FDCAN_FLAG_RAM_ACCESS_FAILURE) != 0U)
 8001a32:	687b      	ldr	r3, [r7, #4]
 8001a34:	681b      	ldr	r3, [r3, #0]
 8001a36:	6d1b      	ldr	r3, [r3, #80]	; 0x50
 8001a38:	f403 3300 	and.w	r3, r3, #131072	; 0x20000
 8001a3c:	2b00      	cmp	r3, #0
 8001a3e:	d00f      	beq.n	8001a60 <HAL_FDCAN_IRQHandler+0x2f4>
    {
      /* Clear the Message RAM access failure flag */
      __HAL_FDCAN_CLEAR_FLAG(hfdcan, FDCAN_FLAG_RAM_ACCESS_FAILURE);
 8001a40:	687b      	ldr	r3, [r7, #4]
 8001a42:	681b      	ldr	r3, [r3, #0]
 8001a44:	f44f 3200 	mov.w	r2, #131072	; 0x20000
 8001a48:	651a      	str	r2, [r3, #80]	; 0x50
 8001a4a:	4b74      	ldr	r3, [pc, #464]	; (8001c1c <HAL_FDCAN_IRQHandler+0x4b0>)
 8001a4c:	2200      	movs	r2, #0
 8001a4e:	611a      	str	r2, [r3, #16]

      /* Update error code */
      hfdcan->ErrorCode |= HAL_FDCAN_ERROR_RAM_ACCESS;
 8001a50:	687b      	ldr	r3, [r7, #4]
 8001a52:	f8d3 309c 	ldr.w	r3, [r3, #156]	; 0x9c
 8001a56:	f043 0280 	orr.w	r2, r3, #128	; 0x80
 8001a5a:	687b      	ldr	r3, [r7, #4]
 8001a5c:	f8c3 209c 	str.w	r2, [r3, #156]	; 0x9c
    }
  }

  /* Error Status interrupts management ***************************************/
  if (ErrorStatusITs != 0U)
 8001a60:	6b3b      	ldr	r3, [r7, #48]	; 0x30
 8001a62:	2b00      	cmp	r3, #0
 8001a64:	d00d      	beq.n	8001a82 <HAL_FDCAN_IRQHandler+0x316>
  {
    /* Clear the Error flags */
    __HAL_FDCAN_CLEAR_FLAG(hfdcan, ErrorStatusITs);
 8001a66:	687b      	ldr	r3, [r7, #4]
 8001a68:	681a      	ldr	r2, [r3, #0]
 8001a6a:	6b39      	ldr	r1, [r7, #48]	; 0x30
 8001a6c:	4b6c      	ldr	r3, [pc, #432]	; (8001c20 <HAL_FDCAN_IRQHandler+0x4b4>)
 8001a6e:	400b      	ands	r3, r1
 8001a70:	6513      	str	r3, [r2, #80]	; 0x50
 8001a72:	4a6a      	ldr	r2, [pc, #424]	; (8001c1c <HAL_FDCAN_IRQHandler+0x4b0>)
 8001a74:	6b3b      	ldr	r3, [r7, #48]	; 0x30
 8001a76:	0f9b      	lsrs	r3, r3, #30
 8001a78:	6113      	str	r3, [r2, #16]
#if USE_HAL_FDCAN_REGISTER_CALLBACKS == 1
    /* Call registered callback*/
    hfdcan->ErrorStatusCallback(hfdcan, ErrorStatusITs);
#else
    /* Error Status Callback */
    HAL_FDCAN_ErrorStatusCallback(hfdcan, ErrorStatusITs);
 8001a7a:	6b39      	ldr	r1, [r7, #48]	; 0x30
 8001a7c:	6878      	ldr	r0, [r7, #4]
 8001a7e:	f000 f946 	bl	8001d0e <HAL_FDCAN_ErrorStatusCallback>
#endif /* USE_HAL_FDCAN_REGISTER_CALLBACKS */
  }

  /* Error interrupts management **********************************************/
  if (Errors != 0U)
 8001a82:	6b7b      	ldr	r3, [r7, #52]	; 0x34
 8001a84:	2b00      	cmp	r3, #0
 8001a86:	d011      	beq.n	8001aac <HAL_FDCAN_IRQHandler+0x340>
  {
    /* Clear the Error flags */
    __HAL_FDCAN_CLEAR_FLAG(hfdcan, Errors);
 8001a88:	687b      	ldr	r3, [r7, #4]
 8001a8a:	681a      	ldr	r2, [r3, #0]
 8001a8c:	6b79      	ldr	r1, [r7, #52]	; 0x34
 8001a8e:	4b64      	ldr	r3, [pc, #400]	; (8001c20 <HAL_FDCAN_IRQHandler+0x4b4>)
 8001a90:	400b      	ands	r3, r1
 8001a92:	6513      	str	r3, [r2, #80]	; 0x50
 8001a94:	4a61      	ldr	r2, [pc, #388]	; (8001c1c <HAL_FDCAN_IRQHandler+0x4b0>)
 8001a96:	6b7b      	ldr	r3, [r7, #52]	; 0x34
 8001a98:	0f9b      	lsrs	r3, r3, #30
 8001a9a:	6113      	str	r3, [r2, #16]

    /* Update error code */
    hfdcan->ErrorCode |= Errors;
 8001a9c:	687b      	ldr	r3, [r7, #4]
 8001a9e:	f8d3 209c 	ldr.w	r2, [r3, #156]	; 0x9c
 8001aa2:	6b7b      	ldr	r3, [r7, #52]	; 0x34
 8001aa4:	431a      	orrs	r2, r3
 8001aa6:	687b      	ldr	r3, [r7, #4]
 8001aa8:	f8c3 209c 	str.w	r2, [r3, #156]	; 0x9c
  }

  if (hfdcan->Instance == FDCAN1)
 8001aac:	687b      	ldr	r3, [r7, #4]
 8001aae:	681b      	ldr	r3, [r3, #0]
 8001ab0:	4a5c      	ldr	r2, [pc, #368]	; (8001c24 <HAL_FDCAN_IRQHandler+0x4b8>)
 8001ab2:	4293      	cmp	r3, r2
 8001ab4:	f040 80a6 	bne.w	8001c04 <HAL_FDCAN_IRQHandler+0x498>
  {
    if ((hfdcan->ttcan->TTOCF & FDCAN_TTOCF_OM) != 0U)
 8001ab8:	687b      	ldr	r3, [r7, #4]
 8001aba:	685b      	ldr	r3, [r3, #4]
 8001abc:	689b      	ldr	r3, [r3, #8]
 8001abe:	f003 0303 	and.w	r3, r3, #3
 8001ac2:	2b00      	cmp	r3, #0
 8001ac4:	f000 809e 	beq.w	8001c04 <HAL_FDCAN_IRQHandler+0x498>
    {
      TTSchedSyncITs = hfdcan->ttcan->TTIR & FDCAN_TT_SCHEDULE_SYNC_MASK;
 8001ac8:	687b      	ldr	r3, [r7, #4]
 8001aca:	685b      	ldr	r3, [r3, #4]
 8001acc:	6a1b      	ldr	r3, [r3, #32]
 8001ace:	f003 030f 	and.w	r3, r3, #15
 8001ad2:	627b      	str	r3, [r7, #36]	; 0x24
      TTSchedSyncITs &= hfdcan->ttcan->TTIE;
 8001ad4:	687b      	ldr	r3, [r7, #4]
 8001ad6:	685b      	ldr	r3, [r3, #4]
 8001ad8:	6a5b      	ldr	r3, [r3, #36]	; 0x24
 8001ada:	6a7a      	ldr	r2, [r7, #36]	; 0x24
 8001adc:	4013      	ands	r3, r2
 8001ade:	627b      	str	r3, [r7, #36]	; 0x24
      TTTimeMarkITs = hfdcan->ttcan->TTIR & FDCAN_TT_TIME_MARK_MASK;
 8001ae0:	687b      	ldr	r3, [r7, #4]
 8001ae2:	685b      	ldr	r3, [r3, #4]
 8001ae4:	6a1b      	ldr	r3, [r3, #32]
 8001ae6:	f003 0330 	and.w	r3, r3, #48	; 0x30
 8001aea:	623b      	str	r3, [r7, #32]
      TTTimeMarkITs &= hfdcan->ttcan->TTIE;
 8001aec:	687b      	ldr	r3, [r7, #4]
 8001aee:	685b      	ldr	r3, [r3, #4]
 8001af0:	6a5b      	ldr	r3, [r3, #36]	; 0x24
 8001af2:	6a3a      	ldr	r2, [r7, #32]
 8001af4:	4013      	ands	r3, r2
 8001af6:	623b      	str	r3, [r7, #32]
      TTGlobTimeITs = hfdcan->ttcan->TTIR & FDCAN_TT_GLOBAL_TIME_MASK;
 8001af8:	687b      	ldr	r3, [r7, #4]
 8001afa:	685b      	ldr	r3, [r3, #4]
 8001afc:	6a1b      	ldr	r3, [r3, #32]
 8001afe:	f403 73c0 	and.w	r3, r3, #384	; 0x180
 8001b02:	61fb      	str	r3, [r7, #28]
      TTGlobTimeITs &= hfdcan->ttcan->TTIE;
 8001b04:	687b      	ldr	r3, [r7, #4]
 8001b06:	685b      	ldr	r3, [r3, #4]
 8001b08:	6a5b      	ldr	r3, [r3, #36]	; 0x24
 8001b0a:	69fa      	ldr	r2, [r7, #28]
 8001b0c:	4013      	ands	r3, r2
 8001b0e:	61fb      	str	r3, [r7, #28]
      TTDistErrors = hfdcan->ttcan->TTIR & FDCAN_TT_DISTURBING_ERROR_MASK;
 8001b10:	687b      	ldr	r3, [r7, #4]
 8001b12:	685b      	ldr	r3, [r3, #4]
 8001b14:	6a1b      	ldr	r3, [r3, #32]
 8001b16:	f403 43fc 	and.w	r3, r3, #32256	; 0x7e00
 8001b1a:	61bb      	str	r3, [r7, #24]
      TTDistErrors &= hfdcan->ttcan->TTIE;
 8001b1c:	687b      	ldr	r3, [r7, #4]
 8001b1e:	685b      	ldr	r3, [r3, #4]
 8001b20:	6a5b      	ldr	r3, [r3, #36]	; 0x24
 8001b22:	69ba      	ldr	r2, [r7, #24]
 8001b24:	4013      	ands	r3, r2
 8001b26:	61bb      	str	r3, [r7, #24]
      TTFatalErrors = hfdcan->ttcan->TTIR & FDCAN_TT_FATAL_ERROR_MASK;
 8001b28:	687b      	ldr	r3, [r7, #4]
 8001b2a:	685b      	ldr	r3, [r3, #4]
 8001b2c:	6a1b      	ldr	r3, [r3, #32]
 8001b2e:	f403 23f0 	and.w	r3, r3, #491520	; 0x78000
 8001b32:	617b      	str	r3, [r7, #20]
      TTFatalErrors &= hfdcan->ttcan->TTIE;
 8001b34:	687b      	ldr	r3, [r7, #4]
 8001b36:	685b      	ldr	r3, [r3, #4]
 8001b38:	6a5b      	ldr	r3, [r3, #36]	; 0x24
 8001b3a:	697a      	ldr	r2, [r7, #20]
 8001b3c:	4013      	ands	r3, r2
 8001b3e:	617b      	str	r3, [r7, #20]

      /* TT Schedule Synchronization interrupts management **********************/
      if (TTSchedSyncITs != 0U)
 8001b40:	6a7b      	ldr	r3, [r7, #36]	; 0x24
 8001b42:	2b00      	cmp	r3, #0
 8001b44:	d007      	beq.n	8001b56 <HAL_FDCAN_IRQHandler+0x3ea>
      {
        /* Clear the TT Schedule Synchronization flags */
        __HAL_FDCAN_TT_CLEAR_FLAG(hfdcan, TTSchedSyncITs);
 8001b46:	687b      	ldr	r3, [r7, #4]
 8001b48:	685b      	ldr	r3, [r3, #4]
 8001b4a:	6a7a      	ldr	r2, [r7, #36]	; 0x24
 8001b4c:	621a      	str	r2, [r3, #32]
#if USE_HAL_FDCAN_REGISTER_CALLBACKS == 1
        /* Call registered callback*/
        hfdcan->TT_ScheduleSyncCallback(hfdcan, TTSchedSyncITs);
#else
        /* TT Schedule Synchronization Callback */
        HAL_FDCAN_TT_ScheduleSyncCallback(hfdcan, TTSchedSyncITs);
 8001b4e:	6a79      	ldr	r1, [r7, #36]	; 0x24
 8001b50:	6878      	ldr	r0, [r7, #4]
 8001b52:	f000 f8e7 	bl	8001d24 <HAL_FDCAN_TT_ScheduleSyncCallback>
#endif /* USE_HAL_FDCAN_REGISTER_CALLBACKS */
      }

      /* TT Time Mark interrupts management *************************************/
      if (TTTimeMarkITs != 0U)
 8001b56:	6a3b      	ldr	r3, [r7, #32]
 8001b58:	2b00      	cmp	r3, #0
 8001b5a:	d007      	beq.n	8001b6c <HAL_FDCAN_IRQHandler+0x400>
      {
        /* Clear the TT Time Mark flags */
        __HAL_FDCAN_TT_CLEAR_FLAG(hfdcan, TTTimeMarkITs);
 8001b5c:	687b      	ldr	r3, [r7, #4]
 8001b5e:	685b      	ldr	r3, [r3, #4]
 8001b60:	6a3a      	ldr	r2, [r7, #32]
 8001b62:	621a      	str	r2, [r3, #32]
#if USE_HAL_FDCAN_REGISTER_CALLBACKS == 1
        /* Call registered callback*/
        hfdcan->TT_TimeMarkCallback(hfdcan, TTTimeMarkITs);
#else
        /* TT Time Mark Callback */
        HAL_FDCAN_TT_TimeMarkCallback(hfdcan, TTTimeMarkITs);
 8001b64:	6a39      	ldr	r1, [r7, #32]
 8001b66:	6878      	ldr	r0, [r7, #4]
 8001b68:	f000 f8e7 	bl	8001d3a <HAL_FDCAN_TT_TimeMarkCallback>
#endif /* USE_HAL_FDCAN_REGISTER_CALLBACKS */
      }

      /* TT Stop Watch interrupt management *************************************/
      if (__HAL_FDCAN_TT_GET_IT_SOURCE(hfdcan, FDCAN_TT_IT_STOP_WATCH) != 0U)
 8001b6c:	687b      	ldr	r3, [r7, #4]
 8001b6e:	685b      	ldr	r3, [r3, #4]
 8001b70:	6a5b      	ldr	r3, [r3, #36]	; 0x24
 8001b72:	f003 0340 	and.w	r3, r3, #64	; 0x40
 8001b76:	2b00      	cmp	r3, #0
 8001b78:	d01b      	beq.n	8001bb2 <HAL_FDCAN_IRQHandler+0x446>
      {
        if (__HAL_FDCAN_TT_GET_FLAG(hfdcan, FDCAN_TT_FLAG_STOP_WATCH) != 0U)
 8001b7a:	687b      	ldr	r3, [r7, #4]
 8001b7c:	685b      	ldr	r3, [r3, #4]
 8001b7e:	6a1b      	ldr	r3, [r3, #32]
 8001b80:	f003 0340 	and.w	r3, r3, #64	; 0x40
 8001b84:	2b00      	cmp	r3, #0
 8001b86:	d014      	beq.n	8001bb2 <HAL_FDCAN_IRQHandler+0x446>
        {
          /* Retrieve Stop watch Time and Cycle count */
          SWTime = ((hfdcan->ttcan->TTCPT & FDCAN_TTCPT_SWV) >> FDCAN_TTCPT_SWV_Pos);
 8001b88:	687b      	ldr	r3, [r7, #4]
 8001b8a:	685b      	ldr	r3, [r3, #4]
 8001b8c:	6bdb      	ldr	r3, [r3, #60]	; 0x3c
 8001b8e:	0c1b      	lsrs	r3, r3, #16
 8001b90:	b29b      	uxth	r3, r3
 8001b92:	613b      	str	r3, [r7, #16]
          SWCycleCount = ((hfdcan->ttcan->TTCPT & FDCAN_TTCPT_CCV) >> FDCAN_TTCPT_CCV_Pos);
 8001b94:	687b      	ldr	r3, [r7, #4]
 8001b96:	685b      	ldr	r3, [r3, #4]
 8001b98:	6bdb      	ldr	r3, [r3, #60]	; 0x3c
 8001b9a:	f003 033f 	and.w	r3, r3, #63	; 0x3f
 8001b9e:	60fb      	str	r3, [r7, #12]

          /* Clear the TT Stop Watch flag */
          __HAL_FDCAN_TT_CLEAR_FLAG(hfdcan, FDCAN_TT_FLAG_STOP_WATCH);
 8001ba0:	687b      	ldr	r3, [r7, #4]
 8001ba2:	685b      	ldr	r3, [r3, #4]
 8001ba4:	2240      	movs	r2, #64	; 0x40
 8001ba6:	621a      	str	r2, [r3, #32]
#if USE_HAL_FDCAN_REGISTER_CALLBACKS == 1
          /* Call registered callback*/
          hfdcan->TT_StopWatchCallback(hfdcan, SWTime, SWCycleCount);
#else
          /* TT Stop Watch Callback */
          HAL_FDCAN_TT_StopWatchCallback(hfdcan, SWTime, SWCycleCount);
 8001ba8:	68fa      	ldr	r2, [r7, #12]
 8001baa:	6939      	ldr	r1, [r7, #16]
 8001bac:	6878      	ldr	r0, [r7, #4]
 8001bae:	f000 f8cf 	bl	8001d50 <HAL_FDCAN_TT_StopWatchCallback>
#endif /* USE_HAL_FDCAN_REGISTER_CALLBACKS */
        }
      }

      /* TT Global Time interrupts management ***********************************/
      if (TTGlobTimeITs != 0U)
 8001bb2:	69fb      	ldr	r3, [r7, #28]
 8001bb4:	2b00      	cmp	r3, #0
 8001bb6:	d007      	beq.n	8001bc8 <HAL_FDCAN_IRQHandler+0x45c>
      {
        /* Clear the TT Global Time flags */
        __HAL_FDCAN_TT_CLEAR_FLAG(hfdcan, TTGlobTimeITs);
 8001bb8:	687b      	ldr	r3, [r7, #4]
 8001bba:	685b      	ldr	r3, [r3, #4]
 8001bbc:	69fa      	ldr	r2, [r7, #28]
 8001bbe:	621a      	str	r2, [r3, #32]
#if USE_HAL_FDCAN_REGISTER_CALLBACKS == 1
        /* Call registered callback*/
        hfdcan->TT_GlobalTimeCallback(hfdcan, TTGlobTimeITs);
#else
        /* TT Global Time Callback */
        HAL_FDCAN_TT_GlobalTimeCallback(hfdcan, TTGlobTimeITs);
 8001bc0:	69f9      	ldr	r1, [r7, #28]
 8001bc2:	6878      	ldr	r0, [r7, #4]
 8001bc4:	f000 f8d0 	bl	8001d68 <HAL_FDCAN_TT_GlobalTimeCallback>
#endif /* USE_HAL_FDCAN_REGISTER_CALLBACKS */
      }

      /* TT Disturbing Error interrupts management ******************************/
      if (TTDistErrors != 0U)
 8001bc8:	69bb      	ldr	r3, [r7, #24]
 8001bca:	2b00      	cmp	r3, #0
 8001bcc:	d00b      	beq.n	8001be6 <HAL_FDCAN_IRQHandler+0x47a>
      {
        /* Clear the TT Disturbing Error flags */
        __HAL_FDCAN_TT_CLEAR_FLAG(hfdcan, TTDistErrors);
 8001bce:	687b      	ldr	r3, [r7, #4]
 8001bd0:	685b      	ldr	r3, [r3, #4]
 8001bd2:	69ba      	ldr	r2, [r7, #24]
 8001bd4:	621a      	str	r2, [r3, #32]

        /* Update error code */
        hfdcan->ErrorCode |= TTDistErrors;
 8001bd6:	687b      	ldr	r3, [r7, #4]
 8001bd8:	f8d3 209c 	ldr.w	r2, [r3, #156]	; 0x9c
 8001bdc:	69bb      	ldr	r3, [r7, #24]
 8001bde:	431a      	orrs	r2, r3
 8001be0:	687b      	ldr	r3, [r7, #4]
 8001be2:	f8c3 209c 	str.w	r2, [r3, #156]	; 0x9c
      }

      /* TT Fatal Error interrupts management ***********************************/
      if (TTFatalErrors != 0U)
 8001be6:	697b      	ldr	r3, [r7, #20]
 8001be8:	2b00      	cmp	r3, #0
 8001bea:	d00b      	beq.n	8001c04 <HAL_FDCAN_IRQHandler+0x498>
      {
        /* Clear the TT Fatal Error flags */
        __HAL_FDCAN_TT_CLEAR_FLAG(hfdcan, TTFatalErrors);
 8001bec:	687b      	ldr	r3, [r7, #4]
 8001bee:	685b      	ldr	r3, [r3, #4]
 8001bf0:	697a      	ldr	r2, [r7, #20]
 8001bf2:	621a      	str	r2, [r3, #32]

        /* Update error code */
        hfdcan->ErrorCode |= TTFatalErrors;
 8001bf4:	687b      	ldr	r3, [r7, #4]
 8001bf6:	f8d3 209c 	ldr.w	r2, [r3, #156]	; 0x9c
 8001bfa:	697b      	ldr	r3, [r7, #20]
 8001bfc:	431a      	orrs	r2, r3
 8001bfe:	687b      	ldr	r3, [r7, #4]
 8001c00:	f8c3 209c 	str.w	r2, [r3, #156]	; 0x9c
      }
    }
  }

  if (hfdcan->ErrorCode != HAL_FDCAN_ERROR_NONE)
 8001c04:	687b      	ldr	r3, [r7, #4]
 8001c06:	f8d3 309c 	ldr.w	r3, [r3, #156]	; 0x9c
 8001c0a:	2b00      	cmp	r3, #0
 8001c0c:	d002      	beq.n	8001c14 <HAL_FDCAN_IRQHandler+0x4a8>
#if USE_HAL_FDCAN_REGISTER_CALLBACKS == 1
    /* Call registered callback*/
    hfdcan->ErrorCallback(hfdcan);
#else
    /* Error Callback */
    HAL_FDCAN_ErrorCallback(hfdcan);
 8001c0e:	6878      	ldr	r0, [r7, #4]
 8001c10:	f000 f873 	bl	8001cfa <HAL_FDCAN_ErrorCallback>
#endif /* USE_HAL_FDCAN_REGISTER_CALLBACKS */
  }
}
 8001c14:	bf00      	nop
 8001c16:	3748      	adds	r7, #72	; 0x48
 8001c18:	46bd      	mov	sp, r7
 8001c1a:	bd80      	pop	{r7, pc}
 8001c1c:	4000a800 	.word	0x4000a800
 8001c20:	3fcfffff 	.word	0x3fcfffff
 8001c24:	4000a000 	.word	0x4000a000

08001c28 <HAL_FDCAN_ClockCalibrationCallback>:
  * @param  ClkCalibrationITs indicates which Clock Calibration interrupts are signaled.
  *         This parameter can be any combination of @arg FDCAN_Clock_Calibration_Interrupts.
  * @retval None
  */
__weak void HAL_FDCAN_ClockCalibrationCallback(FDCAN_HandleTypeDef *hfdcan, uint32_t ClkCalibrationITs)
{
 8001c28:	b480      	push	{r7}
 8001c2a:	b083      	sub	sp, #12
 8001c2c:	af00      	add	r7, sp, #0
 8001c2e:	6078      	str	r0, [r7, #4]
 8001c30:	6039      	str	r1, [r7, #0]
  UNUSED(ClkCalibrationITs);

  /* NOTE : This function Should not be modified, when the callback is needed,
            the HAL_FDCAN_ClockCalibrationCallback could be implemented in the user file
   */
}
 8001c32:	bf00      	nop
 8001c34:	370c      	adds	r7, #12
 8001c36:	46bd      	mov	sp, r7
 8001c38:	f85d 7b04 	ldr.w	r7, [sp], #4
 8001c3c:	4770      	bx	lr

08001c3e <HAL_FDCAN_TxEventFifoCallback>:
  * @param  TxEventFifoITs indicates which Tx Event FIFO interrupts are signaled.
  *         This parameter can be any combination of @arg FDCAN_Tx_Event_Fifo_Interrupts.
  * @retval None
  */
__weak void HAL_FDCAN_TxEventFifoCallback(FDCAN_HandleTypeDef *hfdcan, uint32_t TxEventFifoITs)
{
 8001c3e:	b480      	push	{r7}
 8001c40:	b083      	sub	sp, #12
 8001c42:	af00      	add	r7, sp, #0
 8001c44:	6078      	str	r0, [r7, #4]
 8001c46:	6039      	str	r1, [r7, #0]
  UNUSED(TxEventFifoITs);

  /* NOTE : This function Should not be modified, when the callback is needed,
            the HAL_FDCAN_TxEventFifoCallback could be implemented in the user file
   */
}
 8001c48:	bf00      	nop
 8001c4a:	370c      	adds	r7, #12
 8001c4c:	46bd      	mov	sp, r7
 8001c4e:	f85d 7b04 	ldr.w	r7, [sp], #4
 8001c52:	4770      	bx	lr

08001c54 <HAL_FDCAN_RxFifo1Callback>:
  * @param  RxFifo1ITs indicates which Rx FIFO 1 interrupts are signaled.
  *         This parameter can be any combination of @arg FDCAN_Rx_Fifo1_Interrupts.
  * @retval None
  */
__weak void HAL_FDCAN_RxFifo1Callback(FDCAN_HandleTypeDef *hfdcan, uint32_t RxFifo1ITs)
{
 8001c54:	b480      	push	{r7}
 8001c56:	b083      	sub	sp, #12
 8001c58:	af00      	add	r7, sp, #0
 8001c5a:	6078      	str	r0, [r7, #4]
 8001c5c:	6039      	str	r1, [r7, #0]
  UNUSED(RxFifo1ITs);

  /* NOTE : This function Should not be modified, when the callback is needed,
            the HAL_FDCAN_RxFifo1Callback could be implemented in the user file
   */
}
 8001c5e:	bf00      	nop
 8001c60:	370c      	adds	r7, #12
 8001c62:	46bd      	mov	sp, r7
 8001c64:	f85d 7b04 	ldr.w	r7, [sp], #4
 8001c68:	4770      	bx	lr

08001c6a <HAL_FDCAN_TxFifoEmptyCallback>:
  * @param  hfdcan pointer to an FDCAN_HandleTypeDef structure that contains
  *         the configuration information for the specified FDCAN.
  * @retval None
  */
__weak void HAL_FDCAN_TxFifoEmptyCallback(FDCAN_HandleTypeDef *hfdcan)
{
 8001c6a:	b480      	push	{r7}
 8001c6c:	b083      	sub	sp, #12
 8001c6e:	af00      	add	r7, sp, #0
 8001c70:	6078      	str	r0, [r7, #4]
  UNUSED(hfdcan);

  /* NOTE : This function Should not be modified, when the callback is needed,
            the HAL_FDCAN_TxFifoEmptyCallback could be implemented in the user file
   */
}
 8001c72:	bf00      	nop
 8001c74:	370c      	adds	r7, #12
 8001c76:	46bd      	mov	sp, r7
 8001c78:	f85d 7b04 	ldr.w	r7, [sp], #4
 8001c7c:	4770      	bx	lr

08001c7e <HAL_FDCAN_TxBufferCompleteCallback>:
  * @param  BufferIndexes Indexes of the transmitted buffers.
  *         This parameter can be any combination of @arg FDCAN_Tx_location.
  * @retval None
  */
__weak void HAL_FDCAN_TxBufferCompleteCallback(FDCAN_HandleTypeDef *hfdcan, uint32_t BufferIndexes)
{
 8001c7e:	b480      	push	{r7}
 8001c80:	b083      	sub	sp, #12
 8001c82:	af00      	add	r7, sp, #0
 8001c84:	6078      	str	r0, [r7, #4]
 8001c86:	6039      	str	r1, [r7, #0]
  UNUSED(BufferIndexes);

  /* NOTE : This function Should not be modified, when the callback is needed,
            the HAL_FDCAN_TxBufferCompleteCallback could be implemented in the user file
   */
}
 8001c88:	bf00      	nop
 8001c8a:	370c      	adds	r7, #12
 8001c8c:	46bd      	mov	sp, r7
 8001c8e:	f85d 7b04 	ldr.w	r7, [sp], #4
 8001c92:	4770      	bx	lr

08001c94 <HAL_FDCAN_TxBufferAbortCallback>:
  * @param  BufferIndexes Indexes of the aborted buffers.
  *         This parameter can be any combination of @arg FDCAN_Tx_location.
  * @retval None
  */
__weak void HAL_FDCAN_TxBufferAbortCallback(FDCAN_HandleTypeDef *hfdcan, uint32_t BufferIndexes)
{
 8001c94:	b480      	push	{r7}
 8001c96:	b083      	sub	sp, #12
 8001c98:	af00      	add	r7, sp, #0
 8001c9a:	6078      	str	r0, [r7, #4]
 8001c9c:	6039      	str	r1, [r7, #0]
  UNUSED(BufferIndexes);

  /* NOTE : This function Should not be modified, when the callback is needed,
            the HAL_FDCAN_TxBufferAbortCallback could be implemented in the user file
   */
}
 8001c9e:	bf00      	nop
 8001ca0:	370c      	adds	r7, #12
 8001ca2:	46bd      	mov	sp, r7
 8001ca4:	f85d 7b04 	ldr.w	r7, [sp], #4
 8001ca8:	4770      	bx	lr

08001caa <HAL_FDCAN_RxBufferNewMessageCallback>:
  * @param  hfdcan pointer to an FDCAN_HandleTypeDef structure that contains
  *         the configuration information for the specified FDCAN.
  * @retval None
  */
__weak void HAL_FDCAN_RxBufferNewMessageCallback(FDCAN_HandleTypeDef *hfdcan)
{
 8001caa:	b480      	push	{r7}
 8001cac:	b083      	sub	sp, #12
 8001cae:	af00      	add	r7, sp, #0
 8001cb0:	6078      	str	r0, [r7, #4]
  UNUSED(hfdcan);

  /* NOTE : This function Should not be modified, when the callback is needed,
            the HAL_FDCAN_RxBufferNewMessageCallback could be implemented in the user file
   */
}
 8001cb2:	bf00      	nop
 8001cb4:	370c      	adds	r7, #12
 8001cb6:	46bd      	mov	sp, r7
 8001cb8:	f85d 7b04 	ldr.w	r7, [sp], #4
 8001cbc:	4770      	bx	lr

08001cbe <HAL_FDCAN_TimestampWraparoundCallback>:
  * @param  hfdcan pointer to an FDCAN_HandleTypeDef structure that contains
  *         the configuration information for the specified FDCAN.
  * @retval None
  */
__weak void HAL_FDCAN_TimestampWraparoundCallback(FDCAN_HandleTypeDef *hfdcan)
{
 8001cbe:	b480      	push	{r7}
 8001cc0:	b083      	sub	sp, #12
 8001cc2:	af00      	add	r7, sp, #0
 8001cc4:	6078      	str	r0, [r7, #4]
  UNUSED(hfdcan);

  /* NOTE : This function Should not be modified, when the callback is needed,
            the HAL_FDCAN_TimestampWraparoundCallback could be implemented in the user file
   */
}
 8001cc6:	bf00      	nop
 8001cc8:	370c      	adds	r7, #12
 8001cca:	46bd      	mov	sp, r7
 8001ccc:	f85d 7b04 	ldr.w	r7, [sp], #4
 8001cd0:	4770      	bx	lr

08001cd2 <HAL_FDCAN_TimeoutOccurredCallback>:
  * @param  hfdcan pointer to an FDCAN_HandleTypeDef structure that contains
  *         the configuration information for the specified FDCAN.
  * @retval None
  */
__weak void HAL_FDCAN_TimeoutOccurredCallback(FDCAN_HandleTypeDef *hfdcan)
{
 8001cd2:	b480      	push	{r7}
 8001cd4:	b083      	sub	sp, #12
 8001cd6:	af00      	add	r7, sp, #0
 8001cd8:	6078      	str	r0, [r7, #4]
  UNUSED(hfdcan);

  /* NOTE : This function Should not be modified, when the callback is needed,
            the HAL_FDCAN_TimeoutOccurredCallback could be implemented in the user file
   */
}
 8001cda:	bf00      	nop
 8001cdc:	370c      	adds	r7, #12
 8001cde:	46bd      	mov	sp, r7
 8001ce0:	f85d 7b04 	ldr.w	r7, [sp], #4
 8001ce4:	4770      	bx	lr

08001ce6 <HAL_FDCAN_HighPriorityMessageCallback>:
  * @param  hfdcan pointer to an FDCAN_HandleTypeDef structure that contains
  *         the configuration information for the specified FDCAN.
  * @retval None
  */
__weak void HAL_FDCAN_HighPriorityMessageCallback(FDCAN_HandleTypeDef *hfdcan)
{
 8001ce6:	b480      	push	{r7}
 8001ce8:	b083      	sub	sp, #12
 8001cea:	af00      	add	r7, sp, #0
 8001cec:	6078      	str	r0, [r7, #4]
  UNUSED(hfdcan);

  /* NOTE : This function Should not be modified, when the callback is needed,
            the HAL_FDCAN_HighPriorityMessageCallback could be implemented in the user file
   */
}
 8001cee:	bf00      	nop
 8001cf0:	370c      	adds	r7, #12
 8001cf2:	46bd      	mov	sp, r7
 8001cf4:	f85d 7b04 	ldr.w	r7, [sp], #4
 8001cf8:	4770      	bx	lr

08001cfa <HAL_FDCAN_ErrorCallback>:
  * @param  hfdcan pointer to an FDCAN_HandleTypeDef structure that contains
  *         the configuration information for the specified FDCAN.
  * @retval None
  */
__weak void HAL_FDCAN_ErrorCallback(FDCAN_HandleTypeDef *hfdcan)
{
 8001cfa:	b480      	push	{r7}
 8001cfc:	b083      	sub	sp, #12
 8001cfe:	af00      	add	r7, sp, #0
 8001d00:	6078      	str	r0, [r7, #4]
  UNUSED(hfdcan);

  /* NOTE : This function Should not be modified, when the callback is needed,
            the HAL_FDCAN_ErrorCallback could be implemented in the user file
   */
}
 8001d02:	bf00      	nop
 8001d04:	370c      	adds	r7, #12
 8001d06:	46bd      	mov	sp, r7
 8001d08:	f85d 7b04 	ldr.w	r7, [sp], #4
 8001d0c:	4770      	bx	lr

08001d0e <HAL_FDCAN_ErrorStatusCallback>:
  * @param  ErrorStatusITs indicates which Error Status interrupts are signaled.
  *         This parameter can be any combination of @arg FDCAN_Error_Status_Interrupts.
  * @retval None
  */
__weak void HAL_FDCAN_ErrorStatusCallback(FDCAN_HandleTypeDef *hfdcan, uint32_t ErrorStatusITs)
{
 8001d0e:	b480      	push	{r7}
 8001d10:	b083      	sub	sp, #12
 8001d12:	af00      	add	r7, sp, #0
 8001d14:	6078      	str	r0, [r7, #4]
 8001d16:	6039      	str	r1, [r7, #0]
  UNUSED(ErrorStatusITs);

  /* NOTE : This function Should not be modified, when the callback is needed,
            the HAL_FDCAN_ErrorStatusCallback could be implemented in the user file
   */
}
 8001d18:	bf00      	nop
 8001d1a:	370c      	adds	r7, #12
 8001d1c:	46bd      	mov	sp, r7
 8001d1e:	f85d 7b04 	ldr.w	r7, [sp], #4
 8001d22:	4770      	bx	lr

08001d24 <HAL_FDCAN_TT_ScheduleSyncCallback>:
  * @param  TTSchedSyncITs indicates which TT Schedule Synchronization interrupts are signaled.
  *         This parameter can be any combination of @arg FDCAN_TTScheduleSynchronization_Interrupts.
  * @retval None
  */
__weak void HAL_FDCAN_TT_ScheduleSyncCallback(FDCAN_HandleTypeDef *hfdcan, uint32_t TTSchedSyncITs)
{
 8001d24:	b480      	push	{r7}
 8001d26:	b083      	sub	sp, #12
 8001d28:	af00      	add	r7, sp, #0
 8001d2a:	6078      	str	r0, [r7, #4]
 8001d2c:	6039      	str	r1, [r7, #0]
  UNUSED(TTSchedSyncITs);

  /* NOTE : This function Should not be modified, when the callback is needed,
            the HAL_FDCAN_TT_ScheduleSyncCallback could be implemented in the user file
   */
}
 8001d2e:	bf00      	nop
 8001d30:	370c      	adds	r7, #12
 8001d32:	46bd      	mov	sp, r7
 8001d34:	f85d 7b04 	ldr.w	r7, [sp], #4
 8001d38:	4770      	bx	lr

08001d3a <HAL_FDCAN_TT_TimeMarkCallback>:
  * @param  TTTimeMarkITs indicates which TT Schedule Synchronization interrupts are signaled.
  *         This parameter can be any combination of @arg FDCAN_TTTimeMark_Interrupts.
  * @retval None
  */
__weak void HAL_FDCAN_TT_TimeMarkCallback(FDCAN_HandleTypeDef *hfdcan, uint32_t TTTimeMarkITs)
{
 8001d3a:	b480      	push	{r7}
 8001d3c:	b083      	sub	sp, #12
 8001d3e:	af00      	add	r7, sp, #0
 8001d40:	6078      	str	r0, [r7, #4]
 8001d42:	6039      	str	r1, [r7, #0]
  UNUSED(TTTimeMarkITs);

  /* NOTE : This function Should not be modified, when the callback is needed,
            the HAL_FDCAN_TT_TimeMarkCallback could be implemented in the user file
   */
}
 8001d44:	bf00      	nop
 8001d46:	370c      	adds	r7, #12
 8001d48:	46bd      	mov	sp, r7
 8001d4a:	f85d 7b04 	ldr.w	r7, [sp], #4
 8001d4e:	4770      	bx	lr

08001d50 <HAL_FDCAN_TT_StopWatchCallback>:
  * @param  SWCycleCount Cycle count value captured together with SWTime.
  *         This parameter is a number between 0 and 0x3F.
  * @retval None
  */
__weak void HAL_FDCAN_TT_StopWatchCallback(FDCAN_HandleTypeDef *hfdcan, uint32_t SWTime, uint32_t SWCycleCount)
{
 8001d50:	b480      	push	{r7}
 8001d52:	b085      	sub	sp, #20
 8001d54:	af00      	add	r7, sp, #0
 8001d56:	60f8      	str	r0, [r7, #12]
 8001d58:	60b9      	str	r1, [r7, #8]
